:1000000078510020C92F0000AD1B0100B52F000062
:10001000B52F0000B52F0000B52F0000B52F000050
:10002000000000000000000000000000A1300000FF
:10003000B52F00000000000069320000B52F00005D
:10004000E9320000E9320000E9320000E932000044
:10005000E9320000E9320000E9320000E932000034
:10006000E9320000E9320000E9320000E932000024
:10007000E9320000E9320000E9320000E932000014
:10008000E9320000E9320000E9320000E932000004
:10009000E9320000E9320000E9320000E9320000F4
:1000A000E9320000E9320000E9320000E9320000E4
:1000B000E9320000E9320000E9320000E9320000D4
:1000C000E9320000E9320000E9320000E9320000C4
:1000D000E9320000E9320000E9320000E9320000B4
:1000E000E9320000E9320000E9320000E9320000A4
:1000F000E9320000E9320000E9320000E932000094
:10010000E9320000E9320000E9320000E932000083
:10011000E9320000E9320000E9320000E932000073
:10012000E9320000E9320000E9320000E932000063
:10013000E9320000E9320000E9320000E932000053
:10014000E9320000E9320000E9320000E932000043
:04015000E932000090
:1001540080EA101404F0F01480EA0410604081EA8C
:10016400111404F0F01481EA0411614082EA1214BB
:1001740004F0F01482EA0412624083EA131404F0D7
:10018400F01483EA0413634080EA102404F47F44E7
:1001940080EA0420604081EA112404F47F4481EA67
:1001A4000421614082EA122404F47F4482EA042296
:1001B400624083EA132404F47F4483EA0423634003
:1001C40081EA500404F0553480EA4400614083EA33
:1001D400520404F0553482EA4402634082EA9004F3
:1001E40004F0333480EA8400624083EA910404F02A
:1001F400333481EA84016340704700BF82EA90048B
:1002040004F0333480EA8400624083EA910404F009
:10021400333481EA8401634081EA500404F05534A4
:1002240080EA4400614083EA520404F0553482EACF
:100234004402634080EA102404F47F4480EA0420EA
:10024400604081EA112404F47F4481EA042161407E
:1002540082EA122404F47F4482EA0422624083EA9C
:10026400132404F47F4483EA0423634080EA1014D3
:1002740004F0F01480EA0410604081EA111404F0E0
:10028400F01481EA0411614082EA121404F0F014BB
:1002940082EA0412624083EA131404F0F01483EA3D
:1002A40004136340704700BF2DE9F14F94464FEAB1
:1002B400930B8A68CB6808684968FFF749FF0BF11C
:1002C400060E33E083EA134480EA134582EA1347B7
:1002D40046BA96EA3444604000F00F1684EA0634C5
:1002E40020F00F1684EA161054BA94EA01067240FC
:1002F40002F00F1486EA043622F00F1486EA141270
:100304004CBA6540694001F00F1485EA043521F0C8
:100314000F1485EA14115CBA67407B4003F00F1494
:1003240087EA043723F00F1487EA1413BCE8F000BB
:100334006040694072407B4000F0E03400F01035CA
:1003440000F00F3040EA540040EAC50080EA90040F
:1003540004F0332480EA8400604001F0E03401F0CA
:10036400103501F00F3141EA540141EAC50181EA37
:10037400910404F0332481EA8401614002F0E03402
:1003840002F0103502F00F3242EA540242EAC5028A
:1003940082EA920404F0332482EA8402624003F085
:1003A400E03403F0103503F00F3343EA540343EA17
:1003B400C50383EA930404F0332483EA840363408B
:1003C40081EA324787EA134581EA354690EA060412
:1003D40084EA034B82EA1B4280EA044484EA05442B
:1003E40083EA144A85EA14448BEA044B84EA3744CA
:1003F40081EA0B4181EA164104EA0A00454082EA97
:1004040004082BEA080041408AEA0B0602EA0600C7
:1004140084EA34438AEA3A4603EA060778404540C8
:10042400414088EA38478BEA3B4007EA000985EAFD
:10043400090583EA0709464006EA0906714085EA88
:10044400010005EA3546464006EA314181EA304179
:1004540081EA364606EA304686EA3546344008EAFA
:10046400010886EA01052A4086EA364003405A40DC
:1004740081EA31431F407C4080EA030709EA070907
:1004840088EA0908544088EA020806EA0A0601EAEA
:100494000B018AEA0B0215408AEA3A4210404540B1
:1004A4008BEA3B4003405E404240174079404D4058
:1004B4004E40E443F64386EA18435D4085EA05402E
:1004C40083EA134386EA034183EA384284EA114308
:1004D40083EA04435FEA3343BEF1010E3FF6F2AE12
:1004E4001ED4BCE8F0006040694072407B4020BCF0
:1004F400FFF784FE28606960AA60EB60BDE8F08FB6
:100504002DE9E0414FF2F00280EA1031114080EA17
:100514000130484041088208C3084FF0000E4FE7FD
:1005240000F0113001F0113102F0113203F01133F7
:1005340040EA410040EA820040EAC3004FF2F00280
:1005440080EA1031114080EA01304840BDE8E08182
:100554002DE9F04F02F11C050646074600EB85081D
:1005640051F8040B043A46F8040BF9D14FF0010C8E
:10057400FFF7C6FF5FEA302080EA0C001ECF41403F
:100584004A4053405C401EC62000464517D04FEAFF
:100594004C0C1CF4807F18BFACF1E50C2C2DE7D07B
:1005A4003C2D06D1FFF7ACFF06CF41404A4006C6BA
:1005B400100006CF41404A4006C61000D8E736E98D
:1005C4000F00FFF7C5FD043D86E80F00F7D1BDE835
:1005D400F08F00BF2DE9F14F03F11C0402EB840CF2
:1005E4004FEA930B8A68CB6808684968FFF7B0FD47
:1005F4003CE9F0006040694072407B400BF1060E1C
:100604004EE083EA134480EA134582EA134746BA6C
:1006140096EA3444604000F00F1684EA063420F071
:100624000F1684EA161054BA94EA0106724002F0D6
:100634000F1486EA043622F00F1486EA14124CBA18
:100644006540694001F00F1485EA043521F00F1468
:1006540085EA14115CBA67407B4003F00F1487EA03
:10066400043723F00F1487EA141344BA44404DBAF4
:100674004D4056BA56405FBA5F4087EA174886EA4B
:10068400174B84EA17464FEA38488BEA1B4485EA3D
:100694001B4788EA1B4580EA3440694072407B402E
:1006A40000F0703400F0803500F00F3040EA440070
:1006B40040EAD50080EA900404F0332480EA840000
:1006C400604001F0703401F0803501F00F3141EAEF
:1006D400440141EAD50181EA910404F0332481EA1A
:1006E4008401614002F0703402F0803502F00F3270
:1006F40042EA440242EAD50282EA920404F0332434
:1007040082EA8402624003F0703403F0803503F01F
:100714000F3343EA440343EAD50383EA930404F022
:10072400332483EA84036340C943DB4381EA00043E
:1007340083EA044686EA020183EA014382EA3345F6
:1007440083EA14435C4084EA00077FEA040A8AEAE5
:10075400024A8AEA010B87EA11488AEA374A80EAA0
:10076400060181EA1A418AEA030A04EA0A004540BA
:1007740088EA040707EA0B0041408AEA0B0608EA04
:10078400060084EA34428AEA3A4602EA06035840FA
:100794004540414087EA37438BEA3B4003EA00097E
:1007A40085EA090582EA0309464006EA090671401A
:1007B40085EA010005EA3546464006EA314181EA08
:1007C400304181EA364606EA304686EA3546344008
:1007D4000F4086EA010508EA050886EA3640024029
:1007E40088EA020881EA314213405C4080EA02034D
:1007F40009EA030987EA0907674088EA040806EA60
:100804000A0601EA0B018AEA0B0425408AEA3A4403
:10081400204045408BEA3B4B02EA0B02564084EAF7
:100824000B04234059406E40694087EA364080EA11
:10083400384080EA060380EA104481EA134585EAD9
:10084400344585EA17427D4082EA354180EA054015
:100854003CE9F0006040694072407B40BEF1010E0B
:100864003FF6CFAE20BCFFF7C9FC28606960AA60E0
:10087400EB60BDE8F08F00BFFFF76ABE30B44FF005
:10088400000310F8014B11F8015B013A84EA0504F6
:1008940043EA0403F5D1A3F101034FEAD37030BC5A
:1008A400704700BF4FF0000310F8012B013943EAF1
:1008B4000203F9D1A3F101034FEAD370704700BFDB
:1008C40030B411F8014B12F8015B6C4000F8014B95
:1008D400013BF6D130BC704710F8012B11F8013BF5
:1008E400012A28BF9A42F7D0D01A7047034611F85C
:1008F400012B03F8012B002AF9D17047034613F8A2
:10090400012B002AFBD1181A013870470321024A2F
:10091400024811F03EB800BF6C680100445F01005A
:10092400002307B50222009309490A4805F0DEF9BD
:10093400034638B10121084A084803B05DF804EBC6
:1009440011F030B803B05DF804EBFFF7DFBF00BF70
:100954006C6001005860010082680100445F01007E
:1009640010B50B4604468CB039B101211B4A1C4812
:100974000CB0BDE8104011F015B80321194A18480D
:1009840011F007F8204603A906F050FA10F0FF030F
:1009940006D00121144A124811F004F80CB010BD1D
:1009A400BDF8243003EB83029210009203210F4A16
:1009B4000B4811F001F8BDF8263003210C4A084811
:1009C40010F0F0FFBDF828300A225A4303210092A8
:1009D4000348084A10F0F0FFE0E700BFA9680100EF
:1009E400445F0100C5680100D0680100F868010097
:1009F4001F690100376901000B460321014A0248BF
:100A040010F0D0BF5E690100445F010013B50020FF
:100A140004F010FD044640B103210346104A114876
:100A240010F0C0FF204602B010BD03210E4A0D484D
:100A340010F0AFFF0D4806F0E5F8234600940222BB
:100A44000B490C4805F052F9044618B1012103463C
:100A5400094AE4E709490A4810F0C5F9E2E700BF8A
:100A640078690100445F0100986901005001002089
:100A74006C60010058600100AF690100D569010094
:100A8400E069010080B50D4A0D4B00AF88B0012923
:100A940008BF13466A460B49CDE905134FF40073AA
:100AA400ADF81C30084B42F8103F00234FF4E651D8
:100AB400064801F0FBFBBD4680BD00BF0D6A010086
:100AC400156A01001E6A010003000001245F010091
:100AD40010B51C460321034A034810F063FF204667
:100AE40010BD00BF366A0100245F0100F0B5044662
:100AF40087B00D4616461F4603210B4A0B4810F0DB
:100B040048FF00238DF81730012302930DF11703DA
:100B14000193BDF830303246009329463B462046C7
:100B240012F097FA07B0F0BD516A0100245F01008A
:100B340010B51C460321034A034810F033FF204636
:100B440010BD00BF646A0100245F010010B51C469B
:100B54000321034A034810F025FF204610BD00BFBF
:100B64007E6A0100245F01002DE9F843884600AF46
:100B740000297DD00568012228460FF03AFF01467E
:100B8400044628460FF0EFFE10EA020616D1E946A5
:100B940088B06A46384BCDE90538032342F8103F44
:100BA4004FF4C2513346354801F080FBCD4686F3FD
:100BB4001188BFF36F8F0423184602DF21462846AD
:100BC4000FF0E7FE26183146002228460FF0CBFE30
:100BD400361AB44218D06E4688B06946284BCDE91F
:100BE4000538032341F8103F244813460A464FF4BE
:100BF400C25101F05BFB0023B54683F31188BFF3B8
:100C04006F8F0423184602DF0022214628460FF086
:100C1400C6FE21460FF0BDFE2618012231462846A5
:100C24000FF0A1FEC20708D4314628460FF023FF77
:100C34003246214628460FF095FF002221462846D9
:100C44000FF091FE261A0122314628460FF08BFE42
:100C5400C30709D4314628460FF00DFF224631461A
:100C640028460FF07FFF3446214628460FF098FFB0
:100C7400BD46BDE8F88300BFF16A0100745F01005E
:100C8400C86A01002DE9F04F91B0009302F004030B
:100C94000293C2F3C2030133840705460E46DDF80E
:100CA40068A00392059340F09C81041D002849D15B
:100CB40001F00706341DC6F10806009B00274FF01B
:100CC40004085A1E4FF0FF33B9460193BB4643460E
:100CD40004970DB1009921600598002800F3D6808F
:100CE4008F480099814203D38E488142C0F0CE8060
:100CF4000399601B11F0020C40F0D680B9F10F0F7C
:100D040000F2CF80002D00F0D68009F140010DEBF8
:100D1400010E0199C0F387000EF8200C0EF8101C88
:100D2400BCF1000F00F0C38060F07F000EF8200CCF
:100D3400013709F10109C5F108014FF6DA7E0434DF
:100D440006918CE00729B8D86FF01B0011B0BDE8FC
:100D5400F08F7A285BD84B280FD8472857D82928F2
:100D64002ED8252850D052D8202818BF23280CBFAD
:100D74004FF0010B4FF0000B71E04C382E2846D891
:100D8400DFE800F06D454545454545454545454544
:100D940048454545454545454556454848565656B2
:100DA4006D486A456D4518481845457F7C4845455A
:100DB40048457C0000204FF0000B4FF0040835E05C
:100DC40001212A38C0B201FA00F010EA0E0F46D110
:100DD40010F0625C2CD110EA010B40D06046013C5B
:100DE4004444B4FBF8F408FB04F425B1A3EB050C6C
:100DF400A444B445A8D8002870D0059901390591B8
:100E04005AF8041B009164E70199013901914FF0EC
:100E1400000B24E012F8010C6C2834D1002012F8E5
:100E2400023C83466C2BC8D14FF008084346D6E7F2
:100E34000AF1070A2AF0070A073424F00704FAE83B
:100E440002BC35B106982044B0423FF67DAFC4E9F8
:100E540000BC4FF0000B08344FF00808434612F86A
:100E6400010F002853D0BBF1000F7FF472AF252887
:100E7400F5D14FF0010B019B013301934FF00408AE
:100E8400ECE7584697E700208346A8E703998807CC
:100E94007FF551AF4FF0010C601BB0F5007FFFF4FC
:100EA4002DAF6FF0150051E74FF0000CF5E70498F3
:100EB400013004903DE7BCF1000F01D0013638E762
:100EC4000298023600287FF434AF0098CDE9063248
:100ED400FFF714FDDDE9063206442AE7042B08D1A6
:100EE4000AF1040015B1DAF80010216082460434D6
:100EF400B5E70AF1070323F0070303F1080A1DB15C
:100F0400D3E90001C4E9000108230834A7E7631BFF
:100F1400B3F5806FC5D23DB9A6F10804E01815E712
:100F24000C5A0100508F0100029A9B0828602B7014
:100F34009DF81030AAB1EB70AF702FB1002208A851
:100F4400C5F1010C91450ED14FF0000AC5F1010322
:100F54000DF1200801930DF1300BD14512D1601B26
:100F6400F4E66B70E8E710F8013B190608D50CEBC2
:100F7400040EB64503F07F033FF6E6AE04F8013BEA
:100F84000132DFE71FB198F90020002A17DB029B2A
:100F9400D3B11AF80B2004F8012B0022019B181975
:100FA4001044B0423FF6D0AE98F80000009904F81F
:100FB400010B2046039214F052FC039A14440AF1E4
:100FC400010A08F10108C8E798F8002055F8223012
:100FD4000093029B009845F82230FFF78FFC421CD7
:100FE400DCE76FF00D00B1E62DE9F04F97B000AFEC
:100FF40005468A46C7E90A3249B9037846788078B3
:1010040000EB83002844564524D8A0EB050AD7F802
:10101400803095F8028003F00103D7F88040FB612B
:10102400EB78B8F1000F0CBF002404F001047B62DC
:101034001BB1D7F880309A0715D4A4B9FB6A1BB149
:1010440051462846BA6A9847564630465C37BD46EC
:10105400BDE8F08F441C2046FFF750FC01302044CB
:101064000AF1010ACFE7D7F88030C3F3C0033B622B
:101074002B78BB619B003B616B687B61BB6905EBB3
:10108400830BFB6A002B77D15646D844BCB11C466F
:101094001BF8013B55F82300FFF730FCD7F88430E8
:1010A400013043B1D7F88830A34282BFD7F88430E7
:1010B40023F814000134C3450644E9D1D846D7F8CF
:1010C40080304FF0000913F0050F0CBF4FF0020BF6
:1010D4004FF0010B7B6A9945B7D298F8013008F1BB
:1010E400020855F823A0AE4B9A45C0F04C81AD4B95
:1010F4003A6A9A452CBF002301230AB318F8021C4C
:101104007869FB620FF04EFEFB6AC8B1EA468AB00A
:101114006A46A54B05937B69CDE906314FF400730C
:10112400ADF82030A14B42F8103F00234FF4125188
:101134009F4801F0BBF8D546023E09F10109C9E711
:1011440023B1FB6933B9A6EB0B06F6E7D7F8803079
:101154009B07F2D55046FFF7D1FBD7F884304BB14B
:10116400D7F888309C423FBFD7F88420431C22F82C
:10117400143001340644E0E7002C6AD1B8F1000FC2
:101184006DD0D7F8803058076CD5C14607F14800B8
:101194004246594614F063FB00220BEB0803FB6044
:1011A4000233796A8A425FD3D7F8802095F801B078
:1011B400F969920704EB0B0348BF0022DBB258BF66
:1011C4004FEA5902002940F0A680D7F8801011F0A8
:1011D400040F14BF494600216B70A970EA702846B9
:1011E400BA6A3969FB6A9847061EFFF62EAFBB69D7
:1011F40049462B707B6ABA6AEB7085F801B0FB6ACA
:1012040085F8028007F148009847B0F10009C0F260
:10121400B6803B697A6A786A03EB4201FB68414411
:1012240003EB4000BA6AFB6AAAEB01019847002865
:10123400C0F2A7804FF0000BB14409EB000607F1A0
:10124400380AA34569D30021BA6A0846FB6A98475D
:10125400FBE644464FF0000907F1380098E744469E
:10126400C14699E7A14697E713F8016CDFF830C14E
:1012740055F8260013F8021C6045C0F08A80DFF898
:1012840024C16045386A2CBF4FF0000B4FF0010BAE
:1012940038B17869C7E901320FF084FDD7E901322A
:1012A400F0B9BBF1000F1ED0F96949B1611C04F11A
:1012B400280007F13004041904F8206CCCB20FE0C4
:1012C400D7F8801049070BD509F1280007F1300C35
:1012D40009F1010100EB0C0909F8106C5FFA81F9BE
:1012E400013202335DE7D7F880008007DED409F1CC
:1012F400280C07F1300EF44409F101000CF8101C1D
:1013040007F1580109F1020951FA80F05FFA89F9ED
:1013140000F8106CE4E700215EE71BF80A3055F88A
:10132400239087F83730D7F884302BB3D7F8883038
:101334009B4521D2D7F8843033F81B800121BA6A47
:10134400FB6A07F13700984700281ADB0644B8F116
:10135400000F06D14846FFF7D1FA00F101081FFA41
:1013640088F841464846BA6AFB6A9847002808DB71
:1013740006440BF1010B64E74FF00008DEE74E462C
:1013840063E6064661E63B6A002B3FF4DFAE0023CA
:10139400B4E6386A0028A6D04FF0000B79E700BF06
:1013A4000C5A0100508F01001E6B01000400000163
:1013B400045F0100014B1860704700BFA0010020CA
:1013C40080B505460E46174698460BF05FFB03466C
:1013D40001F09AFF0446DFF81890424649F80030BD
:1013E40039463046A84754F8090001F025FF00BFEC
:1013F400080000002DE9F047058B0446280717462E
:101404000CD501290CBF45F0100545F020052583B6
:1014140087F31188BFF36F8FBDE8F087022905F0C9
:10142400070540F0948020460FF063FF052864D838
:1014340001A353F820F000BF151400005315000059
:10144400FF140000C1140000DB140000ED140000C0
:1014540001F007035A1F012A1FD8002221F00701B7
:10146400062BD4F8008089B2C4E9002209D143468E
:1014740003E0628B013262831B68002BF9D141F0D7
:101484000201204621830FF034FF4FF000090028A9
:101494006DD041F02001218369E0042B0AD121F0B1
:1014A400070189B2204621830FF023FF10B141F0D8
:1014B400200121834FF00008C14658E02369D3F886
:1014C4000090238B23F0070343F006034FF000083A
:1014D400238346464BE02369D3F80490238B23F0FF
:1014E400070343F00403F1E72369D3F80890238B3F
:1014F40023F0070343F00503E8E74FF00008C14673
:10150400E7E7012243F00803238387F31188BFF33D
:101514006F8F002A3BD1B8F1000F4AD1B9F1000F07
:1015240002D020462C49C847EFF31187202383F3C8
:101534001288BFF36F8F238B23F008039BB223839E
:10154400D9063FD523F01002228303F0070566690C
:10155400218B002EBFF67CAF00239946D4F800807F
:1015640021F00701C4E9003341F001012183238BF9
:1015740003F0070AAA4502D0A268002AC1D1B8F133
:10158400000F02D1B9F1000FDAD00022BAE7A16846
:101594000029C0D00D680029BDD0334652462046EC
:1015A4004F68B8471DB12B6829461D46F3E72B4603
:1015B400FAE74146334652462046D8F800800FF0F9
:1015C400C4FEA8E79A067FF523AF23F02002228306
:1015D40003F0070527E700BF7B13010010B530B9FE
:1015E4000B480C490FF075FF6FF0150010BD8368B0
:1015F40033B9074808490FF06CFF6FF00400F5E7B2
:101604001B6813B1BDE8104018471846EEE700BF49
:101614001C5F0100DD6B0100EE6B010010B530B9F9
:101624000B480C490FF055FF6FF0150010BD83688F
:1016340033B9074808490FF04CFF6FF00400F5E791
:101644005B6813B1BDE8104018471846EEE700BFC9
:101654001C5F0100DD6B0100EE6B010070B508B189
:1016640001B132B90B480C490FF033FF6FF015008C
:1016740070BD84680CB1256935B9064807490FF077
:1016840028FF6FF00400F3E741F8040B2369BDE879
:10169400704018471C5F01000C6C0100EE6B0100E8
:1016A40010B5044630B9104810490FF012FF6FF01E
:1016B400150010BD006830B90B480D490FF009FF43
:1016C4006FF00100F5E783680BB15B6933B9064835
:1016D40008490FF0FEFE6FF00400EAE761689847DE
:1016E4000028E6D12060E4E71C5F0100386C0100AB
:1016F400496C0100EE6B010070B51346044630B925
:10170400104811490FF0E5FE6FF0150070BD006838
:1017140030B90C480D490FF0DCFE6FF00100F5E71D
:1017240082680AB1956835B9064809490FF0D1FEB7
:101734006FF00400EAE70A46AC466168BDE8704011
:10174400604700BF1C5F0100386C0100496C010058
:10175400EE6B0100034A13680BB952681360002052
:10176400704700BFA401002030B50C460E4985B077
:101774000291D0F8CC110546CDE9003100F1F00119
:101784004FF0FF33204609F069FE50B9012384F875
:101794006C30D5F8C83123B1204605B0BDE83040DF
:1017A400184705B030BD00BFE51501002DE9F04F25
:1017B400012381460569466891B005F56777D7E846
:1017C400EF2F002A03D1C7E8E13F0029F7D10CBF6E
:1017D4001A46002240F0BE80B368B16A05F5F47879
:1017E4001C1F10460FF04CFF84427CD8013A00F0D5
:1017F400AB80B2FA82F24FF00044D44072682046C3
:10180400073222F00302C5F83422B16A0FF038FF20
:10181400C5F83802B36A40466343033323F0030335
:1018240002EB4302230103EB4403093323F00303D4
:1018340003EBC403C5F82C221A440832C5F8282245
:101844007368C5F83042C5F82432444BC5E9AB632C
:10185400316800F039FA0446002842D1D9F810B0B2
:10186400D9F804A0D9F800300BF53274CDE906009C
:1018740005932046DAE90739012B08BFA9F11009BD
:1018840013F0B3FADAF82400354905AB009301EB01
:1018940080214B4620464FF480620AF029FD202126
:1018A400DAF824302F4A0DEB01000EF0E1FD20465A
:1018B40008A90AF0F7FD2C490BF52E7013F04EFA27
:1018C400DAE9050183685C684CB15B46274AA047A6
:1018D400044630B9DAE9050183681B692BB96FF056
:1018E4005704002129E001327BE70122984704468E
:1018F4000028F6D11E4B2846C5F8C8311D4BC5F843
:10190400CC311D4B0393D5F838320293D5F83432D9
:10191400CDE9008305F50F73B26AD5F8981300F08A
:101924009BF904460028DCD105F1F00009F03CFEE7
:101934000028C5F8A0030ADB022138460FF088FE10
:10194400204611B0BDE8F08F6FF00B04C9E76FF0CB
:101954001504C6E76FF07704F2E700BF3F160100F5
:10196400302A00206E6C01002516010019160100B2
:10197400FD1900005B170100811900002DE9F041F9
:1019840090460C4699B30B788BB3D0F8BC50A5F5B0
:10199400DE7614354FF0FF324FF0FF3328460AF05D
:1019A400E1F9214630460FF01DFE0746A0B9304646
:1019B40010490FF017FE064620B92846BDE8F0414D
:1019C4000FF044BE1F222146483013F09FFF86F8D3
:1019D4006770C6F86880F0E728460FF037FE434684
:1019E400224639463046BDE8F041FFF7BDBEBDE8AA
:1019F400F08100BFC68C010013B5044640B100233A
:101A04000122CDE90032074BD0E9091209F0FAFCB2
:101A1400236F1B6823B1606F02B0BDE81040184704
:101A240002B010BDC68C010013B5044608462169F6
:101A340001F56771D1E8AF1F022910D193B1A0B1AC
:101A44000121CDE900311346D0E9091209F0DAFC8D
:101A5400074B984208BF6FF00B0002B010BD6FF047
:101A64000F00FAE76FF04C00F7E76FF00100F4E7BE
:101A74002EF8FFFF2DE9F84389461546066906F559
:101A84006773D3E8AF3F022B66D11368EBB11B78C1
:101A9400DBB1D6F89873002F3FD106F5E8784FF004
:101AA400FF324FF0FF3340460AF05CF930462968B4
:101AB4000FF098FD044660B9304629490FF092FDB5
:101AC400044638B940460FF0C1FD6FF01500BDE87B
:101AD400F883012705F108032367AB69646463672E
:101AE400002384F86C3067B140460FF0AFFD214607
:101AF4003046A36E2A68FFF737FE0020C9F800407D
:101B0400E5E71F22296804F1480013F0FFFE404670
:101B140084F867700FF09AFDEFE7304610490FF034
:101B240061FD04460028D0D0002705F108030367AF
:101B3400AB6980F86C70436740641F2229684830A1
:101B440013F0E4FE22460121304684F8677000F069
:101B540065F80028D1D0B8E76FF00F00B7E700BFF1
:101B6400C68C010010B50C46006900F56773D3E814
:101B7400AF3F022B0FD189B10A4900F52E7013F043
:101B840019F9204612F040FC78220021204613F077
:101B94008CFE002010BD6FF00F00FBE76FF001001A
:101BA400F8E700BF301700202DE9F04F05460E4638
:101BB40090460027D0F8BCA085B0AAF5BA74214697
:101BC4003046FEF789FEE0B9134BA4F1480B0293AB
:101BD400DAF810303246CDE9008329464FF0FF335E
:101BE4005846AAF5DE7909F039FC88B97823012230
:101BF40003FB079383F86C20DAF80C300BB15846DA
:101C040098477B1C022B4FF0010704F17804D6D1CE
:101C140005B0BDE8F08F00BF891701001FB5144659
:101C240090B18AB1012912D10A4B00F1F00102935B
:101C3400D0F8CC31483201934FF0FF332046009363
:101C440009F00CFC04B010BD6FF01500FAE7002099
:101C5400F8E700BF891701002DE9F04387B00E466D
:101C6400DDE90E811446DDE910251F4630B329B3A2
:101C7400DFF850C000F1F009002D08BF65469EB999
:101C8400CDE9034400F5DE742046059612F02EFEDD
:101C940003ABCDE900432A463B464146484609F09A
:101CA40001FD07B0BDE8F083002241460E9248468C
:101CB4002A4607B0BDE8F04309F048BE6FF01500AE
:101CC400EFE700BFAD1B0000F0B5044687B02B4A18
:101CD40004AB0E4692E8030083E80300002C49D0CD
:101CE400184609F093FA0546B0B94FF0FF33E16C9A
:101CF40004F15407A163CDE9010000933846236D34
:101D040004F1380212F041F8A06C0FF06AFDC4F837
:101D1400BC0020B96FF00B05284607B0F0BDA06CDD
:101D24000FF05FFDC4F8C0000028F3D0236CD4F892
:101D3400BC10C4F890300423C4F89430C4F8AC3018
:101D44000223E3620E4BB4F84820C4F88C10616C93
:101D5400236204F18C03C4F8A070A4F89820C4F89A
:101D6400B870C4F8A810A4F8B020C4F8A400A66100
:101D74002363D1E76FF01505CEE700BFF05F0100E4
:101D8400746101002DE9F047044607464FF001094C
:101D9400DFF84C8094FAA4F5B5FA85F509FA05F351
:101DA4002E0108EB05156FEA030A24EA03042B7BD2
:101DB40063B158F806301B696BB946447368042252
:101DC4002846196807EA0A070FF073FD002CE1D1D1
:101DD4003846BDE8F087284698470028F6D1ECE756
:101DE400945F010010B5002288B00E490E4813F02C
:101DF40003FA002200230024CDE906230E234FF426
:101E04004072CDE90334CDE90144084B08490094FC
:101E140008480AF0BDFB084906480AF043FB20467F
:101E240008B010BD411E0000A80F00205921000079
:101E3400302E0020F00A00207A6C010001480AF0DC
:101E440085B800BFF80500202DE9F04780462148F9
:101E54000F460FF012FD0646002833D00025284611
:101E6400BDE8F087237B83B12368DB680BB1204690
:101E74009847636883F8069023681B69D3B963683D
:101E84000422204619680FF014FD0136103454451D
:101E9400E8D3B8F1000FE2D0002DDFD02846FFF7D9
:101EA40071FF0546002FF7D000214FF4A47013F002
:101EB400AFF8F1E7204698470028E0D009FA06F386
:101EC4001D43E2E705464FF00109034CDFF80CA07F
:101ED400DDE700BF60170020945F0100A45F0100EC
:101EE400014B53F820007047B461010008B5034664
:101EF40008462BB1044A136000F038FC002008BDEA
:101F04006FF01500FBE700BFD001002010B5044CB2
:101F1400237813B903480AF019F80123237010BD7C
:101F2400A0270020F805002010B5044609480FF04A
:101F3400A4FC3CB1084BD3E8EF1F0139C3E8E21F0E
:101F4400002AF8D105480BF0E9F8BDE81040044830
:101F540009F0FCBF581700205C170020A80F0020D0
:101F6400F80500200022044BD3E8EF0FC3E8E12F6B
:101F74000029F9D1704700BF5817002070B5FFF74A
:101F8400F1FF0546074C084EB44200D370BD6368A8
:101F94005B792BB123685B6813B1294620469847C7
:101FA4001034F1E7945F0100A45F010010B5044C04
:101FB400044920460FF032F8034B1C6010BD00BFEB
:101FC400B4040020A06101005017002000230D4A32
:101FD40010B513700C4A4FF4004113600B4A0C48BF
:101FE4001360FFF783FFFFF7E1FF0A4B0A49184626
:101FF4008B4200D310BD1A1A5C681211013222718F
:102004001033F5E7A1270020581700205C170020A3
:102014007B180100945F0100A45F010001460022C7
:10202400002301480FF01BB8B404002001480FF04E
:10203400B2B800BFB4040020024B014618680FF088
:1020440005B900BF5017002001480FF03AB900BF8E
:10205400B404002070B5284B1B78002B4AD0FFF73E
:10206400E5FF0446002842D1244B254D1B68002B74
:1020740019DD13F079F84FF47A76A0FB063206FBEB
:102084000121D5E90020DB0B43EA41439B1A40F2CE
:10209400E9324FEAD13161EB0001934271F1000161
:1020A40001D3FFF76BFFD5E9003213F57A7342F1E0
:1020B4000002C5E90032ECB1BDE87040FFF7C4BFCF
:1020C4006B685B7923B12B68214628461B689847C7
:1020D4001035B542F4D32046FFF7AEFF094BD3E8E1
:1020E400EF1F0139C3E8E21F002ABDD0F7E7064D10
:1020F400064EEEE7002070BDA027002058170020F0
:10210400A00F00205C170020945F0100A45F010071
:1021140070B50D4D297861B90120FFF795FE0B4C80
:102124000B4EB44206D3FFF795FF0028FBD10123E1
:102134002B7070BD63685B791BB1236820469B6874
:1021440098471034EDE700BFA1270020945F0100F9
:10215400A45F010000212DE9F8430846FFF774FE4F
:10216400044648B340F267684FF0000901F0CCF828
:102174001A4B1B4A1B58136033B11A4B1B68092BAB
:1021840002DD194809F0E2FE0025184F44B120464B
:10219400FFF7F8FD044618B94FF0FF384FF0FF3948
:1021A400FFF758FF064628B9B5B90F4842464B46D3
:1021B40009F000FF3546E9E74FF0FF384FF0FF39EB
:1021C400D4E72B689B691BB1002228461146984727
:1021D4001035BD42F5D3E8E7054DFAE708000000E5
:1021E400541700205C170020F8050020A45F0100AC
:1021F400945F010013B518480FF03FFB174B1B7891
:1022040073B1EFF31184202383F31288BFF36F8F2C
:10221400FFF720FF84F31188BFF36F8F02B010BD66
:102224000F4B1B68002BF9D050B9002200230D4836
:10223400CDE900234FF4004200230AF037FFEDE715
:102244000928EBD107480AF069FF074802B0BDE846
:10225400104009F07BBE00BF5C170020A1270020BE
:1022640054170020A80F0020F805002010B5064BD5
:1022740004461B6898472146A06004480EF06CFF92
:10228400BDE81040FFF7B6BFD0010020B404002021
:10229400044A054B9B1AB1EBD30F34BF52F83100FB
:1022A400002070479C5E0100945F01002DE9F04F0F
:1022B4008FB0C1F34A2604AF0D469046B8607B60E8
:1022C4000C0D002E61D04FF000090A234FF0040BCF
:1022D40007F1140AFE60C7E90799C7F82490009330
:1022E400CDF808B0CDF804A007F11C034A464046D7
:1022F400F968FEF779FEB0F5006F03461CD36C460F
:102304008AB0D8F8041004AB24481A46C3E905017E
:1023140040F2FF71D9614FF400711984204B42F8E7
:10232400103F4FF412514B461E48FFF7BFFFA5461E
:102334002C37BD46BDE8F08FC0F30A0604F1170040
:10234400184420F0070080083B60FFF767FE66F33F
:102354005325044680B13B6800F11001C7E90839F0
:102364000A23F961CDE901AB009340460E4AF968AE
:1023740007F11C03FEF738FE66F353252A46204670
:102384007B68B9680FF0B5FAD2E704F1170020F0C2
:1023940007008008FFF742FE0446EDE78F6C01005A
:1023A400040000012C5F0100C91801002DE9F04F61
:1023B40087B00546DDE9106BDDE9127A88461446DC
:1023C4009946BFB110213B465A460020CDF800A0E3
:1023D400CDF814A0FEF756FCB0F5006F01460BD300
:1023E40040F2FF730221184A184807B0BDE8F04FC5
:1023F4000FF0D8BA3946384604F0070305F007044D
:10240400E40044EA831444EA402444EA065406F10E
:102414001700084420F0070080080391FFF7FEFD31
:10242400054640B13FB13B465A460399CDF800A05A
:102434001030FEF727FC4B4622464146284607B09B
:10244400BDE8F04F0FF055BACE6C01002C5F0100CF
:10245400406820B1034BC01A40F3CF0070474FF0DF
:10246400FF3070479C5E01000EB403B503AB53F814
:10247400042B01460448019301F07AF902B05DF897
:1024840004EB03B0704700BF0B1A0100CA0605D461
:102494008B064CBF02490349FFF7E6BF704700BFF4
:1024A400C58C0100C48C01002DE9F04F89B0984619
:1024B4009DF85090159B044606930D46DDE916A33E
:1024C400189F05920493B9F1000F00F0B08007F44F
:1024D400807307930FF0EBF907F0020B0246002814
:1024E40074D020467749FFF7BFFF0646BBF1000FC3
:1024F40008D017F0440F6BD12A4620467249FFF7E3
:10250400B3FF064407F0010353B1704B204653F860
:1025140029206F4B6F49002A08BF1A46FFF7A4FF12
:1025240007F48073002B07F0080318BF4FF000086E
:10253400002B79D0684B204653F829206749FFF7D0
:1025440093FF0546059B2BB11A4620466449FFF7C5
:102554008BFF0544B8F1000F05D04246204661497F
:10256400FFF782FF054460483544069B1BB12246B1
:102574005E490EF0E6FB049B002B00F08E80DDF834
:1025840010803946B8F1100F204628BF4FF01008CC
:102594000026FFF77BFFB54250DC00263346204679
:1025A4001AF803205249FFF75FFF0136102E4BD073
:1025B400710703D120464F49FFF756FF464533467E
:1025C400EDD320464C49FFF74FFFEEE706468DE773
:1025D4004A4B1868002894D0494B4FF47A7B1B6807
:1025E4004FF03C0CB5FBF3F5B5FBF0F14FF4616330
:1025F40000FB11550BFB05F5B1FBF3F2B5FBF0FE47
:1026040003FB121100FB1E55B1FBFCF30BFB05F59C
:10261400B5FBF0F50CFB131120460091CDE901E563
:102624003849FFF721FF6CE707F008058AE7B8F19E
:10263400010F4D460CBF2C48334896E720462D49E0
:10264400FFF712FF0136A6E7002620462F49FFF7C1
:102654000BFF33461AF803202046A2F120035F2B18
:1026640028BF2E222A49FFF7FFFE0136102E0DD077
:10267400720703D120461F49FFF7F6FEB0453346E3
:10268400E8D820461B49FFF7EFFEEEE7049BC2445F
:10269400B3EB080304937FF472AFB9F1000F0AD0CF
:1026A400FB0704D520460A4A0A49FFF7DDFE3946EE
:1026B4002046FFF7EBFE204609B0BDE8F04F0FF0CF
:1026C40095B900BF0B6D01000F6D0100C4610100DD
:1026D400066D0100B5770100D8610100346D010079
:1026E4003A6D01003E6D01000B1A010075370000C0
:1026F400436D0100908C01008E8C0100681700204E
:1027040064170020186D0100391A0100496D010099
:102714004B6D010042F20F7373B58B4228BF0B4619
:1027240005680446052168460D4A0DF0A1FE0646DB
:10273400636828460B225B680A490FF049F963680D
:102744003246694628465B680FF042F963681B22EB
:1027540028465B6804490FF03BF902B070BD00BF26
:10276400E3730100948E0100788E0100002101239F
:10277400064A904206D8064A01B901231360054B64
:1027840018607047012140085B00F2E740420F00E7
:102794006417002068170020F8B50D460446064F5C
:1027A4004618B44201D12846F8BD14F8011BBB6891
:1027B40001485B689847F4E7605B0100014B0360E4
:1027C400002070472062010010B54FF42814DFF890
:1027D40020C086B0CDE904C40824029404AC01945A
:1027E400BDF82040009410F034FC06B010BD00BFCA
:1027F4001800280008B504480EF0F5FA03480EF056
:10280400F2FA002008BD00BF886D0100BD6D010013
:1028140001480BF0C7BE00BFAC62010038B50446E6
:1028240018B90F4B0F485B6898476168B1F5683F6A
:1028340010D0B1F5680F0DD00B4DA9420AD011F498
:102844006861206807D00146084812F00BF900239C
:102854002360656038BD142213F027F8F9E700BF40
:102864000C040020EA6D01002C5F5CA9901C002080
:1028740008B560B34368B3F5683F0ED0B3F5680F8D
:1028840018D0144A934220D000684FF0FF324FF022
:10289400FF3309F067FA58B115E001220368D3E861
:1028A400EF1F002903D1C3E8E02F0028F7D10AD194
:1028B400002008BD0368084A1B7803F5807352F8AA
:1028C4002330002BF4D00548F3E70548F1E76FF413
:1028D400E040EEE72C5F5CA900000350E98FFFFFA6
:1028E400EA8FFFFF08B520B34368B3F5683F09D00A
:1028F400B3F5680F13D0114A93421DD0006809F054
:10290400A3FA14E000220368D3E8EF1F012903D1DE
:10291400C3E8E02F0028F7D109D0094808BD0021F9
:102924000368084A1B7803F5807342F823100020DB
:10293400F4E76FF4E040F1E70348EFE72C5F5CA9AC
:10294400E98FFFFF00000350EA8FFFFF10B5044634
:1029540018B91D4B1D485B6898476368B3F5683F19
:102964002FD0B3F5680F2CD0194A934219D123689C
:1029740003BB4FF0FF324FF0FF332146154809F0F7
:10298400C3F908B923681BB90F4B13485B68984710
:1029940014220021206812F088FF4FF468636360FA
:1029A40008E0B3F5680F0DD83A2B03D040F6BA62AD
:1029B4009342DED1206812F0A0F8636843F03A0332
:1029C400636010BD054AF3E70C040020EA6D0100C2
:1029D4002C5F5CA9901C0020106E01003A00003AA4
:1029E40008B5064940231422054812F02EF8BDE824
:1029F4000840044904480CF065B800BF9017002053
:102A0400901C0020B4620100C862010008B50348AC
:102A1400034A0021121A0FF0BFF808BD480700202E
:102A2400302A0020074808B5074A0849121A0FF04F
:102A3400B5F8BDE808400648064A0749121A0FF0DF
:102A4400ADB800BF0000002048070020508F0100EF
:102A54000000002000000020508F01002DE9F04705
:102A640006460C4600AF002936D0D1E90012E946EB
:102A74008AB06D46A3684FF0050AE8461F48CDE9C1
:102A84000723CDE9050148F810AF002342464FF46F
:102A940021511B48FFF70AFCD4E90312CD466369B0
:102AA400AD461848C5E90723C5E90501C5F810A0D6
:102AB400002342464FF421511148FFF7F7FBCD465E
:102AC400E3690121104A0E480EF06CFFA36901214D
:102AD4000E4A0B480EF066FF012E07D1EFF3058373
:102AE4000B4A31460648103B0EF05CFF2146304647
:102AF40008F052FFBD46BDE8F08700BF3D6E0100FF
:102B04006C5F01006C6E01009B6E0100AA6E0100F7
:102B1400D86E010030BFFFF7FDBF00BF2DE9F041C3
:102B240005460B4EDFF82C80324606EB0807CC1B1B
:102B34002046094912F093FEA01942460021083CA0
:102B440012F0B3FEC5F8A44007F10800BDE8F08117
:102B54000000000004000000E85F010010B5244CF0
:102B6400244925480FF027F8A36A99013ED5224845
:102B740022490FF020F81E20A36ADA0104D51E486A
:102B84001F490FF018F81F20194CA36ADB0204D563
:102B940019481C490FF00FF80220A36A1C0304D53E
:102BA400154819490FF007F82120114CA36A59035D
:102BB40004D5114815490EF0FEFF2220A36A9A039A
:102BC40004D50D4812490EF0F6FF2320084CA36AE1
:102BD400DB0304D508480F490EF0EDFF2420A36A57
:102BE4006FEA03436FEA1343A36210BD1D20C3E7DA
:102BF40000ED00E0EB6E01006C5F0100036F01006B
:102C0400166F0100306F01005A6F0100786F0100E8
:102C14009D6F0100B76F010070B506460D46294C43
:102C240029492A480EF0C7FFA36ADB0647D527487F
:102C340027490EF0C0FF1120A36A1C0704D52348BE
:102C440024490EF0B8FF12201E4CA36A990712D52E
:102C540021491E480EF0AFFF636BA26A120609D524
:102C640001211E4A19480EF09DFE1EB1A36A23F0ED
:102C74008003A3621320134CA36ADE0704D5134810
:102C840017490EF098FF1420A36A9C0604D50F4838
:102C940014490EF090FF15200A4B9A6AD10658BFCA
:102CA4009A6A9A6A920642BF5A6A22F400525A6297
:102CB4009A6A42F0FF029A6200232B7070BD1020C2
:102CC400BAE700BF00ED00E0E26F01006C5F0100B5
:102CD400F86F01002B7001003E7001005670010076
:102CE4006C7001008B70010070B506460D46284CCF
:102CF400284929480EF05FFFA36AD9043CD5264829
:102D040026490EF058FF1720A36A1A0504D5224855
:102D140023490EF050FF18201D4CA36A9B0512D5C1
:102D24001D4820490EF047FFA36BA26A100409D581
:102D340001211D4A18480EF035FE1EB1A36A23F482
:102D44000043A3621920124CA36A590504D5124802
:102D540016490EF030FF1A20A36ADA050ED50E4884
:102D640013490EF028FF1B20094A936A43F47F435A
:102D7400936200232B7070BD1620C5E7A36A9B04E1
:102D8400F2D505480B490EF016FF1C20ECE700BFF6
:102D940000ED00E0BA7001006C5F0100D07001002A
:102DA4002B700100E1700100FA7001000F71010045
:102DB4002A7101008B7001002DE9F0418AB0674B44
:102DC4000446D3F80480002500AFC8F3080685F351
:102DD4001188BFF36F8F02F07F43B3F17F4F07D1A8
:102DE40002F00C03082B12D15D495E480EF0E3FE9D
:102DF40000252C460023FB71F31E092B00F28E8064
:102E0400DFE803F00A8487808C8C8C8C8C8A100712
:102E14004CBF0C460125EDE7534952480EF0CBFE5A
:102E240000234E4EFB71F36A9A0705D54F494D486E
:102E34000EF0C1FE00232DE0F36A002B01DA4C49A9
:102E4400F5E7F36A5B00F5D54A4946480EF0B3FE50
:102E54007369A26943F480737361BFF34F8FBFF347
:102E64006F8F32F8023C726922F480727261BFF390
:102E74004F8FBFF36F8F03F47F42B2F55F4F2BD1B7
:102E8400DBB2022B28D1236801213B4A35480EF0DE
:102E940089FD2368FA79DAB907F1080604F1200CF0
:102EA400324620686168083403C264451646F7D187
:102EB4007A6A002D4FD0C2F3080121B96FEA522279
:102EC4006FEA42227A62184607F10801FFF7C6FD4D
:102ED4002837BD46BDE8F081204B9A6AD2B222B1B0
:102EE4000120F91DFFF798FE0EE09A6A12F47F4F55
:102EF40004D00120F91DFFF7F7FE05E09B6AB3F546
:102F0400803F97D3FFF72AFE0346C3E70020F91D4D
:102F1400E8E70020F91DEEE7184988E7184A18F495
:102F2400F87FE8468AB0174B08BF13466A4616492D
:102F3400103ECDE905134FF40073ADF82030134B68
:102F4400079642F8103F00234FF411510548FFF74C
:102F5400ADF9C5466EE76FF30802B3E700ED00E094
:102F6400707101006C5F01009B710100B27101007E
:102F7400D3710100E1710100007201001C720100B3
:102F84004271010057710100407201000400000108
:102F9400064B5A6942F010025A615A6942F480623F
:102FA4005A615A6922F008025A61704700ED00E044
:102FB400EFF30880EFF3098101B57246FFF7FCFED9
:102FC40001BD00BF002080F31488BFF36F8F002081
:102FD40080F30A8880F30B88104880F30888002067
:102FE4000F49087007F0CEFB00200E490860BFF3BC
:102FF4004F8F00F02DF8202080F311880A484FF4F9
:103004000061401880F30988EFF31480022108431B
:1030140080F31488BFF36F8F00F0A6F87851002076
:103024002B2A002094ED00E03840002000231846AD
:103034000649D1F89020C2F30722934200DB70477F
:10304400C1F89830C1F8A0000133F6E700ED00E0C4
:1030540010B572B6002484F31388FFF7E7FF234604
:103064004FF0FF300C4A03F120010133102B42F8DA
:103074002100F8D100234FF0FF30074A03F160012B
:103084000133102B42F82100F8D162B6BFF34F8F01
:10309400BFF36F8F10BD00BF00E100E01EF0040F0E
:1030A4000CBFEFF30880EFF30980816911F8021C6B
:1030B4000229FFD001B572460EF072FD01BD00BFBA
:1030C40040B2002807DB01234109034A00F01F0036
:1030D400834042F82130704700E100E040B200280C
:1030E4000CDB01220649430900F01F008240203313
:1030F40041F82320BFF34F8FBFF36F8F704700BF9A
:1031040000E100E0054B420953F82220012300F0BE
:103114001F0003FA00F01040704700BF00E100E018
:1031240040B2002801F10101ACBF00F16040064B40
:103134004FEA4111C9B2ABBF00F5614000F00F0086
:1031440080F800131954704714ED00E0044B054A4D
:1031540023F07F039360BFF34F8FBFF36F8F7047EC
:103164000000000000ED00E008B5FFF7EFFF074A9C
:10317400D2F8883023F47003C2F88830FFF746FC95
:10318400FFF750FC00F0A2F808F02EFD00ED00E07F
:1031940042F8203C009B0B4942F81C3C019B21F067
:1031A400010142F8183C029B42F8081C42F8143C06
:1031B4004FF0807342F8043C0023203A0265C0F8C3
:1031C400A8307047C513000000B50E4B1546986033
:1031D400D0F8A4200C4B0E461A60D0F8943083F338
:1031E4000B882C4686F309880020044B9847204618
:1031F400002100220023024C20470000DB1B0100B9
:10320400C513000008210020AC1C00201022014B33
:103214001A61704700ED00E0054B5A699B689A42B9
:103224001FBF044A536843F080535360704700BF84
:103234000821002000ED00E0084B9B6883420BD17D
:10324400EFF3058343B1064B5A6842F080525A604B
:103254005A6A22F400425A6209F01EBC0821002076
:1032640000ED00E016498A684FF030001044EFF397
:10327400098C80E8F01F202080F31288BFF36F8F41
:10328400104F4FF000664A698A603E60D2F8A4008D
:103294000D4C2060D2F8A8000023C2F8A83080F3B7
:1032A400118802F1300090E8F01F8CF3098802F1D4
:1032B400000004B50EF087FCBDE804407047000030
:1032C4000821002004ED00E0AC1C00200023202194
:1032D4000348C2180133452B82F80013F9D1704713
:1032E40000E100E008B5EFF30583064A103B02EB6A
:1032F400C30152F8330049688847BDE80840FFF726
:103304008BBF00BFD05B010001480068704700001C
:10331400AC1C00201FB50121094B0A4A0A4800F0E1
:103324000FF90023064A0393084B0121019301A8D6
:10333400D31A029300F00EF905B05DF804FB00BF48
:103344000000072000000020D86201004807002088
:103354000A7A0B6810B562F304031C46CB68520961
:1033640023F01F0343EA4203044A43F00103C2F873
:103374009800C2F89C40C2F8A03010BD00ED00E0F7
:1033840010B50A4BD3F89030C3F30723013B98429E
:1033940008D901210346064A06480EF003FB6FF0E4
:1033A400150010BDFFF7D4FFFBE700BF00ED00E000
:1033B40057720100545F01002DE9F04F894614460D
:1033C40006464FF000084F4D85B0C84527DAD6F8B9
:1033D40004A0BAF1000F44D0BAF11F0F17D91AF0A4
:1033E4001F0F14D1D6F800B01BF01F0F0FD1584691
:1033F4000EF02DFC07460AEB0B0001380EF027FCFB
:10340400874210D06FF015073F4A3B4601E0434620
:103414003E4A01213E480EF0C5FA6FF015042046DD
:1034240005B0BDE8F08F17F1160FEDD0BC42EBDD0F
:10343400C5F89870D5F89C10C5F89870D5F8A030E8
:1034440021F01F0143F01F0BD6E900321A449942C0
:1034540002F1FF3A1AD1D34507D13146F8B20EF042
:10346400FFFB08F101080C36AFE73146C5F8987048
:10347400D5F89C30E0B263F30402C5F89C200EF04A
:10348400EFFB10F1160FC8D0441CEAE7C5F898709A
:10349400D5F8A020013B23F01F0302F01F021343C1
:1034A400D3453146E0B2C5F8A030E8D00EF0D8FBE1
:1034B40010F1160FB1D0C5F89870D5F89C209DF87E
:1034C40008300BF1FF3B62F304038DF80830D5F8A4
:1034D400A0309DF808205B0863F347128DF808209C
:1034E400D6E900321344009323F01F035B44A3EB9B
:1034F4000A03013023F01F036946C0B20393FFF7A8
:103504003FFFBEE700ED00E0A37201007D72010001
:10351400545F01000522044BC3F89420BFF34F8F7E
:10352400BFF36F8F704700BF00ED00E0BFF35F8F04
:103534000022024BC3F89420704700BF00ED00E066
:1035440010B5034C2278FFF737FF207010BD00BF81
:10355400A32700202DE9F74F294D8A4606464FF050
:103564000008AB46274FD0451BDAD6F80490B9F1D2
:10357400000F3FD03168084601910EF068FB0199B5
:10358400044609EB010001380EF061FB84424FF060
:1035940014021D4B08D002FB08F36FF015024BF820
:1035A400032003B0BDE8F08F14F1160F2C60F8D09F
:1035B4001978A142F5DD02FB08B0C7F89840C7F8B6
:1035C4009840D7F89C4000F10801007B64F30400A4
:1035D4000871D7F8A0000C79400860F347140C7107
:1035E400D7F89C1021F01F016960D7F8A01021F0D2
:1035F4001F01296108F1010814350C36B3E700BF37
:10360400B01C002000ED00E0A3270020F0B55349D2
:10361400534DD1F890302C68C3F307239C4287B0F4
:1036240000F299800020FFF781FF4E4BC1F8C030B3
:10363400844216D14C4D01A82C70FFF7BFF8002628
:1036440007464A4CB74213D100202B784349D1F89E
:103654009020C2F30722934277DBFFF75BFF002041
:1036640046E0696801EB0011FFF772FE0130DFE705
:103674000199300101EB0613DA682240B2F1807F30
:1036840052D00AD8B2F5001F34D0B2F5800F3ED024
:10369400B2F5801F12D00136D4E7B2F1006F43D0E7
:1036A400B2F1805FF7D15A689B680958013B22F058
:1036B4001F00034423F01F03012032E05A689B6873
:1036C4000958013B22F01F0003440120844623F0E3
:1036D4001F0340EA4C10CDE902218DF8100002A925
:1036E40028780593FFF74CFE00282ADA6FF01500BE
:1036F40007B0F0BD5A689B680958013B22F01F00CF
:1037040003444FF0020C012023F01F03E1E75A6841
:103714009B680958013B22F01F000344062023F054
:103724001F034FF0000CD4E75A689B680958013B0B
:1037340022F01F0003444FF0030C012023F01F0369
:10374400C7E72B7801332B70A5E7C1F89830C1F88F
:10375400A00001337BE74FF0FF30C9E700ED00E044
:10376400E4620100AAFF4400A32700200000F0FF48
:10377400F0B587B007460E4614460021102268466D
:103784001D4612F092F802238DF80230054B2A46AA
:1037940021466846CDE9047601930CF093FE07B008
:1037A400F0BD00BF971C010008B502480CF040FEB4
:1037B400FEE700BFD572010008B5024B1B689847AD
:1037C400002008BDC41C0020034B044A18609378F1
:1037D40043F0020393707047C41C0020340200209D
:1037E40008B50649064821F00701C1F1005202F567
:1037F400E0220DF054FA002008BD00BFA774002099
:10380400C81C002070B541690446867A0A4D59B136
:10381400437ADB0706D4242303FB0653DB691B68C6
:103824009B689847002363612420214600FB0650CF
:10383400BDE8704011F0FCB9280600202422024B98
:1038440002FB0030704700BF280600202421827A42
:10385400054B01FB02331A6A1B7D801A1B3323F0CC
:103864000303B0FBF3F070472806002038B5242486
:10387400827A064B04FB0233DB69D3E901240C6032
:103884001568FFF7E3FF04FB005038BD280600204D
:103894002DE9F04385B00546684690461C460391E1
:1038A40011F064FCDDE90067EFF31189202383F351
:1038B4001288BFF36F8F6B8A002B41D02A8A9A42F9
:1038C40025D900220023284608F00EFB0446F0B157
:1038D40089F31188BFF36F8F039B002B41D03246CD
:1038E4003B46684611F067FC2421A27A254B20460A
:1038F40001FB0233DB6903A91B681D68DDE90023B2
:10390400A847606170BB2046FFF77CFF24E0698A0A
:103914004B1E6B8289F31188BFF36F8F2B7D2A8A2C
:103924002C6A1B3323F00303521A02FB0344154B86
:10393400154AEB1A9B105343A3722B7DE372CBE71A
:1039440089F31188BFF36F8F23464246284608F057
:10395400CBFA04460028BFD10024204605B0BDE8B8
:10396400F0836361012300252381039B294663823D
:10397400E27A656004F1180011F097FF636925820B
:10398400E360EAE728060020398EE33870B5242581
:103994000C4C00B970BD037A4668002BFAD0013B89
:1039A400DBB20372002BF5D1C3604360837A05FB5D
:1039B40003439B6913B198473046EAE7FFF722FFB8
:1039C400FAE700BF28060020052370B5144D154EF4
:1039D4002C780134B4FBF3F303EB8303E41A0FF004
:1039E4001BFE114A137823B156F82430C01A072855
:1039F40014D94FF05023D3F8141141B10021C3F866
:103A04001411D3F814312C700CB9012313702C78D1
:103A14000FF002FE46F82400012070BD0020FCE7F0
:103A2400A5270020D41C0020A4270020054B03EB6D
:103A34008000D0F8003223F0E04343F04053C0F854
:103A44000032704700258450012208B50B4B0C4905
:103A5400C3F8002502230020C1F8D036FFF7E6FFA3
:103A64001046FFF7E3FFC1F80427C1F80429C1F8A1
:103A7400002BBDE8084000F065B800BF00100050FE
:103A84000040005007B500220D4B0E49C3F8A82191
:103A9400C3F8AC204FF48062C3F8B8254FF4006239
:103AA4000948C3F83C250DF107020FF014FE002865
:103AB40003DB9DF8070006F051FF03B05DF804FB3B
:103AC40000A002502CA0025028A1025048B1054B7E
:103AD400054A1B68B3FBF2F35843044B43F001035C
:103AE40018477047C003002040420F005060010097
:103AF40070B50025104E1149114C000716F8013B12
:103B040003F01F025B090FD0012B0FD1234603EBF7
:103B14008203D3F80022013522F0E0420243042D4F
:103B2400C3F80022EAD170BD0B46F0E700238032CF
:103B340053F82230FFDE00BFA08E01000025845020
:103B440000288450014902480DF022BC1C63010086
:103B5400E81C00201FB578B10023019303930123CF
:103B64006946084802930DF026FC029B9B0700D18E
:103B7400039B05B05DF804FB024805B05DF804EB57
:103B84000DF064BCE81C002008B54FF0FF33044A74
:103B940013603F231046536006F0CCFE002008BD9E
:103BA400041D002070B50B7892B006460C4607AD94
:103BB400032B31D8DFE803F0022A2C2E19492846BA
:103BC400FCF794FE05956378174A0493A3781E21A5
:103BD4000393E3780AA80293237910AD01936379E0
:103BE4000093A3790CF044FC32460AAB1C4603CC88
:103BF400AC4210605160234602F10802F6D12068FD
:103C040010603046A388938012B070BD0749D6E790
:103C14000749D4E70749D2E70A212846064A0CF0A7
:103C240027FCCFE7F572010017730100FC72010055
:103C3400037301000D730100088401000E4B402939
:103C440028BF402170B51D460C4C4618B04203F104
:103C5400020304D1002305F81130074870BD02782F
:103C64001209A25C03F8022C10F8012B02F00F02D7
:103C7400A25C03F8012CE9E7A6270020BE8E010010
:103C840010B50024094B86B009480393CDE90444D8
:103C940011F0ABF803AB00934FF4E1620A2305493A
:103CA400034808F025FB204606B010BD3A73010016
:103CB400E00F0020303100200146014808F08EBB9F
:103CC400E00F002030B50378012B11D0022B21D056
:103CD4006BB90A46144B03F1100453F8045BA34276
:103CE40042F8045BF9D143881A0A8A70CB7030BD5C
:103CF4000A460D4B03F1100453F8045BA34242F847
:103D0400045BF9D143681A0C180E4A700870C3F3A7
:103D14000722EAE700F11003013913F80129984258
:103D240001F8012FF9D1E2E7CF8E010038B505463D
:103D340011F0ABF8044608B908F0E4FD054BD3E8EC
:103D4400AF3F0BB1284698471CB9BDE8384008F08E
:103D5400EDBD38BD0C1D0020022838B504460CBF4B
:103D6400084809480DF0A6FF054648B1013CE4B2F5
:103D74001F2C96BF054B0021195D0C300EF009F87D
:103D8400284638BDB806002028060020DF8E010032
:103D94000F2810B50CD80D280CD90A480DF08AFF4D
:103DA400044618B104210C300DF0F3FF204610BD79
:103DB4001328F2D009B10448F0E70220BDE810400E
:103DC400FFF7CABF2407002094060020C3681B78AD
:103DD4000221024A02480EF043B900BF52730100A7
:103DE400CC5E010038B5C5682B7893B9B5F80140AD
:103DF4000F21204602F07EFCEB78054650B90A4AB2
:103E0400118831B96FEA04506FEA10501080074AE4
:103E1400137038BD4372012102F088FB2846BDE8C7
:103E2400384002F031BB00BF8C2700202728002037
:103E340070B5C3681D78BDB9B3F801600F21304671
:103E440002F058FC044638B901213346BDE87040FD
:103E5400064A07480EF004B9294602F067FB2046DB
:103E6400BDE8704002F010BB70BD00BF7A73010062
:103E7400CC5E010010B5C3680121B3F801402046AF
:103E840002F038FC38B901212346BDE81040044A49
:103E940004480EF0E5B8BDE8104002F0F5BA00BFE2
:103EA400A0730100CC5E010010B501210C300DF0AF
:103EB40091FF03780121BDE81040024A02480EF048
:103EC400CFB800BFC4730100CC5E0100014610B539
:103ED40008480DF0F3FE0849084810F05BFF031E84
:103EE40006DABDE810400121054A06480EF0B8B8CC
:103EF40010BD00BF34010020E40200208011002026
:103F0400E6730100CC5E010010B50024084B86B0B6
:103F1400039303AB00934FF42C724FF0FF33054926
:103F24000548CDE9044408F0E3F9204606B010BD85
:103F34000374010038380020B010002010B5084C7C
:103F44000146062294F86F0002F0F4FE38B994F8A2
:103F54006F000522BDE81040024902F0EBBE10BD1F
:103F640000000020A48E01000121024A02480EF044
:103F740075B800BF13740100CC5E01000B46B0B5E8
:103F84000D8A00AF04462946D868FFF757FE8AB069
:103F94006A46094BCDE90750CDE9053440F20243A6
:103FA400ADF82430054B4FF43251054842F8103F28
:103FB4000EF063F8BD46B0BD2D740100050000018C
:103FC400CC5E010070B5C5680121B5F801603046CA
:103FD40002F090FB044638B901213346BDE8704035
:103FE4000B4A0C480EF03CB82B783BB9D5F803309B
:103FF400C0F89930D5F80730C0F89D30201D4FF433
:1040040080310EF02FF82046BDE8704002F03CBA33
:10401400A0730100CC5E01002DE9F84FD0F80C909C
:10402400018A99F8004000AFA30001338B425FD9A5
:104034006D468AB06A46CDE9073105232E484FF410
:104044002151CDE905042D4842F8103F0EF015F832
:10405400AD46BD46BDE8F88F01212B46284A2748C6
:104064000DF0FEFF013699F800309E42F1DA09EBBB
:104074008603B3F801500F212846B3F8038002F0F9
:1040840039FB04460028E7D000F1C00AB8F1000F5C
:1040940006D0656945B901211A4A18480DF0DEFFBA
:1040A400204602F0F1F9DDE7A2692B68954220462B
:1040B400636108BFA36102F00DF907F047FFC5F87B
:1040C40000B0236A8BB9C4E90755DAE8EF3F013B36
:1040D400CAE8E23F002AF8D10021204608F1FF385F
:1040E40002F004F91FFA88F8D0E71D602562ECE7B6
:1040F4000026B346B7E700BF4F740100CC5E010051
:104104007A7401009674010037B50446084602EB40
:10411400C3039A4202D16FF05E0010E0114611F819
:10412400085BA54211D1038A5178994209D90848FC
:104134000121084A00940DF03FFC6FF0150003B014
:1041440030BD536898470020F9E70A46E1E700BF0D
:10415400CC5E0100AD7401002DE9F0470C4608F077
:10416400D1FBE5682B78022B75D0042B0AD00121F2
:104174003D4A3E480DF074FF2046FFF707FC6FF000
:1041840015040EE0B4F81080B8F1020F0ED84346BF
:10419400374A364801210DF063FF2046FFF7F6FB4E
:1041A400002408F0C3FB2046BDE8F08768783E2869
:1041B4000CD1B8F1030F02D12E4A4346E9E7EB785C
:1041C400012B01D00A2B46D1032704E00DF034FF64
:1041D4000746F8073FD504F10C0601213046D4F810
:1041E40014A00DF0EFFD022130460DF0F3FD8146E1
:1041F40000783E2807D1E3681B78012B01D00A2BF5
:1042040006D1032614E00DF017FFC10706460FD4AC
:1042140041F26813184A194919480CF0F1FD0023BA
:1042240083F31188BFF36F8F0323184602DF02263E
:10423400144A0623214699F800000DF045FFB20701
:104244000DD56369A5EB0A0513FA85F5E560A4F8B5
:104254001080BB07A4D52046FFF738FEA0E7204610
:10426400FFF794FBF5E700BF75750100CC5E010014
:10427400CF740100EB7401000B7501003F75010060
:1042840058750100B463010010B5012104460C30D7
:104294000DF0A0FD2146BDE810400223014A00783C
:1042A4000DF012BFE463010073B53E480DF01BFD31
:1042B4000446002873D000F10C0528460DF092FD49
:1042C4000228034603D0042847D0374A03E0238A50
:1042D400032B05D8354A012135480DF0C1FE13E002
:1042E400042128460DF076FDFF23428806882376B4
:1042F400238AC6F30B009A42608309D001210092FD
:104304002B482C4A0DF058FB2046FFF73FFB12E0E8
:104314000F2102F0EFF9054610B9638B264ADAE75C
:1043240002F00EFA21462076320B284602F030F8CD
:10433400284602F0A9F8214BD3F834317BB3204945
:10434400204810F027FD031E29DA01211E4A1848CF
:1043540002B0BDE870400DF083BE284602210DF086
:1043640039FD054600783E2812D00DF065FE10F0A8
:1043740002060DD140F69A43144A154915480CF02B
:104384003FFD86F31188BFF36F8F0323184602DFC6
:1043940004232146104A28780DF096FEB4E702B0B3
:1043A40070BD00BF340100201E7601008975010034
:1043B400CC5E0100AA750100CE750100000000204A
:1043C400E402002080110020E67301000B75010057
:1043D400F075010058750100F463010010B5012166
:1043E40004460C300DF0F6FC2146BDE810400623CF
:1043F400014A00780DF068BE14640100F8B501218B
:10440400044600AF0C300DF0E5FC0678002321468D
:104414003046104AFFF778FE5F3019D1258AE068EC
:104424002946FFF70BFC6C468AB06A460A4BCDE975
:104434000750CDE9053640F20243ADF82430074B6E
:104444004FF43251064842F8103F0DF016FEA546CF
:10445400BD46F8BD44640100327601000500000148
:10446400CC5E01002DE9F74F0023804689461746AC
:10447400DFF800A1DAE8EF4FCAE8E23F002AF9D1F9
:10448400264644B9012143463B4A3C4803B0BDE8B3
:10449400F04F0DF0E5BD2046FFF7D8F94FF00C0BB7
:1044A400374D0BFB0050438843451BD02046FFF794
:1044B400CDF90BFB0050438801210093314A434658
:1044C4002E480DF079FADAE8EF3FCAE8E26F002AE5
:1044D400F9D1002B4BD01E46304603B0BDE8F04F57
:1044E400FFF754BAA74208D020460DF0DEFB3A8A03
:1044F400F96804F10C000DF043FC2046FFF7A6F91F
:104504000C2707FB00504368ABB1B9F1000F12D17F
:104514002046FFF79BF9012107FB005042685368CE
:1045240003F01F00814010685B0900EB8300137ADD
:10453400CBB10DF097FD2046FFF788F90C2707FB58
:1045440000508368002BC7D02046FFF77FF97843DB
:1045540005F800902046FFF779F907FB0055A86895
:1045640007F0F4FCB8E7C9430DF08AFDE3E703B0B4
:10457400BDE8F08F3001002064760100CC5E0100BC
:10458400101D00208C76010073B5C5680121B5F8B3
:104594000160304602F0AEF8044640B901213346CA
:1045A4003B4A3C4802B0BDE870400DF059BD2B7841
:1045B400061D1A2B19D1C378012B50D14FF4804119
:1045C40030460DF04FFD42040FD4D4F88C306946C8
:1045D4000093D4F894302046019302F03FFF204624
:1045E40002B0BDE8704001F04FBF2B78BBBB40F276
:1045F400E242B5F8033028495343C4F88830B5F88B
:104604000520A4F89020B5F80720A4F89220A3F57B
:10461400EA520C3A8A4204D90221204A1D480DF07C
:104624001FFDB4F89030B3F5FA7F04D302211C4A7D
:1046340018480DF015FD40F67641B4F89230A3F118
:104644000A0292B28A4204D90221164A11480DF094
:1046540007FD6FF4805130460DF012FD14E0D6E8EA
:10466400AF3FDB04F5D52B78202BF2D194F89830AA
:10467400002BEED0013B84F898304FF42032002315
:1046840004F1400007F0D4FE204602F033FAA6E716
:10469400A0730100CC5E010095F03C00BF760100E0
:1046A400E67601000D770100B0B53C28044600AF62
:1046B4001AD101F017FB6FF4807110300DF0E0FC9B
:1046C4000020FFF73BFC054630B90121114A12488E
:1046D4000DF0C4FCBD46B0BD4472002101F026FFBC
:1046E400284601F0D1FEF5E76D468AB06A460B4BC9
:1046F4004FF41251CDE90530094B0748079340F2B6
:104704000133ADF82030074B42F8103F0DF0B5FCF3
:10471400AD46DFE739770100CC5E01005A7701002E
:10472400C68C010004000001054BD3E8AF2F02F052
:104734000B02D3E8EF1FC3E8E02F0028F9D170473C
:10474400D400002010B5C1E900239DF808300C46C0
:104754000B72FFF77BF80C22024B02FB00335C6008
:1047640010BD00BF101D0020F8B502460B461048CE
:104774000DF0A0FA0446C0B104210C300DF0EFFA9C
:104784002046FFF763F80C2700260A4D07FB00506C
:1047940046802046FFF75AF807FB00508660204603
:1047A400FFF754F807FB00556E602046F8BD00BFC4
:1047B40000070020101D002010B5044692B04822C6
:1047C4006846064911F04BF8112C9DBF12AB03EB60
:1047D400840454F8480C024812B010BDF85F01007C
:1047E40076770100034B0146D3F84C018268926846
:1047F400104700BF000000202DE9F04F91B00421C4
:1048040000AF4A480DF02EFC6D4688B06A46484B0E
:104814004FF4E6510593474B474806934FF4007312
:10482400ADF81C30454B464C42F8103F0DF025FCCA
:10483400AD46E179434B444E07F12008012998BF66
:104844001E4640462146FFF7ADF98AB06A463F4B03
:10485400CDF81C80CDE905363D4B4FF42351089328
:104864003C4B354842F8103F0DF007FCA246AD46DC
:104874000125394EDFF8E480E3790AF1070A9D4205
:104884003BDB94F870506E462846FFF795FF8CB0DA
:104894006A46B4F87210B4F87630CDE907514FF493
:1048A4000075DFF8BCC009932E4BCDE905C0ADF807
:1048B40028504FF4535142F8103F1F480DF0DDFBD0
:1048C400B54694F871603046FFF776FF8AB06A46C1
:1048D400B4F874302449CDE90763244BCDE90510BD
:1048E400ADF824504FF43351134842F8103F0DF003
:1048F400C4FB4437BD46BDE8F08F51463846FFF748
:1049040051F9E9468AB06A4640F20133CDE90565BA
:104914000797ADF820304FF41351074842F8108F31
:104924000DF0ABFB0135CD46A6E700BFD400002057
:104934008277010094770100CC5E0100030000013E
:1049440000000020C68C01007E77010098770100EA
:104954000002010304000002A77701000400000123
:10496400B877010006000001F67701000500000198
:1049740000487047D56901000149024810F00ABA9D
:10498400D4020020B010002070B505460C4639B1A1
:10499400CB684A699B1A032B0ED86FF0150509E002
:1049A4004FF0FF304FF0FF31FFF7DEFE044618B939
:1049B4006FF06805284670BD2046FEF747FF0C22BD
:1049C400164BA61802FB0033032130465D800DF020
:1049D400E8F90580238A0121033B837030460DF0FA
:1049E400E8F940F635439D420FD12046FFF7FAFE21
:1049F40005460028DED001210346094A09480DF086
:104A04002FFB2046FEF7C2FFD4E72146064810F0EC
:104A140004F90025FFF7B0FFCCE700BF101D00200C
:104A24001D780100CC5E01003C0100202DE9F0411D
:104A34000446458B077E807AFEF700FF61690646CF
:104A440049B1637ADA0704D4C36920461B689B68BA
:104A54009847002363612146304610F0E9F8254B5E
:104A640093F88A309B0642D5384602F0EFFA0446A2
:104A740038B902213B46BDE8F0411F4A1F480DF0FA
:104A8400EFBA837A073B012B09D91C4802211C4A3F
:104A94000DF0E4FA2046BDE8F04101F0F5BC01F068
:104AA400F3FC4FF0FF304FF0FF31FFF75DFE04469B
:104AB40030B9BDE8F0410121124A10480DF0CEBAD8
:104AC40000F10C07012138460DF054F901260421A8
:104AD400067038460DF04EF9002305808670C370C9
:104AE4002146BDE8F04140F63540FFF74DBFBDE833
:104AF400F08100BF000000208A780100CC5E010034
:104B0400B3780100DF7801002DE9F04784B08046D6
:104B140091460C4600AF71B94FF0FF304FF0FF31B2
:104B2400FFF722FE044660B96FF068052846103787
:104B3400BD46BDE8F087887AFEF780FE3C4B834291
:104B44006FD101220021384610F080F82046FEF78C
:104B54007DFE0C23DFF8DCA003FB00A08760204669
:104B64000DF0D7F801464046FFF70EFF054618B191
:104B74002046FEF70BFFD9E74FF4A0220023384666
:104B840007F018FA064690B14FF4F1732A4A2B49FC
:104B94002B480CF035F9324641462A480CF030F9DE
:104BA40085F31188BFF36F8F0323184602DF204675
:104BB400FEF74CFE0C2358431AF800605EB36D46B2
:104BC4008AB06A46204B0796CDE905381F4B4FF44F
:104BD4003251089340F20243ADF824301C4B1D4877
:104BE40042F8103F0DF049FA2046AD46093EFEF763
:104BF400CDFE092E0CD8DFE806F0050B0B08170BC9
:104C04000B0B0B146FF06E0590E76FF00C058DE73E
:104C14006FF004058AE7B9F1000FA9D0C9F8004084
:104C240084E76FF0150581E76FF00B057EE700BFA1
:104C340000070020101D00200B7501005E780100A4
:104C4400587501000279010047790100C68C010002
:104C540005000001CC5E0100F7B5144B054693F93D
:104C64009B300C46002B1DDA14B9204603B0F0BD6E
:104C7400082C4FF0000142F2180001AA264628BF72
:104C84000826FFF741FF0028F0D1019F3246F9685A
:104C94002846013110F0E3FD3846FEF777FE35442F
:104CA400A41BE1E76FF08500E0E700BF00000020EF
:104CB4002DE9F04F8DB000265D4BB0F801901988B6
:104CC40049F47042914204BF1E805A4B00F1040A19
:104CD40008BF1E78C37800AF012B08BF564B0546AA
:104CE400504614BF002493F86F400DF035F907F1D6
:104CF4000808514680B34FF0010B40460DF021F9EE
:104D0400D5F81130C7F80130B5F81530A7F80530DB
:104D1400EB78012B37D007F1100451462046FEF7FB
:104D240041FF6D4688B06A46444B4FF4E251CDE9E9
:104D340005344FF40073ADF81C30414B414842F840
:104D4400103F0DF09AF91321AD4648460DF0EEF9E7
:104D54003437BD46BDE8F08F20460DF04CFA0346CB
:104D6400006895F804B0B8609A889B796868A8F8D8
:104D7400042088F80630BAF804209AF8063038601F
:104D8400BA80BB71C4E74046FFF7D8F80446002850
:104D9400C1D00346B5F8012023F8702B98F80620FB
:104DA400B868B8F8041020679A7140F2E24299801A
:104DB400B5F8173053430022C4F88830B5F81930D9
:104DC400A4F89030B5F81B30A4F89230EB786272F6
:104DD400012BE3701AD187F800B0BA88BB79386820
:104DE400A4F87B2084F87D30C4F8770000F07AFFC3
:104DF400237A1149C3EBC3035A18CB58C4F87E3045
:104E04009388A4F88230937984F88430072120466B
:104E140001F08CFB26B101212046667201F086FB6D
:104E2400204601F0C9FC204601F02EFB90E700BFAC
:104E34008C2700202728002000000020667901002C
:104E440003000001CC5E010000B5C36889B0187886
:104E540020B109B05DF804EBFFF726BCB3F80120DC
:104E64008DF80000ADF80120DA788DF80320B3F84E
:104E74000B20ADF81720B3F80D20ADF81920B3F8C6
:104E84000F20ADF81B205A7C8DF81D205868019026
:104E94001A899B7AADF808208DF80A30084B6846C9
:104EA4001A689B88CDF80B20ADF80F30CDF811208F
:104EB400ADF81530FFF7FCFE09B05DF804FB00BF48
:104EC400B88E01000022F0B585B0114640F60340CB
:104ED40002AFFFF719FE0446002840F0A480FFF754
:104EE40023FC214641F203003A1DFFF70DFE044660
:104EF400002840F098807A684D4DD16805F1780318
:104F0400D1F80100D1F8051003C31046FEF73EFDA9
:104F1400214641F201003A1DFFF7F6FD0446002840
:104F240040F081807868C3685A7885F870205A8880
:104F3400A5F872201A7985F87120B3F80720A5F82E
:104F44007420B3F80530A5F87630FEF71FFD21462E
:104F540041F202003A1DFFF7D7FD0446002862D152
:104F6400D7F804C005F18006DCF80C20531C41324C
:104F7400344618685968083303C493422646F7D167
:104F84006046FEF703FD01F0B1F8044600284AD15B
:104F940095F88A309B0610D40221264A26480DF043
:104FA4005DF895F87C305E064AD40121234A2248F4
:104FB4000DF054F86FF0120435E04FF0FF304FF06D
:104FC400FF31FFF7D1FB0646002800F007820721D6
:104FD4000C300CF0CFFE1B2303700A23C0F80240F0
:104FE4008471447004712246C370314640F63340E4
:104FF400FFF78AFD0446B0B94FF0FF304FF0FF31A0
:10500400FFF7B2FB0646002800F0E88101210C30CE
:105014000CF0BFFE2246314640F63140FFF774FDE6
:1050240004460028BDD020460C37BD46F0BD00BF65
:105034000000002082790100CC5E0100B0790100FB
:10504400002142F203003A1DFFF75EFD04460028EA
:10505400E9D17A68BA4BD168D1F80100D1F80510CA
:1050640003C31046FEF792FC214642F202003A1DA9
:10507400FFF74AFD04460028D5D17E68F468B4F8E9
:1050840001309AB292B1E27882B1A5F8FC30E378AB
:10509400032B06D0032202210092AA48AA4A0CF04C
:1050A4008BFCE278A94811460FF0D0FD3046FEF79C
:1050B4006DFC1F2395F87C60A5F8103116F02006CE
:1050C40019D14FF0FF304FF0FF31FFF74DFB04468D
:1050D400002800F0838102210C300CF04BFE0123E8
:1050E400214603704670324640F66D40FFF70CFDD2
:1050F4000446002897D195F89C301C0712D500214E
:1051040042F21C003A1DFFF7FFFC044600288AD136
:105114007868C368D3F80120D3F80530C5E938238B
:10512400FEF734FC4FF0FF304FF0FF31FFF71CFB6C
:105134000446002800F0528108210C300CF01AFEBD
:1051440095F8D83095F8D92013F0020F14BF2F2307
:105154000F2312F0090F4FF0000218BF43F400634D
:1051640003701B0A214643708270C270027142713F
:105174008271C27142F20100FFF7C6FC04460028A6
:105184007FF451AF95F87C30B5F8FC1098065DD4E7
:10519400C9B941F205003A1DFFF7B6FC04460028E0
:1051A4007FF441AFB5F8FC307C684BB9E368B3F8E1
:1051B4000120A5F8FC209A88644811460FF046FDAA
:1051C4002046FEF7E3FB4FF0FF304FF0FF31FFF7CF
:1051D400CBFA0446002800F0018108210C300CF0C1
:1051E400C9FD102303708823002243700226202364
:1051F40021468270C670027142718271C37140F699
:105204000140FFF781FC044600287FF40CAF0146FF
:105214003A1D4FF60140FFF777FC08B34C4A0221D0
:1052240048480CF01BFFEB79002B40F0C78000F0DE
:10523400A3FC044600287FF4F6AE01F00FFF0446F9
:1052440000287FF4F0AEFFF7D7FAECE60029BAD1D4
:105254000121404A3B480CF001FF6FF00404E2E6F0
:105264007B686E46DC688AB0B4F80130042B96BFC4
:10527400394A3A4952F8231002AAD3614FF4007311
:1052840037481384374BC2E9050142F8103F4FF405
:1052940013512C480CF0F1FEB4F80120B546022A53
:1052A400B4F8033049D1052B47D82F4A52F82310BC
:1052B4006E468AB002AAD3614FF400732B4813845C
:1052C400284BC2E9050142F8103F4FF413511D4821
:1052D4000CF0D3FEB546637994F806C0032B98BF4F
:1052E400234AB4F80760D4F809006C468CB094BF24
:1052F40052F82310194902AAC2E9073C4FF400737B
:10530400DFF870E093851C4BC2E905E1C2E909604E
:105314004FF4735142F8103F0A480CF0AEFEA54614
:105324007868FEF733FB00214FF602403A1DFFF781
:10533400EBFB044620B3114A71E70849B8E700BF04
:10534400D8000020CC5E0100D479010000010020C7
:105354003D7A01001A7A0100A0630100767701000A
:10536400617A010004000001886301007A7A010077
:1053740078630100927A010007000001BF7A0100FE
:105384007868C368B3F80130A5F8C130FEF7FEFAB7
:1053940095F8C1305A077FF546AF21464FF60340D2
:1053A4003A1DFFF7B1FB08B11A4A38E77868C368B9
:1053B4005B7885F8C030FEF7E9FA34E72E78002EE2
:1053C4007FF435AF95F8C1309B061FD54FF0FF3001
:1053D4004FF0FF31FFF7C8F9044610B96FF06804C5
:1053E40021E606210C300CF0C5FCD5F8013021462D
:1053F4000360094B32469B8883804FF60640FFF7D3
:1054040083FB044600283FF412AF0CE66FF08504DA
:1054140009E600BFE87A01000100002010B5FFF79B
:1054240051FD034B1B6813B1BDE81040184710BD74
:10543400A01D002073B52A4D0646D5F84C010FF087
:10544400ABFA48B90121274A27480CF007FE6FF050
:105454001204204602B070BD6FF0020105F1D400C1
:105464000CF00EFE01210CF0FDFD10EA010434D114
:105474001E4B1E600A4605F590700FF0E7FB05F51C
:105484009E700FF0C2FB1A480FF0AFFC6FF00703D9
:105494004FF4966217491648009406F029FF1649FE
:1054A400134806F0FFFFD5F84C01144983681B68C4
:1054B4009847044630B101210346114A0A480CF0CA
:1054C400CFFDC6E726B902B0BDE87040FFF7FABCCD
:1054D40005F1C40006F006FFBBE76FF07704B8E7F8
:1054E40000000020117B0100CC5E0100A01D002003
:1054F40080110020E83A0020297B01005D41000072
:10550400327B010073B5C368D9789A781E8842EA61
:105514000122ADF8002059791A79B4B242EA012285
:10552400ADF80220D9799A79204642EA0122ADF8F1
:1055340004201A7A5B7A012142EA0323ADF806308B
:1055440001F0D8F8054658B901211D4823461D4AE3
:105554000CF086FD022120460CF027FE02B070BD3F
:10556400694601F013FB38B91E2120460CF01DFEDC
:10557400284600F089FFF1E74FF0FF304FF0FF318C
:10558400FFF7F2F804460028F2D00E210C300CF09C
:10559400F1FB00230680C0F80A30BDF80030214634
:1055A4004380BDF802308380BDF80430C380BDF869
:1055B4000630038142F22000FFF7E6F9D8E700BF86
:1055C400CC5E0100A073010038B5042104460C3000
:1055D4000CF000FC034640885D7818B12246197827
:1055E400FEF740FF35B1044806F0B0FCBDE8384092
:1055F400FFF7C2B938BD00BF20010020B0B5044692
:10560400032100AF0C300CF0E5FBE268034611788F
:1056140040F63542B0F80100904216D16C468AB08B
:105624006A46104B1048CDE90531104B4FF4125126
:10563400079340F20133ADF820300D4B42F8103F90
:105644000CF01BFDA546BD46B0BD1D7810B1224629
:10565400FEF708FF002DF6D0064806F077FCFFF7AA
:105664008BF9F0E74E7B0100CC5E0100C68C010093
:10567400040000012001002038B507F043F92F4D44
:10568400D5F83C31002B56D00022002305F590704C
:1056940006F090FC00284ED10022002305F59E70F0
:1056A40006F022FC044668B940F6AA43244A254978
:1056B40025480BF0A5FB84F31188BFF36F8F0323F8
:1056C400184602DFD5F830315BB101211F4A20486A
:1056D4000CF0C4FCD5F83001FEF758F90023C5F8E6
:1056E400303120460CF015FBC5F830012046FFF799
:1056F40079F80346C8B10121164A15480CF0B0FCEC
:10570400154806F023FC2046FEF7A0F80C22134BA4
:1057140002FB0033588818B122461F21FEF7A2FE6F
:105724002046FEF733F9FFF727F9FFF725F9BDE81F
:10573400384007F0FBB801F04FF8F8E7000000200C
:105744000B7501004673010058750100867B01004A
:10575400CC5E01001D78010020010020101D0020F6
:10576400F8B506460024094DEF79E3B29F4202D80A
:105774006FF0010007E0294630460CF032FD073592
:10578400631C08B12046F8BD1C46EEE7000000206B
:1057940070B51A4E06223146054610F095F838B316
:1057A4004FF0FF304FF0FF31FEF7DEFF044608B341
:1057B400062229460C300CF0E3FA2146002242F27C
:1057C4000500FFF7A1F9044648B110F10D0F04D10B
:1057D40002210B4A0B480CF00CFD204670BD3346E9
:1057E4002A6843F86929AA88B280012283F86820CC
:1057F4000024F2E76FF06804EFE700BF69000020BF
:10580400C67C0100EC5E010073B504460D4689B107
:10581400284617490CF0E5FC60B9164A2968C4EB20
:10582400C4041151A318AA889A80AA799A710020F5
:1058340002B070BD6E4630460CF075FB0028F7D1FF
:105844003046FFF78DFF0028F5DA0A4A0098C4EBCA
:10585400C4041051B179B088A31898809971002DAF
:10586400E5D012592A609A88AA809B79AB71DEE749
:10587400AB8E01000000002070B5044629BB38B38C
:1058840026490CF0AEFC18BB2046FFF769FF002840
:105894003EDA23786BB9224AD379002B38D12068B9
:1058A4001060A179A0889171012190801846D1716E
:1058B40070BD012B04D1A37903F0C003C02B07D022
:1058C4000121184A18480CF094FC6FF01500EFE71A
:1058D400134DEB79012B1ED005F1D403D3E8AF3F70
:1058E400DB0707D4002CF0D020460C490CF079FCDF
:1058F4000028EAD1EE792146731C3046EB71FFF79C
:1059040083FF08B93046D3E7EB79013BEB71CFE76E
:105914006FF07700CCE76FF00B00C9E7AB8E0100A6
:1059240000000020D57C0100EC5E01002DE9F3416C
:10593400044640B91A4A02211A480CF05AFC0020C5
:1059440002B0BDE8F081002141F2090001AAFFF78D
:10595400DBF8054608B1144AEDE7019E0622D6F8A5
:105964000C80124908F1010738460FF0ADFF28B149
:10597400062238460E490FF0A7FF18B93046FEF745
:1059840005F8DCE7D8F801303046C4F80130BB88AC
:105994002570A4F80530FDF7F9FF0120D0E700BF1A
:1059A400037D0100EC5E01001C7D0100B88E010046
:1059B400B28E010007B56846FFF7B8FF044BD871F3
:1059C40018B169460020FFF71FFF03B05DF804FB20
:1059D400000000202DE9F041304E88B0F179002913
:1059E40054D196F8C24014F0010411D12C4A02217A
:1059F4002C480CF0FEFB0024F4711625002401272A
:105A0400F379E0B283422BD8002B3FD000203AE058
:105A14006A464FF60940FFF777F808B1224AE6E7ED
:105A2400DDF800C0DCF80C5095F80180B8F1000FE7
:105A34000ED0AB1C02AA12351746186859680833F1
:105A440003C7AB423A46F7D1186838609B88BB80DD
:105A54006046FDF79BFFB8F1000FCDD1134AC6E7AE
:105A640008AB05FB003353F8182C33F8143C694693
:105A7400CDF80120ADF805308DF80070FFF7C4FEB5
:105A840001340028BCD008B0BDE8F08100210846EC
:105A940008B0BDE8F041FFF7EFBE00BF00000020F2
:105AA4003A7D0100EC5E0100667D0100867D010007
:105AB4002DE9F0411D460E461746034648B145B14F
:105AC4000A0311D54C0708D50121284A28480CF0AF
:105AD40090FB6FF01500BDE8F0810CF099FB0028F5
