:1000000008550020053F0000A95C0100F13E0000FA
:10001000F13E0000F13E0000F13E0000F13E000024
:10002000000000000000000000000000DD3F0000B4
:10003000F13E000000000000A5410000F13E00007C
:100040002542000025420000254200002542000014
:100050002542000025420000254200002542000004
:1000600025420000254200002542000025420000F4
:1000700025420000254200002542000025420000E4
:1000800025420000254200002542000025420000D4
:1000900025420000254200002542000025420000C4
:1000A00025420000254200002542000025420000B4
:1000B00025420000254200002542000025420000A4
:1000C0002542000025420000254200002542000094
:1000D0002542000025420000254200002542000084
:1000E0002542000025420000254200002542000074
:1000F0002542000025420000254200002542000064
:100100002542000025420000254200002542000053
:100110002542000025420000254200002542000043
:100120002542000025420000254200002542000033
:100130002542000025420000254200002542000023
:100140002542000025420000254200002542000013
:040150002542000044
:1001580080EA101404F0F01480EA0410604081EA88
:10016800111404F0F01481EA0411614082EA1214B7
:1001780004F0F01482EA0412624083EA131404F0D3
:10018800F01483EA0413634080EA102404F47F44E3
:1001980080EA0420604081EA112404F47F4481EA63
:1001A8000421614082EA122404F47F4482EA042292
:1001B800624083EA132404F47F4483EA04236340FF
:1001C80081EA500404F0553480EA4400614083EA2F
:1001D800520404F0553482EA4402634082EA9004EF
:1001E80004F0333480EA8400624083EA910404F026
:1001F800333481EA84016340704700BF82EA900487
:1002080004F0333480EA8400624083EA910404F005
:10021800333481EA8401634081EA500404F05534A0
:1002280080EA4400614083EA520404F0553482EACB
:100238004402634080EA102404F47F4480EA0420E6
:10024800604081EA112404F47F4481EA042161407A
:1002580082EA122404F47F4482EA0422624083EA98
:10026800132404F47F4483EA0423634080EA1014CF
:1002780004F0F01480EA0410604081EA111404F0DC
:10028800F01481EA0411614082EA121404F0F014B7
:1002980082EA0412624083EA131404F0F01483EA39
:1002A80004136340704700BF2DE9F14F94464FEAAD
:1002B800930B8A68CB6808684968FFF749FF0BF118
:1002C800060E33E083EA134480EA134582EA1347B3
:1002D80046BA96EA3444604000F00F1684EA0634C1
:1002E80020F00F1684EA161054BA94EA01067240F8
:1002F80002F00F1486EA043622F00F1486EA14126C
:100308004CBA6540694001F00F1485EA043521F0C4
:100318000F1485EA14115CBA67407B4003F00F1490
:1003280087EA043723F00F1487EA1413BCE8F000B7
:100338006040694072407B4000F0E03400F01035C6
:1003480000F00F3040EA540040EAC50080EA90040B
:1003580004F0332480EA8400604001F0E03401F0C6
:10036800103501F00F3141EA540141EAC50181EA33
:10037800910404F0332481EA8401614002F0E034FE
:1003880002F0103502F00F3242EA540242EAC50286
:1003980082EA920404F0332482EA8402624003F081
:1003A800E03403F0103503F00F3343EA540343EA13
:1003B800C50383EA930404F0332483EA8403634087
:1003C80081EA324787EA134581EA354690EA06040E
:1003D80084EA034B82EA1B4280EA044484EA054427
:1003E80083EA144A85EA14448BEA044B84EA3744C6
:1003F80081EA0B4181EA164104EA0A00454082EA93
:1004080004082BEA080041408AEA0B0602EA0600C3
:1004180084EA34438AEA3A4603EA060778404540C4
:10042800414088EA38478BEA3B4007EA000985EAF9
:10043800090583EA0709464006EA0906714085EA84
:10044800010005EA3546464006EA314181EA304175
:1004580081EA364606EA304686EA3546344008EAF6
:10046800010886EA01052A4086EA364003405A40D8
:1004780081EA31431F407C4080EA030709EA070903
:1004880088EA0908544088EA020806EA0A0601EAE6
:100498000B018AEA0B0215408AEA3A4210404540AD
:1004A8008BEA3B4003405E404240174079404D4054
:1004B8004E40E443F64386EA18435D4085EA05402A
:1004C80083EA134386EA034183EA384284EA114304
:1004D80083EA04435FEA3343BEF1010E3FF6F2AE0E
:1004E8001ED4BCE8F0006040694072407B4020BCEC
:1004F800FFF784FE28606960AA60EB60BDE8F08FB2
:100508002DE9E0414FF2F00280EA1031114080EA13
:100518000130484041088208C3084FF0000E4FE7F9
:1005280000F0113001F0113102F0113203F01133F3
:1005380040EA410040EA820040EAC3004FF2F0027C
:1005480080EA1031114080EA01304840BDE8E0817E
:100558002DE9F04F02F11C050646074600EB850819
:1005680051F8040B043A46F8040BF9D14FF0010C8A
:10057800FFF7C6FF5FEA302080EA0C001ECF41403B
:100588004A4053405C401EC62000464517D04FEAFB
:100598004C0C1CF4807F18BFACF1E50C2C2DE7D077
:1005A8003C2D06D1FFF7ACFF06CF41404A4006C6B6
:1005B800100006CF41404A4006C61000D8E736E989
:1005C8000F00FFF7C5FD043D86E80F00F7D1BDE831
:1005D800F08F00BF2DE9F14F03F11C0402EB840CEE
:1005E8004FEA930B8A68CB6808684968FFF7B0FD43
:1005F8003CE9F0006040694072407B400BF1060E18
:100608004EE083EA134480EA134582EA134746BA68
:1006180096EA3444604000F00F1684EA063420F06D
:100628000F1684EA161054BA94EA0106724002F0D2
:100638000F1486EA043622F00F1486EA14124CBA14
:100648006540694001F00F1485EA043521F00F1464
:1006580085EA14115CBA67407B4003F00F1487EAFF
:10066800043723F00F1487EA141344BA44404DBAF0
:100678004D4056BA56405FBA5F4087EA174886EA47
:10068800174B84EA17464FEA38488BEA1B4485EA39
:100698001B4788EA1B4580EA3440694072407B402A
:1006A80000F0703400F0803500F00F3040EA44006C
:1006B80040EAD50080EA900404F0332480EA8400FC
:1006C800604001F0703401F0803501F00F3141EAEB
:1006D800440141EAD50181EA910404F0332481EA16
:1006E8008401614002F0703402F0803502F00F326C
:1006F80042EA440242EAD50282EA920404F0332430
:1007080082EA8402624003F0703403F0803503F01B
:100718000F3343EA440343EAD50383EA930404F01E
:10072800332483EA84036340C943DB4381EA00043A
:1007380083EA044686EA020183EA014382EA3345F2
:1007480083EA14435C4084EA00077FEA040A8AEAE1
:10075800024A8AEA010B87EA11488AEA374A80EA9C
:10076800060181EA1A418AEA030A04EA0A004540B6
:1007780088EA040707EA0B0041408AEA0B0608EA00
:10078800060084EA34428AEA3A4602EA06035840F6
:100798004540414087EA37438BEA3B4003EA00097A
:1007A80085EA090582EA0309464006EA0906714016
:1007B80085EA010005EA3546464006EA314181EA04
:1007C800304181EA364606EA304686EA3546344004
:1007D8000F4086EA010508EA050886EA3640024025
:1007E80088EA020881EA314213405C4080EA020349
:1007F80009EA030987EA0907674088EA040806EA5C
:100808000A0601EA0B018AEA0B0425408AEA3A44FF
:10081800204045408BEA3B4B02EA0B02564084EAF3
:100828000B04234059406E40694087EA364080EA0D
:10083800384080EA060380EA104481EA134585EAD5
:10084800344585EA17427D4082EA354180EA054011
:100858003CE9F0006040694072407B40BEF1010E07
:100868003FF6CFAE20BCFFF7C9FC28606960AA60DC
:10087800EB60BDE8F08F00BFFFF76ABE2DE9F00717
:1008880091E8F807B2E802105B1854EB0C04B2E8E0
:1008980002104D4156EB0C06B2E802104F4158EBDE
:1008A8000C08B2E8021059EB01095AEB0C0A80E86F
:1008B800F80780410130BDE8F00770472DE9F007DF
:1008C80091E8F807B2E802105B1A74EB0C04B2E87E
:1008D80002108D4176EB0C06B2E802108F4178EBDE
:1008E8000C08B2E8021079EB01097AEB0C0A80E8EF
:1008F800F80780414042BDE8F00770472DE9F0074E
:10090800524290E87800B1E880071740DB1918EAEE
:10091800020854EB080419EA020955EB09051AEA1A
:10092800020A56EB0A0678C090E87800B1E880071A
:1009380017407B4118EA020854EB080419EA020937
:1009480055EB09051AEA020A56EB0A0678C08041F7
:100958000130BDE8F00770472DE9F007524290E8F2
:100968007800B1E880071740DB1B18EA020874EB2F
:10097800080419EA020975EB09051AEA020A76EB76
:100988000A0678C090E87800B1E880071740BB41B4
:1009980018EA020874EB080419EA020975EB09055C
:1009A8001AEA020A76EB0A0678C080414042BDE89E
:1009B800F00770472DE9F00152424FF0040890E823
:1009C800300091E8C000A31B1340E41AF618EB1B93
:1009D8001340ED1AFF1830C0C0C1B8F10108EED1BC
:1009E800BDE8F001704700BF00B592E8DC072DE9CB
:1009F800DC07B1E8805702B4A7FB02510A95A8FBAF
:100A0800020BE7FB6310E9FB62B00B91A8FB0351F3
:100A1800EAFB6201E7FB64B5E7FB6605E8FB6615E0
:100A2800CDF830B0A9FB03B6EAFB6316ECFB6356BE
:100A3800E8FB640BE9FB641BEAFB645BECFB646B9F
:100A48000D90ACFB0230059CEEFB6250E9FB646044
:100A5800EAFB64B0E7FB6431E8FB6451069CE8FB01
:100A68006461E9FB64B1EAFB64010E93A7FB0432FD
:100A7800079CE7FB6462E8FB64B2E9FB6402EAFBFB
:100A88006412049CE9FB6453EAFB6463089CE7FB7B
:100A980064B3E8FB6403E9FB6413EAFB64230F9582
:100AA8005DF8049B99E80006DDF80080A9FB08546E
:100AB800EAFB68B4DDF81080ECFB6804EEFB681410
:100AC800E9FB6824EAFB6834DDF80480EEFB68651E
:100AD800E9FB68B5EAFB6805DDF81480ECFB6815EE
:100AE800EEFB6825E9FB6835EAFB68450F96DDF8FB
:100AF8000880AEFB0876E9FB6806EAFB6816DDF8B5
:100B08001880ECFB6826EEFB6836E9FB6846EAFBD2
:100B18006856DDF80C80ECFB68B7EEFB6807E9FB6C
:100B28006817EAFB6827DDF81C80ECFB6837EEFBEA
:100B38006847E9FB6857EAFB686708B000BD00BF73
:100B48002DE9F14F87B0FFF74FFFDDF81C8008F162
:100B5800200888E8FF00FFBC87E87F08BDE8F08F21
:100B680000B591E89857A3FB03520195A3FB040134
:100B7800E3FB6420E3FB67100292A3FB0752E3FB4D
:100B88006802E4FB6415E3FB6805E3FB6925039150
:100B9800A4FB07B6E3FB6926E3FB6A56E4FB670B95
:100BA800E4FB682BE3FB6A5BE3FB6C6B0490A4FB40
:100BB8000810E4FB6950E3FB6C60E3FB6EB0E7FBF5
:100BC8006721E4FB6951E4FB6A61E3FB6EB1E4FB76
:100BD8006E010592A7FB0832E4FB6A62E4FB6CB283
:100BE800E4FB6E02E7FB6E12E7FB6853E7FB696301
:100BF800E4FB6CB3E7FB6C03E7FB6E13E8FB6E23C7
:100C08000695A7FB0954E7FB6AB4E7FB6C04E8FB0D
:100C18006C14E8FB6E24E9FB6E34E8FB6865E7FBBF
:100C28006AB5E8FB6A05E8FB6C15E9FB6C25E9FB8E
:100C38006E35EAFB6E450796A8FB0976E8FB6A065F
:100C4800E9FB6A16E9FB6C26EAFB6C36EAFB6E46A2
:100C5800ECFB6E56E8FB69B7E9FB6907E9FB6A1725
:100C6800EAFB6A27EAFB6C37ECFB6C47ECFB6E5738
:100C7800EEFB6E6700BD00BF2DE9F14F87B0FFF7AF
:100C88006FFFDDF81C8008F1200888E8FF00FFBC32
:100C980087E87F08BDE8F08F30B44FF0000310F804
:100CA800014B11F8015B013A84EA050443EA0403A5
:100CB800F5D1A3F101034FEAD37030BC704700BFF0
:100CC8004FF0000310F8012B013943EA0203F9D170
:100CD800A3F101034FEAD370704700BF30B411F895
:100CE800014B12F8015B6C4000F8014B013BF6D157
:100CF80030BC70472DE9F00791E8F807B2E8021018
:100D08005B1854EB0C04B2E802104D4156EB0C068C
:100D1800B2E802104F4158EB0C08B2E8021059EB48
:100D280001095AEB0C0A8941B3F1FF3374F1FF341E
:100D380075F1FF3576F1000677F1000778F10008C4
:100D480079F101097AF1FF3A51F100015B184C4140
:100D58004D4156F1000657F1000758F1000859EBCC
:100D6800D1795AEB010A80E8F807BDE8F007704727
:100D78002DE9F00791E8F807B2E802105B1A74EB66
:100D88000C04B2E802108D4176EB0C06B2E80210B2
:100D98008F4178EB0C08B2E8021079EB01097AEB85
:100DA8000C0A89415B184C414D4156F1000657F138
:100DB800000758F1000859EBD1795AEB010A80E88D
:100DC800F807BDE8F007704718EB040859EB050968
:100DD8005AEB060A5BEB070B5FF0000C4CF1000CBA
:100DE80018EB050859EB06095AEB070A5BEB070BEA
:100DF80050EB0C005FF0000C51EB0C0152EB0C02B5
:100E080063414CF1000CB8EB070879F100097AF15D
:100E1800000A7BEB040BA841B141A241B3416CF13C
:100E2800000CBBEB050BB041B941AA41BB416CF1C9
:100E3800000C4CF001068CF0020718EB060859EB81
:100E48006C095AEB6C0A7BEB6C0B70EB6C0471EB66
:100E58006C0572EB670653EB6C076CEB6C0C18EBCC
:100E68000C0059EB0C015AEB0C025BF1000354F136
:100E7800000455F1000556EBDC7657EB0C0770477C
:100E88002DE9F14F87B0FFF7AFFDDDF81080DDF8F1
:100E98001490DDF818A0FFF797FFBDE8000FFFF7E3
:100EA80093FF03B05DF8048B88E8FF00BDE8F08F7E
:100EB8002DE9F14F87B0FFF753FEDDF81080DDF81C
:100EC8001490DDF818A0FFF77FFFBDE8000FFFF7CB
:100ED8007BFF03B05DF8048B88E8FF00BDE8F08F66
:100EE80010F8012B11F8013B012A28BF9A42F7D0CC
:100EF800D01A7047034611F8012B03F8012B002A7A
:100F0800F9D17047034613F8012B002AFBD1181AB0
:100F180001387047000000000022F0B585B0114686
:100F280040F6034002AF04F04DFE0446002840F0AE
:100F3800A48004F0B3FB214641F203003A1D04F0FB
:100F480041FE0446002840F098807A684D4DD168EB
:100F580005F17803D1F80100D1F8051003C3104654
:100F680003F0B0FC214641F201003A1D04F02AFECC
:100F78000446002840F081807868C3685A7885F86C
:100F880070205A88A5F872201A7985F87120B3F86C
:100F98000720A5F87420B3F80530A5F8763003F0DB
:100FA80091FC214641F202003A1D04F00BFE044672
:100FB800002862D1D7F804C005F18006DCF80C20BF
:100FC800531C4132344618685968083303C49342A5
:100FD8002646F7D1604603F075FC06F06BF8044628
:100FE80000284AD195F88A30990610D40221264A59
:100FF800264815F0F1F895F87C305A064AD40121B4
:10100800234A224815F0E8F86FF0120435E04FF053
:10101800FF304FF0FF3104F061FB0646002800F076
:10102800428207210C3014F021FF452303700A2364
:10103800C0F802408471447004712246C37031467E
:1010480040F6334004F0BEFD0446B0B94FF0FF301F
:101058004FF0FF3104F042FB0646002800F02382DF
:1010680001210C3014F011FF2246314640F6314080
:1010780004F0A8FD04460028BDD020460C37BD4624
:10108800F0BD00BF0000002026CE0100A4AF010083
:1010980054CE0100002142F203003A1D04F092FDF3
:1010A80004460028E9D17A68A94BD168D1F8010033
:1010B800D1F8051003C3104603F004FC214642F2A0
:1010C80002003A1D04F07EFD04460028D5D17E6852
:1010D800F468B4F801309AB292B1E27882B1A5F816
:1010E800FC30E378032B06D00322022100929948B2
:1010F800994A14F0DDFCE2789848114618F013FB81
:10110800304603F0DFFB1F2395F87C60A5F810310B
:1011180016F0200619D14FF0FF304FF0FF3104F0E0
:10112800DDFA0446002800F0BE8102210C3014F0DC
:101138009DFE0123214603704670324640F66D40FD
:1011480004F040FD0446002897D195F89C301B0711
:1011580012D5002142F21C003A1D04F033FD04466A
:1011680000288AD17868C368D3F80120D3F80530FD
:10117800C5E9382303F0A6FB95F8D8309E0623D599
:101188003846B91C04F0F2FD044600287FF475AF18
:101198004FF0FF304FF0FF3104F0A0FA0646002868
:1011A80000F0818104210C3014F060FE3B88224657
:1011B80003807B883146438042F2240004F002FD1C
:1011C800044600287FF459AF95F8D8305C0610D54E
:1011D800002142F22A003A1D04F0F4FC04460028DB
:1011E8007FF44BAF7868C3685B7885F8123103F0F9
:1011F80069FB4FF0FF304FF0FF3104F06FFA0646FD
:10120800002800F0508108210C3014F02FFE95F8CA
:10121800D84040F2022314F0400F08BF03230246CF
:10122800A0074CBF43F02C0343F00C03A10695F82C
:10123800D91048BF43F0400311F0090F18BF43F419
:10124800006304F0010443EA0410002114F0F3FFE2
:101258000022314642F2010004F0B4FC04460028A2
:101268007FF40BAF95F87C30B5F8FC1098065CD489
:10127800C9B941F205003A1D04F0A4FC044600284F
:101288007FF4FBAEB5F8FC307C684BB9E368B3F883
:101298000120A5F8FC209A883048114618F043FA36
:1012A800204603F00FFB4FF0FF304FF0FF3104F002
:1012B80015FA0446002800F0F68008210C3014F0D6
:1012C800D5FD95F8D8300246D90738D44FF00051EB
:1012D800234814F0B0FF2146002240F6014004F0F4
:1012E80071FC044600287FF4C8AE01463A1D4FF64B
:1012F800014004F067FC002838D01A4A022115483A
:1013080014F06AFFEB79002B40F0BD8005F000FC7B
:10131800044600287FF4B1AE07F082F9044600289D
:101328007FF4ABAE04F0C6FAA7E60029BBD10121D1
:101338000D4A084814F050FF6FF004049DE602A11E
:10134800D1E90001C5E700BF9088000200800020B5
:10135800D8000020A4AF010078CE010000010020D1
:1013680010880002E1CE0100BECE01007B686E4607
:10137800DC688AB0B4F80130042B96BF574A584944
:1013880052F8231002AAD3614FF40073554813840E
:10139800554BC2E9050142F8103F4FF41351534829
:1013A80014F029FFB4F80120B546022AB4F8033036
:1013B80049D1052B47D84E4A52F823106E468AB0B9
:1013C80002AAD3614FF400734A481384464BC2E91A
:1013D800050142F8103F4FF41351444814F00BFF35
:1013E800B546637994F806C0032B98BF424AB4F80F
:1013F8000760D4F809006C468CB094BF52F82310EB
:10140800374902AAC2E9073C4FF40073DFF8ECE061
:1014180093853B4BC2E905E1C2E909604FF473517A
:1014280042F8103F314814F0E6FEA546786803F00C
:1014380049FA00214FF602403A1D04F0C3FB044666
:1014480018B1304A5AE72649B8E77868C368B3F84C
:101458000130A5F8C13003F035FA95F8C1305A07C4
:101468007FF550AF21464FF603403A1D04F0AAFB22
:1014780008B1254A42E77868C3685B7885F8C030C8
:1014880003F020FA3EE72E78002E7FF43FAF95F860
:10149800C1309B061FD54FF0FF304FF0FF3104F0ED
:1014A8001DF9044610B96FF06804E6E506210C3012
:1014B80014F0DCFCD5F8013021460360134B3246AA
:1014C8009B8883804FF6064004F07CFB0446002886
:1014D8003FF41CAFD1E56FF08504CEE5C0B4010040
:1014E800B2CB010005CF010004000001A4AF010048
:1014F800A8B401001ECF010098B4010036CF010046
:101508000700000163CF01008CCF0100010000201B
:1015180070B503788AB004460E4607AD032B20D871
:10152800DFE803F002191B1D11492846FFF7E2FC0A
:10153800059563781E210493A37830460393E378D6
:101548000C4A02932379019363790093A37913F0EA
:1015580005F80AB070BD0849E7E70849E5E7084912
:10156800E3E70A212846074A12F0F8FFE0E700BF40
:1015780064BB010086BB01006BBB010072BB0100AC
:101588007CBB010060E10100B0B588B000AF0C463B
:1015980015F065F93946FFF7BBFF8AB06A460A4B72
:1015A8000794CDE905374FF40073ADF82030074BA9
:1015B80042F8103F00234FF41351054801F012FE82
:1015C8002037BD46B0BD00BFA9BB01000400000123
:1015D8002CB001000321024A024814F056BA00BF99
:1015E800BFBB01002CB00100002307B50222009305
:1015F80009490A4805F04CFB034638B10121084A5D
:10160800084803B05DF804EB14F048BA03B05DF87D
:1016180004EBFFF7DFBF00BF8CB1010078B1010018
:10162800D5BB01002CB001002DE9F041144688B06B
:1016380000AF0D4615F013F93946FFF769FFE84684
:10164800BCB98AB06A46144B0795CDE905374FF403
:101658000073ADF82030114B42F8103F4FF413518E
:1016680023460F4801F0BEFDC5462037BD46BDE8FC
:10167800F0818AB06A460B4BCDE90754CDE90537AE
:101688004FF40073ADF82430074B42F8103F0023A5
:101698004FF43351E5E700BFFCBB01000400000133
:1016A8002CB001001BBC01000500000190B589B0F9
:1016B80000AF15F0D4F83946FFF72AFF88B06A461C
:1016C800094BCDE905374FF40073ADF81C30074BD3
:1016D80042F8103F00234FF4E651054801F082FD1F
:1016E8002437BD4690BD00BF40BC01000300000187
:1016F8002CB0010010B50B4604468CB039B101215D
:101708001D4A1E480CB0BDE8104014F0C7B90321AB
:101718001B4A1A4814F0B9F9204614F0F1FF194B86
:1017280003A91860204606F041FE10F0FF0306D01A
:101738000121154A114814F0B1F90CB010BDBDF8DB
:10174800243003EB83029210009203210F4A0B48C6
:1017580014F0AEF9BDF8263003210D4A074814F0FD
:101768009DF9BDF828300A225A4303210092034804
:10177800084A14F09DF9E0E757BC01002CB00100BD
:1017880073BC0100881900207EBC0100A6BC0100C2
:10179800CDBC0100E5BC01000B4610B5064C07485E
:1017A8000321074A14F07AF9206818B106F0E0F826
:1017B8000023236010BD00BF881900202CB0010051
:1017C8000CBD010013B50CF023F9044618B103460B
:1017D8001E4A01211CE01E480CF04AF9044610B1CB
:1017E8001C4A0346F5E71C4806F0F6FE48B10321FB
:1017F8001A4A1B4814F049F94FF0FF34204602B04A
:1018080010BD04F009FC044630B103210346154A13
:10181800134814F043F9F1E70321134A104814F070
:1018280034F9124806F0B0FC23460094022210490D
:10183800104805F02DFA044610B10F4A0346C8E7D0
:101848000E490F4813F04BFBD8E700BF26BD010037
:10185800651A000041BD0100500100205FBD010074
:101868002CB001008CBD0100ACBD01006801002056
:101878008CB1010078B10100C3BD0100E9BD0100D0
:10188800F4BD01001FB503240294044C0194BDF873
:101898001840009415F058FE04B010BD852A0020A9
:1018A80010B586B0044618220021684619F05FF882
:1018B8000B4B694601930B4B204602930323ADF86B
:1018C8000C3009F007F8034638B10221064A0748E8
:1018D80006B0BDE8104014F0E1B806B010BD00BF76
:1018E8003CB20100852A002021BE01000CB0010095
:1018F80080B50D4A0D4B00AF88B0012908BF1346CB
:101908006A460B49CDE905134FF40073ADF81C3056
:10191800084B42F8103F00234FF4E651064801F007
:1019280061FCBD4680BD00BF3FBE010047BE01004F
:1019380050BE0100030000010CB0010013B5104CAB
:1019480010480EF079FE207820B902B0BDE81040AA
:1019580016F0D0BBA07808B916F0C9FBA378012B04
:1019680009D14FF4004200230648CDE900230EF0C8
:101978002BFE02B010BD022BFBD14FF48042F2E7E0
:10198800852A002070050020012B38B505461C4625
:101998000ED11378084A13700321084A084814F036
:1019A8007DF8FFF7CBFF284613F053F8204638BDE3
:1019B8006FF00C00FBE700BF852A002068BE01001D
:1019C8000CB00100012B38B505461C460ED1137822
:1019D800084A53700321084A084814F05FF8FFF7D3
:1019E800ADFF284613F035F8204638BD6FF00C00DF
:1019F800FBE700BF852A002078BE01000CB001007B
:101A0800012B38B505461C460ED11378084A937049
:101A18000321084A084814F041F8FFF78FFF2846C9
:101A280013F017F8204638BD6FF00C00FBE700BF35
:101A3800852A00208DBE01000CB0010010B5064CAF
:101A4800207828B1002016F055FB0023237010BD24
:101A580016F04DFB0123F9E7842A0020CA0708B5D0
:101A680014D5C30712D50A4A1378B3FA83F35B096E
:101A7800137008480321084A14F010F8FFF75EFFB6
:101A8800064B1868BDE8084012F0E3BF08BD00BF68
:101A9800852A00200CB001009CBE01008819002096
:101AA8002DE9F843884600AF00297DD0056801225A
:101AB800284613F01AF801460446284612F0CFFFCC
:101AC80010EA020616D1E94688B06A46384BCDE9D5
:101AD8000538032342F8103F4FF4C25133463548C6
:101AE80001F080FBCD4686F31188BFF36F8F042386
:101AF800184602DF2146284612F0C7FF261831464D
:101B08000022284612F0ABFF361AB44218D06E46AF
:101B180088B06946284BCDE90538032341F8103FC2
:101B2800244813460A464FF4C25101F05BFB0023D8
:101B3800B54683F31188BFF36F8F0423184602DF7D
:101B480000222146284612F0A6FF214612F09DFFEA
:101B5800261801223146284612F081FFC20708D410
:101B68003146284613F003F832462146284613F03A
:101B780075F800222146284612F071FF261A012224
:101B88003146284612F06BFFC30709D43146284670
:101B980012F0EDFF22463146284613F05FF834462E
:101BA8002146284613F078F8BD46BDE8F88300BF03
:101BB80016BF01005CB00100EDBE01002DE9F04F39
:101BC80091B0009302F004030293C2F3C2030133FD
:101BD800840705460E46DDF868A00392059340F099
:101BE8009C81041D002849D101F00706341DC6F167
:101BF8000806009B00274FF004085A1E4FF0FF33D9
:101C0800B9460193BB46434604970DB1009921603C
:101C18000598002800F3D6808F480099814203D3A5
:101C28008E488142C0F0CE800399601B11F0020CEF
:101C380040F0D680B9F10F0F00F2CF80002D00F0F0
:101C4800D68009F140010DEB010E0199C0F3870020
:101C58000EF8200C0EF8101CBCF1000F00F0C38029
:101C680060F07F000EF8200C013709F10109C5F179
:101C780008014FF6DA7E043406918CE00729B8D8BB
:101C88006FF01B0011B0BDE8F08F7A285BD84B28A5
:101C98000FD8472857D829282ED8252850D052D8C9
:101CA800202818BF23280CBF4FF0010B4FF0000B62
:101CB80071E04C382E2846D8DFE800F06D454545E0
:101CC80045454545454545454845454545454545B9
:101CD80045564548485656566D486A456D45184814
:101CE8001845457F7C48454548457C0000204FF015
:101CF800000B4FF0040835E001212A38C0B201FA80
:101D080000F010EA0E0F46D110F0625C2CD110EAF8
:101D1800010B40D06046013C4444B4FBF8F408FB96
:101D280004F425B1A3EB050CA444B445A8D80028B5
:101D380070D00599013905915AF8041B009164E7A0
:101D48000199013901914FF0000B24E012F8010CC0
:101D58006C2834D1002012F8023C83466C2BC8D181
:101D68004FF008084346D6E70AF1070A2AF0070A9F
:101D7800073424F00704FAE802BC35B10698204479
:101D8800B0423FF67DAFC4E900BC4FF0000B083409
:101D98004FF00808434612F8010F002853D0BBF152
:101DA800000F7FF472AF2528F5D14FF0010B019B8E
:101DB800013301934FF00408ECE7584697E70020F9
:101DC8008346A8E7039988077FF551AF4FF0010CC8
:101DD800601BB0F5007FFFF42DAF6FF0150051E7E1
:101DE8004FF0000CF5E70498013004903DE7BCF192
:101DF800000F01D0013638E70298023600287FF438
:101E080034AF0098CDE90632FFF77CF8DDE90632F9
:101E180006442AE7042B08D10AF1040015B1DAF8C0
:101E28000010216082460434B5E70AF1070323F065
:101E3800070303F1080A1DB1D3E90001C4E9000151
:101E480008230834A7E7631BB3F5806FC5D23DB9F3
:101E5800A6F10804E01815E7D4AA01005CEC01001B
:101E6800029A9B0828602B709DF81030AAB1EB707D
:101E7800AF702FB1002208A8C5F1010C91450ED111
:101E88004FF0000AC5F101030DF1200801930DF18F
:101E9800300BD14512D1601BF4E66B70E8E710F8FF
:101EA800013B190608D50CEB040EB64503F07F0379
:101EB8003FF6E6AE04F8013B0132DFE71FB198F9BF
:101EC8000020002A17DB029BD3B11AF80B2004F874
:101ED800012B0022019B18191044B0423FF6D0AEE6
:101EE80098F80000009904F8010B2046039218F0B6
:101EF80018FD039A14440AF1010A08F10108C8E719
:101F080098F8002055F822300093029B009845F875
:101F18002230FEF7F7FF421CDCE76FF00D00B1E658
:101F28002DE9F04F97B000AF05468A46C7E90A3257
:101F380049B903784678807800EB830028445645F1
:101F480024D8A0EB050AD7F8803095F8028003F072
:101F58000103D7F88040FB61EB78B8F1000F0CBFA4
:101F6800002404F001047B621BB1D7F880309A0783
:101F780015D4A4B9FB6A1BB151462846BA6A9847DA
:101F8800564630465C37BD46BDE8F08F441C2046B7
:101F9800FEF7B8FF013020440AF1010ACFE7D7F86D
:101FA8008030C3F3C0033B622B78BB619B003B616D
:101FB8006B687B61BB6905EB830BFB6A002B77D1F0
:101FC8005646D844BCB11C461BF8013B55F82300C3
:101FD800FEF798FFD7F88430013043B1D7F888303E
:101FE800A34282BFD7F8843023F814000134C345D4
:101FF8000644E9D1D846D7F880304FF0000913F0ED
:10200800050F0CBF4FF0020B4FF0010B7B6A99458F
:10201800B7D298F8013008F1020855F823A0AE4B62
:102028009A45C0F04C81AD4B3A6A9A452CBF0023C3
:1020380001230AB318F8021C7869FB6212F02EFF1C
:10204800FB6AC8B1EA468AB06A46A54B05937B6924
:10205800CDE906314FF40073ADF82030A14B42F8BA
:10206800103F00234FF412519F4801F0BBF8D546AA
:10207800023E09F10109C9E723B1FB6933B9A6EBAF
:102088000B06F6E7D7F880309B07F2D55046FEF7E7
:1020980039FFD7F884304BB1D7F888309C423FBF1E
:1020A800D7F88420431C22F8143001340644E0E7B2
:1020B800002C6AD1B8F1000F6DD0D7F880305807DE
:1020C8006CD5C14607F148004246594618F029FC2C
:1020D80000220BEB0803FB600233796A8A425FD364
:1020E800D7F8802095F801B0F969920704EB0B0343
:1020F80048BF0022DBB258BF4FEA5902002940F01E
:10210800A680D7F8801011F0040F14BF49460021AB
:102118006B70A970EA702846BA6A3969FB6A9847F1
:10212800061EFFF62EAFBB6949462B707B6ABA6A5A
:10213800EB7085F801B0FB6A85F8028007F148006A
:102148009847B0F10009C0F2B6803B697A6A786AAC
:1021580003EB4201FB68414403EB4000BA6AFB6AA7
:10216800AAEB010198470028C0F2A7804FF0000BA6
:10217800B14409EB000607F1380AA34569D30021E9
:10218800BA6A0846FB6A9847FBE644464FF00009DE
:1021980007F1380098E74446C14699E7A14697E712
:1021A80013F8016CDFF830C155F8260013F8021C4B
:1021B8006045C0F08A80DFF824C16045386A2CBFCA
:1021C8004FF0000B4FF0010B38B17869C7E90132C5
:1021D80012F064FED7E90132F0B9BBF1000F1ED04E
:1021E800F96949B1611C04F1280007F130040419A8
:1021F80004F8206CCCB20FE0D7F8801049070BD553
:1022080009F1280007F1300C09F1010100EB0C0974
:1022180009F8106C5FFA81F9013202335DE7D7F8EB
:1022280080008007DED409F1280C07F1300EF44451
:1022380009F101000CF8101C07F1580109F1020915
:1022480051FA80F05FFA89F900F8106CE4E7002190
:102258005EE71BF80A3055F8239087F83730D7F82F
:1022680084302BB3D7F888309B4521D2D7F88430F7
:1022780033F81B800121BA6AFB6A07F137009847D7
:1022880000281ADB0644B8F1000F06D14846FEF7CD
:1022980039FE00F101081FFA88F841464846BA6A33
:1022A800FB6A9847002808DB06440BF1010B64E73A
:1022B8004FF00008DEE74E4663E6064661E63B6AF5
:1022C800002B3FF4DFAE0023B4E6386A0028A6D01E
:1022D8004FF0000B79E700BFD4AA01005CEC0100C5
:1022E80043BF010004000001ECAF0100014B18607E
:1022F800704700BFCC01002080B505460E46174642
:1023080098460DF051FE034601F09AFF0446DFF8A7
:102318001890424649F8003039463046A84754F8E4
:10232800090001F025FF00BF080000002DE9F04773
:10233800058B0446280717460CD501290CBF45F024
:10234800100545F02005258387F31188BFF36F8FAB
:10235800BDE8F087022905F0070540F09480204683
:1023680013F043F8052864D801A353F820F000BF00
:10237800512300008F2400003B240000FD230000AF
:10238800172400002924000001F007035A1F012A1E
:102398001FD8002221F00701062BD4F8008089B24B
:1023A800C4E9002209D1434603E0628B013262830B
:1023B8001B68002BF9D141F002012046218313F05C
:1023C80014F84FF0000900286DD041F02001218356
:1023D80069E0042B0AD121F0070189B22046218344
:1023E80013F003F810B141F0200121834FF00008E9
:1023F800C14658E02369D3F80090238B23F00703E4
:1024080043F006034FF00008238346464BE0236958
:10241800D3F80490238B23F0070343F00403F1E778
:102428002369D3F80890238B23F0070343F00503AF
:10243800E8E74FF00008C146E7E7012243F0080348
:10244800238387F31188BFF36F8F002A3BD1B8F13C
:10245800000F4AD1B9F1000F02D020462C49C847D5
:10246800EFF31187202383F31288BFF36F8F238B39
:1024780023F008039BB22383D9063FD523F010022B
:10248800228303F007056669218B002EBFF67CAF17
:1024980000239946D4F8008021F00701C4E90033ED
:1024A80041F001012183238B03F0070AAA4502D0DA
:1024B800A268002AC1D1B8F1000F02D1B9F1000F0A
:1024C800DAD00022BAE7A1680029C0D00D68002937
:1024D800BDD03346524620464F68B8471DB12B68D9
:1024E80029461D46F3E72B46FAE74146334652464E
:1024F8002046D8F8008012F0A4FFA8E79A067FF5D6
:1025080023AF23F02002228303F0070527E700BF4B
:102518007754010010B530B90B480C4913F055F841
:102528006FF0150010BD836833B90748084913F0E8
:102538004CF86FF00400F5E71B6813B1BDE81040D4
:1025480018471846EEE700BF04B0010002C00100BA
:1025580013C0010010B530B90B480C4913F035F819
:102568006FF0150010BD836833B90748084913F0A8
:102578002CF86FF00400F5E75B6813B1BDE8104074
:1025880018471846EEE700BF04B0010002C001007A
:1025980013C0010070B508B101B132B90B480C493C
:1025A80013F013F86FF0150070BD84680CB125693D
:1025B80035B90648074913F008F86FF00400F3E747
:1025C80041F8040B2369BDE87040184704B00100C6
:1025D80031C0010013C0010010B5044630B91048DD
:1025E800104912F0F2FF6FF0150010BD006830B905
:1025F8000B480D4912F0E9FF6FF00100F5E7836819
:102608000BB15B6933B90648084912F0DEFF6FF079
:102618000400EAE7616898470028E6D12060E4E70B
:1026280004B001005DC001006EC0010013C00100CC
:1026380070B51346044630B91048114912F0C5FF69
:102648006FF0150070BD006830B90C480D4912F0E4
:10265800BCFF6FF00100F5E782680AB1956835B9EB
:102668000648094912F0B1FF6FF00400EAE70A468C
:10267800AC466168BDE87040604700BF04B0010027
:102688005DC001006EC0010013C00100034A136859
:102698000BB9526813600020704700BFD0010020BA
:1026A80030B50C460E4985B00291D0F8CC110546DC
:1026B800CDE9003100F1F0014FF0FF3320460CF076
:1026C80023F950B9012384F86C30D5F8C83123B107
:1026D800204605B0BDE83040184705B030BD00BF02
:1026E800E15601002DE9F04F01238146056946684E
:1026F80091B005F56777D7E8EF2F002A03D1C7E82F
:10270800E13F0029F7D10CBF1A46002240F0BE80F5
:10271800B368B16A05F5F4781C1F104613F02CF85D
:1027280084427CD8013A00F0AB80B2FA82F24FF0D2
:102738000044D44072682046073222F00302C5F8EC
:102748003422B16A13F018F8C5F83802B36A404663
:102758006343033323F0030302EB4302230103EB38
:102768004403093323F0030303EBC403C5F82C2205
:102778001A440832C5F828227368C5F83042C5F8EB
:102788002432444BC5E9AB63316800F039FA04469A
:10279800002842D1D9F810B0D9F804A0D9F80030EF
:1027A8000BF53274CDE9060005932046DAE90739BE
:1027B800012B08BFA9F1100917F084F8DAF82400F2
:1027C800354905AB009301EB80214B4620464FF479
:1027D80080620CF0E3FF2021DAF824302F4A0DEB59
:1027E800010011F0BBFE204608A90DF0E9F82C49BC
:1027F8000BF52E7017F01FF8DAE9050183685C689D
:102808004CB15B46274AA047044630B9DAE90501CE
:1028180083681B692BB96FF05704002129E0013246
:102828007BE70122984704460028F6D11E4B28462C
:10283800C5F8C8311D4BC5F8CC311D4B0393D5F8ED
:1028480038320293D5F83432CDE9008305F50F7399
:10285800B26AD5F8981300F09BF904460028DCD139
:1028680005F1F0000CF0F6F80028C5F8A0030ADB23
:102878000221384612F068FF204611B0BDE8F08FFB
:102888006FF00B04C9E76FF01504C6E76FF0770423
:10289800F2E700BF3B570100C02D002093C00100A4
:1028A8002157010015570100392900005758010028
:1028B800BD2800002DE9F04190460C4699B30B78ED
:1028C8008BB3D0F8BC50A5F5DE7614354FF0FF3247
:1028D8004FF0FF3328460CF09BFC2146304612F09F
:1028E800FDFE0746A0B93046104912F0F7FE06462D
:1028F80020B92846BDE8F04112F024BF1F22214626
:10290800483018F065F886F86770C6F86880F0E710
:10291800284612F017FF4346224639463046BDE89E
:10292800F041FFF7BDBEBDE8F08100BF1CE9010022
:1029380013B5044640B100230122CDE90032074B0C
:10294800D0E909120BF0B4FF236F1B6823B1606F45
:1029580002B0BDE81040184702B010BD1CE90100E4
:1029680013B504460846216901F56771D1E8AF1F20
:10297800022910D193B1A0B10121CDE9003113464C
:10298800D0E909120BF094FF074B984208BF6FF08B
:102998000B0002B010BD6FF00F00FAE76FF04C00AB
:1029A800F7E76FF00100F4E72EF8FFFF2DE9F84391
:1029B80089461546066906F56773D3E8AF3F022BCB
:1029C80066D11368EBB11B78DBB1D6F89873002F8A
:1029D8003FD106F5E8784FF0FF324FF0FF3340461D
:1029E8000CF016FC3046296812F078FE044660B9EF
:1029F8003046294912F072FE044638B9404612F0B2
:102A0800A1FE6FF01500BDE8F883012705F1080362
:102A18002367AB6964646367002384F86C3067B12B
:102A2800404612F08FFE21463046A36E2A68FFF713
:102A380037FE0020C9F80040E5E71F22296804F1A5
:102A4800480017F0C5FF404684F8677012F07AFE18
:102A5800EFE73046104912F041FE04460028D0D076
:102A6800002705F108030367AB6980F86C704367BA
:102A780040641F222968483017F0AAFF2246012126
:102A8800304684F8677000F065F80028D1D0B8E7C0
:102A98006FF00F00B7E700BF1CE9010010B50C4646
:102AA800006900F56773D3E8AF3F022B0FD189B1F6
:102AB8000A4900F52E7016F0EAFE204616F011FAC3
:102AC80078220021204617F052FF002010BD6FF039
:102AD8000F00FBE76FF00100F8E700BF8C1900203A
:102AE8002DE9F04F05460E4690460027D0F8BCA0C9
:102AF80085B0AAF5BA7421463046FEF7F1F9E0B977
:102B0800134BA4F1480B0293DAF810303246CDE9A2
:102B1800008329464FF0FF335846AAF5DE790BF0BB
:102B2800F3FE88B97823012203FB079383F86C200E
:102B3800DAF80C300BB1584698477B1C022B4FF043
:102B4800010704F17804D6D105B0BDE8F08F00BFC5
:102B5800855801001FB5144690B18AB1012912D1D8
:102B68000A4B00F1F0010293D0F8CC3148320193BE
:102B78004FF0FF33204600930BF0C6FE04B010BDA3
:102B88006FF01500FAE70020F8E700BF855801004C
:102B98002DE9F04387B00E46DDE90E811446DDE9E4
:102BA80010251F4630B329B3DFF850C000F1F009F3
:102BB800002D08BF65469EB9CDE9034400F5DE74D3
:102BC8002046059616F0FFFB03ABCDE900432A46E5
:102BD8003B46414648460BF0BBFF07B0BDE8F083D3
:102BE800002241460E9248462A4607B0BDE8F04307
:102BF8000CF002B96FF01500EFE700BFE92A0000FA
:102C0800F0B5044687B02B4A04AB0E4692E80300A1
:102C180083E80300002C49D018460BF04DFD05460B
:102C2800B0B94FF0FF33E16C04F15407A163CDE96B
:102C3800010000933846236D04F1380215F012FEA6
:102C4800A06C12F04AFEC4F8BC0020B96FF00B0566
:102C5800284607B0F0BDA06C12F03FFEC4F8C000D3
:102C68000028F3D0236CD4F8BC10C4F890300423A7
:102C7800C4F89430C4F8AC300223E3620E4BB4F8C5
:102C88004820C4F88C10616C236204F18C03C4F8EA
:102C9800A070A4F89820C4F8B870C4F8A810A4F8D4
:102CA800B020C4F8A400A6612363D1E76FF015052E
:102CB800CEE700BFD0B0010094B201002DE9F04783
:102CC800044607464FF00109DFF84C8094FAA4F552
:102CD800B5FA85F509FA05F32E0108EB05156FEA33
:102CE800030A24EA03042B7B63B158F806301B69F6
:102CF8006BB94644736804222846196807EA0A072C
:102D080012F053FE002CE1D13846BDE8F087284682
:102D180098470028F6D1ECE77CB0010010B50022F6
:102D280088B00E490E4816F0E1FF00220023002467
:102D3800CDE906230E234FF44072CDE90334CDE9E3
:102D48000144084B0849009408480CF0AFFE0849B4
:102D580006480CF035FE204608B010BD7D2D000059
:102D68006010002095300000C0310020A80B002022
:102D78009FC0010001480CF03FBB00BFB006002017
:102D88002DE9F047804621480F4612F0F2FD06462D
:102D9800002833D000252846BDE8F087237B83B17F
:102DA8002368DB680BB120469847636883F8069070
:102DB80023681B69D3B9636804222046196812F096
:102DC800F4FD013610345445E8D3B8F1000FE2D0D1
:102DD800002DDFD02846FFF771FF0546002FF7D0FA
:102DE80000214FF4A47016F08DFEF1E720469847B5
:102DF8000028E0D009FA06F31D43E2E705464FF044
:102E08000109034CDFF80CA0DDE700BFBC19002066
:102E18007CB001008CB00100014B53F820007047D2
:102E2800D4B2010008B5034608462BB1044A136022
:102E380000F038FC002008BD6FF01500FBE700BF6C
:102E4800FC01002010B5044C237813B903480CF09A
:102E5800D3FA0123237010BD882A0020B006002071
:102E680010B50446094812F084FD3CB1084BD3E87C
:102E7800EF1F0139C3E8E21F002AF8D105480DF019
:102E8800DBFBBDE8104004480CF0B6BAB4190020CA
:102E9800B819002060100020B00600200022044B62
:102EA800D3E8EF0FC3E8E12F0029F9D1704700BF3D
:102EB800B419002070B5FFF7F1FF0546074C084E1E
:102EC800B44200D370BD63685B792BB123685B683B
:102ED80013B12946204698471034F1E77CB0010029
:102EE8008CB0010010B5044C0449204612F012F9C8
:102EF800034B1C6010BD00BF30050020C0B20100AC
:102F0800AC19002000230D4A10B513700C4A4FF479
:102F1800004113600B4A0C481360FFF783FFFFF76B
:102F2800E1FF0A4B0A4918468B4200D310BD1A1A12
:102F38005C681211013222711033F5E7892A0020EA
:102F4800B4190020B8190020775901007CB001009D
:102F58008CB00100014600220023014812F0FBB8A2
:102F680030050020014812F092B900BF300500205A
:102F7800024B0146186812F0E5B900BFAC190020F1
:102F8800014812F01ABA00BF3005002070B5284B6E
:102F98001B78002B4AD0FFF7E5FF0446002842D1F2
:102FA800244B254D1B68002B19DD16F057FE4FF4F6
:102FB8007A76A0FB063206FB0121D5E90020DB0B5F
:102FC80043EA41439B1A40F2E9324FEAD13161EBBF
:102FD8000001934271F1000101D3FFF76BFFD5E9BE
:102FE800003213F57A7342F10002C5E90032ECB100
:102FF800BDE87040FFF7C4BF6B685B7923B12B68ED
:10300800214628461B6898471035B542F4D3204618
:10301800FFF7AEFF094BD3E8EF1F0139C3E8E21F02
:10302800002ABDD0F7E7064D064EEEE7002070BD3A
:10303800882A0020B419002058100020B819002050
:103048007CB001008CB0010070B50D4D297861B9D4
:103058000120FFF795FE0B4C0B4EB44206D3FFF749
:1030680095FF0028FBD101232B7070BD63685B7945
:103078001BB1236820469B6898471034EDE700BFD2
:10308800892A00207CB001008CB0010000212DE9C4
:10309800F8430846FFF774FE044648B340F26768F1
:1030A8004FF0000901F0CCF81A4B1B4A1B5813606B
:1030B80033B11A4B1B68092B02DD19480CF09CF937
:1030C8000025184F44B12046FFF7F8FD044618B90B
:1030D8004FF0FF384FF0FF39FFF758FF064628B981
:1030E800B5B90F4842464B460CF0BAF93546E9E700
:1030F8004FF0FF384FF0FF39D4E72B689B691BB1BD
:1031080000222846114698471035BD42F5D3E8E716
:10311800054DFAE708000000B0190020B819002092
:10312800B00600208CB001007CB0010013B518482F
:1031380012F01FFC174B1B7873B1EFF31184202397
:1031480083F31288BFF36F8FFFF720FF84F3118892
:10315800BFF36F8F02B010BD0F4B1B68002BF9D067
:1031680050B9002200230D48CDE900234FF4004256
:1031780000230DF029FAEDE70928EBD107480DF0F7
:103188005BFA074802B0BDE810400CF035B900BF43
:10319800B8190020892A0020B019002060100020EA
:1031A800B006002010B5064B04461B689847214618
:1031B800A060044812F04CF8BDE81040FFF7B6BF15
:1031C800FC01002030050020044A054B9B1AB1EB96
:1031D800D30F34BF52F831000020704764AF0100AC
:1031E8007CB001002DE9F04F8FB0C1F34A2604AF3F
:1031F8000D469046B8607B600C0D002E61D04FF0F4
:1032080000090A234FF0040B07F1140AFE60C7E90E
:103218000799C7F824900093CDF808B0CDF804A01A
:1032280007F11C034A464046F968FEF779FEB0F5F7
:10323800006F03461CD36C468AB0D8F8041004AB60
:1032480024481A46C3E9050140F2FF71D9614FF4D9
:1032580000711984204B42F8103F4FF412514B462D
:103268001E48FFF7BFFFA5462C37BD46BDE8F08FC7
:10327800C0F30A0604F11700184420F0070080087C
:103288003B60FFF767FE66F35325044680B13B6851
:1032980000F11001C7E908390A23F961CDE901AB4A
:1032A800009340460E4AF96807F11C03FEF738FE02
:1032B80066F353252A4620467B68B96812F095FBC9
:1032C800D2E704F1170020F007008008FFF742FE5C
:1032D8000446EDE7B4C001000400000114B0010089
:1032E800C55901002DE9F04F87B00546DDE9106B9F
:1032F800DDE9127A884614469946BFB110213B464B
:103308005A460020CDF800A0CDF814A0FEF756FCD0
:10331800B0F5006F01460BD340F2FF730221184A43
:10332800184807B0BDE8F04F12F0B8BB3946384628
:1033380004F0070305F00704E40044EA831444EAB0
:10334800402444EA065406F11700084420F0070018
:1033580080080391FFF7FEFD054640B13FB13B46AB
:103368005A460399CDF800A01030FEF727FC4B46CB
:1033780022464146284607B0BDE8F04F12F035BB5B
:10338800F3C0010014B00100406820B1034BC01A1B
:1033980040F3CF0070474FF0FF30704764AF010033
:1033A8000EB403B503AB53F8042B0146044801934C
:1033B80001F07AF902B05DF804EB03B0704700BF82
:1033C800075B0100CA0605D48B064CBF02490349B6
:1033D800FFF7E6BF704700BF1BE901001AE90100CB
:1033E8002DE9F04F89B098469DF85090159B0446FA
:1033F80006930D46DDE916A3189F05920493B9F1CB
:10340800000F00F0B08007F48073079312F0CBFA36
:1034180007F0020B0246002874D020467749FFF7D0
:10342800BFFF0646BBF1000F08D017F0440F6BD161
:103438002A4620467249FFF7B3FF064407F0010306
:1034480053B1704B204653F829206F4B6F49002A1F
:1034580008BF1A46FFF7A4FF07F48073002B07F094
:10346800080318BF4FF00008002B79D0684B20469E
:1034780053F829206749FFF793FF0546059B2BB1B1
:103488001A4620466449FFF78BFF0544B8F1000F40
:1034980005D0424620466149FFF782FF054460484F
:1034A8003544069B1BB122465E4911F0C6FC049BBD
:1034B800002B00F08E80DDF810803946B8F1100F2F
:1034C800204628BF4FF010080026FFF77BFFB542C3
:1034D80050DC0026334620461AF803205249FFF7ED
:1034E8005FFF0136102E4BD0710703D120464F499C
:1034F800FFF756FF46453346EDD320464C49FFF7C4
:103508004FFFEEE706468DE74A4B1868002894D02F
:10351800494B4FF47A7B1B684FF03C0CB5FBF3F535
:10352800B5FBF0F14FF4616300FB11550BFB05F59A
:10353800B1FBF3F2B5FBF0FE03FB121100FB1E55C5
:10354800B1FBFCF30BFB05F5B5FBF0F50CFB131118
:1035580020460091CDE901E53849FFF721FF6CE7E6
:1035680007F008058AE7B8F1010F4D460CBF2C4853
:10357800334896E720462D49FFF712FF0136A6E7A4
:10358800002620462F49FFF70BFF33461AF8032081
:103598002046A2F120035F2B28BF2E222A49FFF7DD
:1035A800FFFE0136102E0DD0720703D120461F49A9
:1035B800FFF7F6FEB0453346E8D820461B49FFF72B
:1035C800EFFEEEE7049BC244B3EB080304937FF4D9
:1035D80072AFB9F1000F0AD0FB0704D520460A4A9A
:1035E8000A49FFF7DDFE39462046FFF7EBFE204685
:1035F80009B0BDE8F04F12F075BA00BF30C1010044
:1036080034C10100E4B201002BC10100F1CB01007B
:10361800F8B2010059C101005FC1010063C1010096
:10362800075B0100B146000068C10100E6E801003F
:10363800E4E80100C4190020C01900203DC10100C0
:10364800355B01006EC1010070C1010042F20F73C9
:1036580073B58B4228BF0B460568044605216846AA
:103668000D4A10F07BFF0646636828460B225B680C
:103678000A4912F029FA63683246694628465B68A7
:1036880012F022FA63681B2228465B68044912F08C
:103698001BFA02B070BD00BFCAC70100EAEA010008
:1036A800CEEA010000210123064A904206D8064AC4
:1036B80001B901231360054B1860704701214008C8
:1036C8005B00F2E740420F00C0190020C419002037
:1036D800F8B50D460446064F4618B44201D12846AF
:1036E800F8BD14F8011BBB6801485B689847F4E70C
:1036F80028AC0100014B03600020704740B3010073
:1037080010B54FF42814DFF820C086B0CDE904C402
:103718000824029404AC0194BDF82040009413F0EE
:1037280013FF06B010BD00BF1800280008B50448F4
:1037380011F0D5FB034811F0D2FB002008BD00BFF3
:10374800ADC10100E2C1010001480EF0A1BF00BFF8
:10375800CCB3010038B5044618B90F4B0F485B6865
:1037680098476168B1F5683F10D0B1F5680F0DD082
:103778000B4DA9420AD011F46861206807D00146B0
:10378800084815F0DCFE00232360656038BD14226C
:1037980017F0EDF8F9E700BF880400200FC2010018
:1037A8002C5F5CA9EC1E002008B560B34368B3F534
:1037B800683F0ED0B3F5680F18D0144A934220D052
:1037C80000684FF0FF324FF0FF330BF021FD58B186
:1037D80015E001220368D3E8EF1F002903D1C3E8ED
:1037E800E02F0028F7D10AD1002008BD0368084A55
:1037F8001B7803F5807352F82330002BF4D005486A
:10380800F3E70548F1E76FF4E040EEE72C5F5CA9C9
:1038180000000350E98FFFFFEA8FFFFF08B520B3D0
:103828004368B3F5683F09D0B3F5680F13D0114A60
:1038380093421DD000680BF05DFD14E00022036880
:10384800D3E8EF1F012903D1C3E8E02F0028F7D1FF
:1038580009D0094808BD00210368084A1B7803F508
:10386800807342F823100020F4E76FF4E040F1E79A
:103878000348EFE72C5F5CA9E98FFFFF00000350C6
:10388800EA8FFFFF10B5044618B91D4B1D485B6849
:1038980098476368B3F5683F2FD0B3F5680F2CD00D
:1038A800194A934219D1236803BB4FF0FF324FF0F6
:1038B800FF33214615480BF07DFC08B923681BB976
:1038C8000F4B13485B68984714220021206817F0B3
:1038D8004EF84FF46863636008E0B3F5680F0DD8DD
:1038E8003A2B03D040F6BA629342DED1206815F035
:1038F80071FE636843F03A03636010BD054AF3E75D
:10390800880400200FC201002C5F5CA9EC1E002077
:1039180035C201003A00003A08B50649402314228E
:10392800054815F0FFFDBDE80840044904480FF0BC
:103938003FB900BFEC190020EC1E0020D4B30100F1
:10394800E8B3010008B50348034A0021121A12F02F
:103958009FF908BD00080020BC2D0020074808B5C5
:10396800074A0849121A12F095F9BDE808400648B6
:10397800064A0749121A12F08DB900BF000000204C
:10398800000800205CEC010000000020000000207E
:103998005CEC01002DE9F04706460C4600AF002913
:1039A80036D0D1E90012E9468AB06D46A3684FF0D7
:1039B800050AE8461F48CDE90723CDE9050148F87F
:1039C80010AF002342464FF421511B48FFF70AFC71
:1039D800D4E90312CD466369AD461848C5E9072303
:1039E800C5E90501C5F810A0002342464FF421514E
:1039F8001148FFF7F7FBCD46E3690121104A0E484D
:103A080012F04CF8A36901210E4A0B4812F046F84F
:103A1800012E07D1EFF305830B4A31460648103BC8
:103A280012F03CF8214630460BF00CFABD46BDE8D2
:103A3800F08700BF62C2010054B0010091C20100CA
:103A4800C0C20100CFC20100FDC2010030BFFFF7B4
:103A5800FDBF00BF2DE9F04105460B4EDFF82C8075
:103A6800324606EB0807CC1B2046094916F059FFD9
:103A7800A01942460021083C16F079FFC5F8A44079
:103A880007F10800BDE8F081000000000400000014
:103A9800D0B0010010B5244C2449254812F007F98C
:103AA800A36A99013ED52248224912F000F91E2046
:103AB800A36ADA0104D51E481F4912F0F8F81F203E
:103AC800194CA36ADB0204D519481C4912F0EFF817
:103AD8000220A36A1C0304D51548194912F0E7F817
:103AE8002120114CA36A590304D51148154912F035
:103AF800DEF82220A36A9A0304D50D48124912F071
:103B0800D6F82320084CA36ADB0304D508480F49DC
:103B180012F0CDF82420A36A6FEA03436FEA134337
:103B2800A36210BD1D20C3E700ED00E010C3010033
:103B380054B0010028C301003BC3010055C3010074
:103B48007FC301009DC30100C2C30100DCC30100A3
:103B580070B506460D46294C29492A4812F0A7F89F
:103B6800A36ADB0647D52748274912F0A0F8112099
:103B7800A36A1C0704D52348244912F098F8122098
:103B88001E4CA36A990712D521491E4812F08FF8D6
:103B9800636BA26A120609D501211E4A194811F061
:103BA8007DFF1EB1A36A23F08003A3621320134C88
:103BB800A36ADE0704D51348174912F078F81420D1
:103BC800A36A9C0604D50F48144912F070F8152012
:103BD8000A4B9A6AD10658BF9A6A9A6A920642BFF5
:103BE8005A6A22F400525A629A6A42F0FF029A62B2
:103BF80000232B7070BD1020BAE700BF00ED00E075
:103C080007C4010054B001001DC4010050C40100E4
:103C180063C401007BC4010091C40100B0C4010069
:103C280070B506460D46284C2849294812F03FF839
:103C3800A36AD9043CD52648264912F038F817203B
:103C4800A36A1A0504D52248234912F030F818202F
:103C58001D4CA36A9B0512D51D48204912F027F870
:103C6800A36BA26A100409D501211D4A184811F056
:103C780015FF1EB1A36A23F40043A3621920124C56
:103C8800A36A590504D51248164912F010F81A20EB
:103C9800A36ADA050ED50E48134912F008F81B205E
:103CA800094A936A43F47F43936200232B7070BDE3
:103CB8001620C5E7A36A9B04F2D505480B4911F005
:103CC800F6FF1C20ECE700BF00ED00E0DFC40100B8
:103CD80054B00100F5C4010050C4010006C501003C
:103CE8001FC5010034C501004FC50100B0C4010063
:103CF8002DE9F0418AB0674B0446D3F804800025CB
:103D080000AFC8F3080685F31188BFF36F8F02F080
:103D18007F43B3F17F4F07D102F00C03082B12D178
:103D28005D495E4811F0C3FF00252C460023FB7156
:103D3800F31E092B00F28E80DFE803F00A848780E7
:103D48008C8C8C8C8C8A10074CBF0C460125EDE7B7
:103D58005349524811F0ABFF00234E4EFB71F36AF2
:103D68009A0705D54F494D4811F0A1FF00232DE0D2
:103D7800F36A002B01DA4C49F5E7F36A5B00F5D5E5
:103D88004A49464811F093FF7369A26943F4807366
:103D98007361BFF34F8FBFF36F8F32F8023C7269C4
:103DA80022F480727261BFF34F8FBFF36F8F03F4F9
:103DB8007F42B2F55F4F2BD1DBB2022B28D12368AB
:103DC80001213B4A354811F069FE2368FA79DAB9CE
:103DD80007F1080604F1200C3246206861680834AF
:103DE80003C264451646F7D17A6A002D4FD0C2F354
:103DF800080121B96FEA52226FEA42227A62184614
:103E080007F10801FFF7C6FD2837BD46BDE8F08178
:103E1800204B9A6AD2B222B10120F91DFFF798FE11
:103E28000EE09A6A12F47F4F04D00120F91DFFF7C3
:103E3800F7FE05E09B6AB3F5803F97D3FFF72AFEAC
:103E48000346C3E70020F91DE8E70020F91DEEE767
:103E5800184988E7184A18F4F87FE8468AB0174BDB
:103E680008BF13466A461649103ECDE905134FF4BC
:103E78000073ADF82030134B079642F8103F00232B
:103E88004FF411510548FFF7ADF9C5466EE76FF3DA
:103E98000802B3E700ED00E095C5010054B0010049
:103EA800C0C50100D7C50100F8C5010006C601005C
:103EB80025C6010041C6010067C501007CC5010097
:103EC80065C6010004000001064B5A6942F0100261
:103ED8005A615A6942F480625A615A6922F00802AA
:103EE8005A61704700ED00E0EFF30880EFF30981B5
:103EF80001B57246FFF7FCFE01BD00BF002080F34C
:103F08001488BFF36F8F002080F30A8880F30B8832
:103F1800104880F3088800200F49087009F088FECF
:103F280000200E490860BFF34F8F00F02DF82020C5
:103F380080F311880A484FF40061401880F309881B
:103F4800EFF314800221084380F31488BFF36F8FC6
:103F580000F0A6F808550020B82D002094ED00E0E8
:103F6800C8430020002318460649D1F89020C2F320
:103F78000722934200DB7047C1F89830C1F8A000CF
:103F88000133F6E700ED00E010B572B6002484F3C3
:103F98001388FFF7E7FF23464FF0FF300C4A03F181
:103FA80020010133102B42F82100F8D100234FF0F3
:103FB800FF30074A03F160010133102B42F821005A
:103FC800F8D162B6BFF34F8FBFF36F8F10BD00BF3C
:103FD80000E100E01EF0040F0CBFEFF30880EFF3E0
:103FE8000980816911F8021C0229FFD001B57246C7
:103FF80011F052FE01BD00BF40B2002807DB0123CB
:104008004109034A00F01F00834042F821307047FD
:1040180000E100E040B200280CDB01220649430918
:1040280000F01F008240203341F82320BFF34F8F58
:10403800BFF36F8F704700BF00E100E0054B4209F6
:1040480053F82220012300F01F0003FA00F010406B
:10405800704700BF00E100E040B2002801F1010113
:10406800ACBF00F16040064B4FEA4111C9B2ABBF8B
:1040780000F5614000F00F0080F8001319547047F4
:1040880014ED00E0044B054A23F07F039360BFF36F
:104098004F8FBFF36F8F70470000000000ED00E006
:1040A80008B5FFF7EFFF074AD2F8883023F470030A
:1040B800C2F88830FFF746FCFFF750FC00F0A2F882
:1040C8000AF0E8FF00ED00E042F8203C009B0B49B5
:1040D80042F81C3C019B21F0010142F8183C029B6C
:1040E80042F8081C42F8143C4FF0807342F8043C34
:1040F8000023203A0265C0F8A83070470123000069
:1041080000B50E4B15469860D0F8A4200C4B0E460F
:104118001A60D0F8943083F30B882C4686F309880C
:104128000020044B98472046002100220023024C1F
:1041380020470000D75C010001230000E023002095
:10414800081F00201022014B1A61704700ED00E0A3
:10415800054B5A699B689A421FBF044A536843F04B
:1041680080535360704700BFE023002000ED00E05B
:10417800084B9B6883420BD1EFF3058343B1064B91
:104188005A6842F080525A605A6A22F400425A62CF
:104198000BF010BFE023002000ED00E016498A680C
:1041A8004FF030001044EFF3098C80E8F01F202016
:1041B80080F31288BFF36F8F104F4FF000664A6983
:1041C8008A603E60D2F8A4000D4C2060D2F8A800A6
:1041D8000023C2F8A83080F3118802F1300090E87B
:1041E800F01F8CF3098802F1000004B511F067FD97
:1041F800BDE8044070470000E023002004ED00E023
:10420800081F0020002320210348C2180133452B32
:1042180082F80013F9D1704700E100E008B5EFF328
:104228000583064A103B02EBC30152F83300496884
:104238008847BDE80840FFF78BBF00BF98AC010076
:104248000148006870470000081F00201FB50121C1
:10425800094B0A4A0A4800F00FF90023064A03935B
:10426800084B0121019301A8D31A029300F00EF91B
:1042780005B05DF804FB00BF000007200000002027
:10428800F8B30100000800200A7A0B6810B562F341
:1042980004031C46CB68520923F01F0343EA420378
:1042A800044A43F00103C2F89800C2F89C40C2F8DF
:1042B800A03010BD00ED00E010B50A4BD3F89030E7
:1042C800C3F30723013B984208D901210346064A54
:1042D800064811F0E3FB6FF0150010BDFFF7D4FF9F
:1042E800FBE700BF00ED00E07CC601003CB0010028
:1042F8002DE9F04F8946144606464FF000084F4D09
:1043080085B0C84527DAD6F804A0BAF1000F44D022
:10431800BAF11F0F17D91AF01F0F14D1D6F800B031
:104328001BF01F0F0FD1584611F00DFD07460AEB81
:104338000B00013811F007FD874210D06FF0150708
:104348003F4A3B4601E043463E4A01213E4811F0C0
:10435800A5FB6FF01504204605B0BDE8F08F17F1F6
:10436800160FEDD0BC42EBDDC5F89870D5F89C105F
:10437800C5F89870D5F8A03021F01F0143F01F0B45
:10438800D6E900321A44994202F1FF3A1AD1D345CC
:1043980007D13146F8B211F0DFFC08F101080C36FC
:1043A800AFE73146C5F89870D5F89C30E0B263F3B2
:1043B8000402C5F89C2011F0CFFC10F1160FC8D0EC
:1043C800441CEAE7C5F89870D5F8A020013B23F013
:1043D8001F0302F01F021343D3453146E0B2C5F86C
:1043E800A030E8D011F0B8FC10F1160FB1D0C5F824
:1043F8009870D5F89C209DF808300BF1FF3B62F3CC
:1044080004038DF80830D5F8A0309DF808205B0823
:1044180063F347128DF80820D6E90032134400935D
:1044280023F01F035B44A3EB0A03013023F01F03AF
:104438006946C0B20393FFF73FFFBEE700ED00E017
:10444800C8C60100A2C601003CB001000522044B09
:10445800C3F89420BFF34F8FBFF36F8F704700BF2F
:1044680000ED00E0BFF35F8F0022024BC3F89420F9
:10447800704700BF00ED00E010B5034C2278FFF74D
:1044880037FF207010BD00BF8B2A00202DE9F74FA1
:10449800294D8A4606464FF00008AB46274FD045BF
:1044A8001BDAD6F80490B9F1000F3FD031680846FE
:1044B800019111F048FC0199044609EB010001380B
:1044C80011F041FC84424FF014021D4B08D002FB4E
:1044D80008F36FF015024BF8032003B0BDE8F08F26
:1044E80014F1160F2C60F8D01978A142F5DD02FB03
:1044F80008B0C7F89840C7F89840D7F89C4000F132
:104508000801007B64F304000871D7F8A0000C7957
:10451800400860F347140C71D7F89C1021F01F0174
:104528006960D7F8A01021F01F01296108F101087E
:1045380014350C36B3E700BF0C1F002000ED00E077
:104548008B2A0020F0B55349534DD1F890302C6890
:10455800C3F307239C4287B000F299800020FFF73D
:1045680081FF4E4BC1F8C030844216D14C4D01A892
:104578002C70FFF7BFF8002607464A4CB74213D104
:1045880000202B784349D1F89020C2F307229342A8
:1045980077DBFFF75BFF002046E0696801EB00115D
:1045A800FFF772FE0130DFE70199300101EB0613D6
:1045B800DA682240B2F1807F52D00AD8B2F5001FE3
:1045C80034D0B2F5800F3ED0B2F5801F12D001363C
:1045D800D4E7B2F1006F43D0B2F1805FF7D15A68E7
:1045E8009B680958013B22F01F00034423F01F0376
:1045F800012032E05A689B680958013B22F01F00ED
:1046080003440120844623F01F0340EA4C10CDE9FF
:1046180002218DF8100002A928780593FFF74CFEB7
:1046280000282ADA6FF0150007B0F0BD5A689B68B9
:104638000958013B22F01F0003444FF0020C0120EF
:1046480023F01F03E1E75A689B680958013B22F0F1
:104658001F000344062023F01F034FF0000CD4E78B
:104668005A689B680958013B22F01F0003444FF029
:10467800030C012023F01F03C7E72B7801332B70AD
:10468800A5E7C1F89830C1F8A00001337BE74FF0E7
:10469800FF30C9E700ED00E004B40100AAFF4400C0
:1046A8008B2A00200000F0FFF0B587B007460E46C1
:1046B80014460021102268461D4616F058F90223B8
:1046C8008DF80230054B2A4621466846CDE9047626
:1046D80001930FF06DFF07B0F0BD00BF935D0100BF
:1046E80008B502480FF01AFFFEE700BFFAC601003E
:1046F80008B5024B1B689847002008BD201F002002
:10470800034B044A1860937843F002039370704790
:10471800201F00206002002008B50649064821F045
:104728000701C1F1005202F5E02210F034FB00202D
:1047380008BD00BF877B0020241F002070B5416999
:104748000446867A0A4D59B1437ADB0706D42423F6
:1047580003FB0653DB691B689B689847002363616A
:104768002420214600FB0650BDE8704014F0CDBF60
:10477800E00600202422024B02FB0030704700BFF5
:10478800E00600202421827A054B01FB02331A6AD5
:104798001B7D801A1B3323F00303B0FBF3F0704733
:1047A800E006002038B52424827A064B04FB023345
:1047B800DB69D3E901240C601568FFF7E3FF04FB0C
:1047C800005038BDE00600202DE9F04385B00546CD
:1047D800684690461C46039115F042FADDE90067E9
:1047E800EFF31189202383F31288BFF36F8F6B8A4D
:1047F800002B41D02A8A9A4225D900220023284634
:104808000AF0C8FD0446F0B189F31188BFF36F8F31
:10481800039B002B41D032463B46684615F045FACB
:104828002421A27A254B204601FB0233DB6903A928
:104838001B681D68DDE90023A847606170BB20463E
:10484800FFF77CFF24E0698A4B1E6B8289F311888D
:10485800BFF36F8F2B7D2A8A2C6A1B3323F0030347
:10486800521A02FB0344154B154AEB1A9B1053438B
:10487800A3722B7DE372CBE789F31188BFF36F8FA7
:104888002346424628460AF085FD04460028BFD143
:104898000024204605B0BDE8F083636101230025AC
:1048A8002381039B29466382E27A656004F118003C
:1048B80016F05DF863692582E360EAE7E006002008
:1048C800398EE33870B524250C4C00B970BD037AD5
:1048D8004668002BFAD0013BDBB20372002BF5D1FE
:1048E800C3604360837A05FB03439B6913B1984710
:1048F8003046EAE7FFF722FFFAE700BFE0060020AC
:10490800052370B5144D154E2C780134B4FBF3F320
:1049180003EB8303E41A13F0BDFB114A137823B1A8
:1049280056F82430C01A072814D94FF05023D3F86A
:10493800141141B10021C3F81411D3F814312C70AB
:104948000CB9012313702C7813F0A4FB46F824004B
:10495800012070BD0020FCE78D2A0020301F0020B8
:104968008C2A0020054B03EB8000D0F8003223F09E
:10497800E04343F04053C0F80032704700258450AC
:10498800012208B50B4B0C49C3F80025022300206F
:10499800C1F8D036FFF7E6FF1046FFF7E3FFC1F88E
:1049A8000427C1F80429C1F8002BBDE8084000F02D
:1049B80065B800BF001000500040005007B5002245
:1049C8000D4B0E49C3F8A821C3F8AC204FF4806200
:1049D800C3F8B8254FF400620948C3F83C250DF127
:1049E800070213F0E5FB002803DB9DF8070009F038
:1049F8000BFA03B05DF804FB00A002502CA0025093
:104A080028A1025048B1054B054A1B68B3FBF2F3D5
:104A18005843044B43F00103184770473C040020F7
:104A280040420F0070B1010070B50025104E1149C9
:104A3800114C000716F8013B03F01F025B090FD069
:104A4800012B0FD1234603EB8203D3F80022013553
:104A580022F0E0420243042DC3F80022EAD170BDDF
:104A68000B46F0E70023803253F82230FFDE00BF08
:104A7800F6EA0100002584500028845001490248C4
:104A880010F002BD3CB40100441F00201FB578B1EE
:104A9800002301930393012369460848029310F009
:104AA80006FD029B9B0700D1039B05B05DF804FB44
:104AB800024805B05DF804EB10F044BD441F002027
:104AC80008B54FF0FF33044A13603F231046536084
:104AD80009F086F9002008BD601F002070B50B782A
:104AE80092B006460C4607AD032B31D8DFE803F039
:104AF800022A2C2E19492846FCF7FCF905956378FB
:104B0800174A0493A3781E210393E3780AA8029313
:104B1800237910AD019363790093A3790FF01EFDFB
:104B280032460AAB1C4603CCAC42106051602346A7
:104B380002F10802F6D1206810603046A3889380FD
:104B480012B070BD0749D6E70749D4E70749D2E74D
:104B58000A212846064A0FF001FDCFE764BB010091
:104B680086BB01006BBB010072BB01007CBB01006E
:104B780060E101000E4B402928BF402170B51D4659
:104B88000C4C4618B04203F1020304D1002305F887
:104B98001130074870BD02781209A25C03F8022C94
:104BA80010F8012B02F00F02A25C03F8012CE9E7D0
:104BB8008E2A002014EB010010B50024094B86B0A2
:104BC80009480393CDE9044414F07CFE03AB009339
:104BD8004FF4E1620A23054903480AF0DFFD204645
:104BE80006B010BD21C7010098100020C034002075
:104BF800014601480AF048BE9810002001460148C5
:104C080014F035BE9810002030B50378012B11D070
:104C1800022B21D06BB90A46144B03F1100453F848
:104C2800045BA34242F8045BF9D143881A0A8A70EC
:104C3800CB7030BD0A460D4B03F1100453F8045BEA
:104C4800A34242F8045BF9D143681A0C180E4A7063
:104C58000870C3F30722EAE700F11003013913F8DB
:104C68000129984201F8012FF9D1E2E725EB01006B
:104C780038B5054614F083FE044608B90BF0D0F8A1
:104C8800054BD3E8AF3F0BB1284698471CB9BDE8A0
:104C980038400BF0D9B838BD681F0020022838B555
:104CA80004460CBF0848094811F080F8054648B189
:104CB800013CE4B21F2C96BF054B0021195D0C3056
:104CC80011F0E3F8284638BD70070020E006002000
:104CD80035EB01000F2810B50CD80D280CD90A485F
:104CE80011F064F8044618B104210C3011F0CDF825
:104CF800204610BD1328F2D009B10448F0E702207D
:104D0800BDE81040FFF7CABFDC0700204C070020B1
:104D1800C3681B780221024A024811F05FBA00BF3B
:104D280039C70100A4AF010038B5C5682B7893B91D
:104D3800B5F801400F21204602F04AFFEB780546FE
:104D480050B90A4A118831B96FEA04506FEA105015
:104D58001080074A137038BD0373012102F054FE16
:104D68002846BDE8384002F003BE00BF642A002090
:104D78000F2B002070B5C3681D78BDB9B3F801606A
:104D88000F21304602F024FF044638B9012133468A
:104D9800BDE87040064A074811F020BA294602F0DB
:104DA80033FE2046BDE8704002F0E2BD70BD00BF92
:104DB80061C70100A4AF010010B5C3680121B3F8B1
:104DC8000140204602F004FF38B901212346BDE81E
:104DD8001040044A044811F001BABDE8104002F03E
:104DE800C7BD00BF87C70100A4AF010010B5C368E5
:104DF80001211C88204602F0EBFE38B90121234628
:104E0800BDE81040034A044811F0E8B9BDE8104075
:104E180002F0AEBD87C70100A4AF010010B50121A3
:104E28000C3011F053F803780121BDE81040024A14
:104E3800024811F0D3B900BFABC70100A4AF01000D
:104E4800014610B5084810F0B5FF0849084814F0A5
:104E58000EFD031E06DABDE810400121054A06488A
:104E680011F0BCB910BD00BF3401002010030020B0
:104E780038120020CDC70100A4AF010010B50024EE
:104E8800084B86B0039303AB00934FF42C724FF09A
:104E9800FF3305490548CDE904440AF07FFC204664
:104EA80006B010BDEAC70100C83B00206811002009
:104EB80010B5084C0146062294F86F0003F0FAF981
:104EC80038B994F86F000522BDE81040024903F094
:104ED800F1B910BD00000020FAEA01000121024AE0
:104EE800024811F079B900BFFAC70100A4AF010068
:104EF8000B46B0B50D8A00AF04462946D868FFF7BF
:104F080039FE8AB06A46094BCDE90750CDE9053428
:104F180040F20243ADF82430054B4FF432510548B6
:104F280042F8103F11F067F9BD46B0BD14C8010042
:104F380005000001A4AF010070B5C5680121B5F8EE
:104F48000160304602F044FE044638B90121334678
:104F5800BDE870400B4A0C4811F040B92B783BB9BA
:104F6800D5F80330C0F89930D5F80730C0F89D302F
:104F7800201D4FF4803111F033F92046BDE8704010
:104F880002F0F6BC87C70100A4AF01002DE9F84F75
:104F9800D0F80C90018A99F8004000AFA3000133C3
:104FA8008B425FD96D468AB06A46CDE90731052341
:104FB8002E484FF42151CDE905042D4842F8103F01
:104FC80011F019F9AD46BD46BDE8F88F01212B4611
:104FD800284A274811F002F9013699F800309E4214
:104FE800F1DA09EB8603B3F801500F212846B3F82C
:104FF800038002F0EDFD04460028E7D000F1C00A66
:10500800B8F1000F06D0656945B901211A4A184858
:1050180011F0E2F8204602F0ABFCDDE7A2692B684C
:1050280095422046636108BFA36102F0C7FB0AF0FE
:10503800E3F9C5F800B0236A8BB9C4E90755DAE883
:10504800EF3F013BCAE8E23F002AF8D100212046A1
:1050580008F1FF3802F0BEFB1FFA88F8D0E71D60A0
:105068002562ECE70026B346B7E700BF36C8010063
:10507800A4AF010061C801007DC8010037B504462E
:10508800084602EBC3039A4202D16FF05E0010E0BB
:10509800114611F8085BA54211D1038A517899424B
:1050A80009D908480121084A009410F001FD6FF061
:1050B800150003B030BD536898470020F9E70A4649
:1050C800E1E700BFA4AF010094C801002DE9F04753
:1050D8000C460AF0A5FEE5682B78022B75D0042B48
:1050E8000AD001213D4A3E4811F078F82046FFF7E2
:1050F800E9FB6FF015040EE0B4F81080B8F1020F68
:105108000ED84346374A3648012111F067F8204641
:10511800FFF7D8FB00240AF097FE2046BDE8F08789
:1051280068783E280CD1B8F1030F02D12E4A4346C5
:10513800E9E7EB78012B01D00A2B46D1032704E0DD
:1051480011F038F80746F8073FD504F10C0601219D
:105158003046D4F814A010F0B1FE0221304610F009
:10516800B5FE814600783E2807D1E3681B78012BFD
:1051780001D00A2B06D1032614E011F01BF8C10751
:1051880006460FD441F26813184A194919480FF016
:10519800B3FE002383F31188BFF36F8F03231846F0
:1051A80002DF0226144A0623214699F8000011F06E
:1051B80059F8B2070DD56369A5EB0A0513FA85F509
:1051C800E560A4F81080BB07A4D52046FFF738FE99
:1051D800A0E72046FFF776FBF5E700BF5CC90100B2
:1051E800A4AF0100B6C80100D2C80100F2C801008E
:1051F80026C901003FC90100D4B4010010B501213E
:1052080004460C3010F062FE2146BDE8104002232F
:10521800014A007811F026B804B5010073B53E487C
:1052280010F0DDFD0446002873D000F10C05284677
:1052380010F054FE0228034603D0042847D0374A0A
:1052480003E0238A032B05D8354A0121354810F09D
:10525800C5FF13E00421284610F038FEFF234288DA
:1052680006882376238AC6F30B009A42608309D006
:10527800012100922B482C4A10F01AFC2046FFF717
:1052880021FB12E00F2102F0A3FC054610B9638B45
:10529800264ADAE702F0C2FC21462076320B28467D
:1052A80002F0EAFA284602F063FB214BD3F83431C6
:1052B8007BB32049204814F0DAFA031E29DA0121C9
:1052C8001E4A184802B0BDE8704010F087BF284653
:1052D800022110F0FBFD054600783E2812D010F0A0
:1052E80069FF10F002060DD140F69A43144A154999
:1052F80015480FF001FE86F31188BFF36F8F032363
:10530800184602DF06232146104A287810F0AAFF23
:10531800B4E702B070BD00BF3401002005CA010027
:1053280070C90100A4AF010091C90100B5C901000D
:10533800000000201003002038120020CDC7010013
:10534800F2C80100D7C901003FC9010014B5010026
:1053580010B5012104460C3010F0B8FD2146BDE817
:1053680010400823014A007810F07CBF44B50100C2
:10537800F8B50121044600AF0C3010F0A7FD0678FF
:10538800002321463046104AFFF778FE5F3019D1D6
:10539800258AE0682946FFF7EDFB6C468AB06A4625
:1053A8000A4BCDE90750CDE9053640F20243ADF886
:1053B8002430074B4FF43251064842F8103F10F0A2
:1053C8001AFFA546BD46F8BD84B5010019CA0100FB
:1053D80005000001A4AF01002DE9F74F0023804626
:1053E80089461746DFF800A1DAE8EF4FCAE8E23F3E
:1053F800002AF9D1264644B9012143463B4A3C4894
:1054080003B0BDE8F04F10F0E9BE2046FFF7BAF947
:105418004FF00C0B374D0BFB0050438843451BD016
:105428002046FFF7AFF90BFB00504388012100939A
:10543800314A43462E4810F03BFBDAE8EF3FCAE812
:10544800E26F002AF9D1002B4BD01E46304603B03C
:10545800BDE8F04FFFF736BAA74208D0204610F053
:10546800A0FC3A8AF96804F10C0010F005FD20460A
:10547800FFF788F90C2707FB00504368ABB1B9F177
:10548800000F12D12046FFF77DF9012107FB0050DC
:105498004268536803F01F00814010685B0900EB05
:1054A8008300137ACBB110F09BFE2046FFF76AF910
:1054B8000C2707FB00508368002BC7D02046FFF756
:1054C80061F9784305F800902046FFF75BF907FB80
:1054D8000055A86809F090FFB8E7C94310F08EFEA0
:1054E800E3E703B0BDE8F08F300100204BCA0100AC
:1054F800A4AF01006C1F002073CA010073B5C56812
:105508000121B5F80160304602F062FB044640B95B
:10551800012133463B4A3C4802B0BDE8704010F0D8
:105528005DBE2B78061D1A2B19D1C378012B50D1DB
:105538004FF48041304610F053FE42040FD4D4F8A3
:105548008C3069460093D4F894302046019303F0D8
:1055580067FA204602B0BDE8704002F009BA2B781D
:10556800BBBB40F2E242B5F8033028495343C4F8C4
:105578008830B5F80520A4F89020B5F80720A4F8DD
:105588009220A3F5EA520C3A8A4204D90221204A11
:105598001D4810F023FEB4F89030B3F5FA7F04D319
:1055A80002211C4A184810F019FE40F67641B4F85A
:1055B8009230A3F10A0292B28A4204D90221164A11
:1055C800114810F00BFE6FF48051304610F016FEB3
:1055D80014E0D6E8AF3FDB04F5D52B78202BF2D1C9
:1055E80094F89830002BEED0013B84F898304FF4B3
:1055F8002032002304F140000AF070F9204602F03E
:10560800E3FCA6E787C70100A4AF010095F03C00C2
:10561800A6CA0100CDCA0100F4CA0100B0B53C28F1
:10562800044600AF1AD101F02FFB6FF480711030DF
:1056380010F0E4FD0020FFF73BFC054630B90121DE
:10564800114A124810F0C8FDBD46B0BD04730021D0
:1056580002F0DAF9284602F08BF9F5E76D468AB0D0
:105668006A460B4B4FF41251CDE90530094B0748F8
:10567800079340F20133ADF82030074B42F8103F52
:1056880010F0B9FDAD46DFE720CB0100A4AF010063
:1056980041CB01001CE9010004000001054BD3E8DF
:1056A800AF2F02F00B02D3E8EF1FC3E8E02F00286A
:1056B800F9D17047D400002010B5C1E900239DF846
:1056C80008300C460B72FFF75DF80C22024B02FB08
:1056D80000335C6010BD00BF6C1F0020F8B50246A7
:1056E8000B46104810F062FB0446C0B104210C3090
:1056F80010F0B1FB2046FFF745F80C2700260A4DAD
:1057080007FB005046802046FFF73CF807FB005097
:1057180086602046FFF736F807FB00556E60204686
:10572800F8BD00BFB80700206C1F002029289ABFC9
:10573800014B185C0920704755EB010070B5C36830
:105748000F21B3F801601D78304602F041FA044693
:1057580038B901213346BDE87040184A184810F09E
:105768003DBD65B12846FFF7E1FF294602462046C0
:1057780002F0E2FC2046BDE8704002F0F9B88378F8
:10578800012B07D106F0E0FB204610F0FBFC0028B7
:1057980008BF05252846FFF7C9FF294602462046C7
:1057A80002F0CAFC002DE5D00121064A044810F099
:1057B80013FD0521204610F0B7FFDBE761C70100A4
:1057C800A4AF01005DCB01002DE9F041C6680F21AF
:1057D800B6F801703578384602F0FAF9044638B957
:1057E80001213B46BDE8F0411E4A1F4810F0F6BCB7
:1057F80065B12846FFF79AFF29460246204602F07F
:105808009BFC2046BDE8F04102F0B2B8F278C37ABA
:10581800934205D10221154A134810F0DFFCF0E746
:105828008378C272012B08D10AB106F08DFB20469D
:1058380010F0A8FC002808BF05252846FFF776FFCA
:1058480029460246204602F077FC002DD9D00121D6
:10585800074A054810F0C0FC0521204610F064FFF7
:10586800CFE700BF61C70100A4AF010083CB0100EF
:105878005DCB010010B5044692B04822684606493F
:1058880015F04FF8112C9DBF12AB03EB840454F8AC
:10589800480C024812B010BDD8B00100B2CB0100CC
:1058A800034B0146D3F84C0182689268104700BF49
:1058B800000000202DE9F04F91B0042100AF4A48C4
:1058C80010F08EFC6D4688B06A46484B4FF4E6519E
:1058D8000593474B474806934FF40073ADF81C30C7
:1058E800454B464C42F8103F10F085FCAD46E17937
:1058F800434B444E07F12008012998BF1E464046F5
:105908002146FFF7EBF88AB06A463F4BCDF81C807A
:10591800CDE905363D4B4FF4235108933C4B3548B0
:1059280042F8103F10F067FCA246AD460125394EFB
:10593800DFF8E480E3790AF1070A9D423BDB94F83B
:1059480070506E462846FFF795FF8CB06A46B4F84B
:105958007210B4F87630CDE907514FF40075DFF8CE
:10596800BCC009932E4BCDE905C0ADF828504FF4C3
:10597800535142F8103F1F4810F03DFCB54694F8CB
:1059880071603046FFF776FF8AB06A46B4F8743023
:105998002449CDE90763244BCDE90510ADF824501F
:1059A8004FF43351134842F8103F10F024FC4437A9
:1059B800BD46BDE8F08F51463846FFF78FF8E946F7
:1059C8008AB06A4640F20133CDE905650797ADF81C
:1059D80020304FF41351074842F8108F10F00BFC99
:1059E8000135CD46A6E700BFD4000020BECB01009C
:1059F800D0CB0100A4AF010003000001000000208B
:105A08001CE90100BACB0100D4CB0100000201035C
:105A180004000002E3CB010004000001F4CB010004
:105A28000600000132CC0100050000010048704763
:105A3800E9BD01000149024813F019BF0003002025
:105A48006811002070B505460C4639B1CB684A6923
:105A58009B1A032B0ED86FF0150509E04FF0FF30A5
:105A68004FF0FF31FFF73AFE044618B96FF06805AA
:105A7800284670BD2046FEF785FE0C22164BA61858
:105A880002FB0033032130465D8010F006FA0580E2
:105A9800238A0121033B8370304610F006FA40F652
:105AA80035439D420FD12046FFF7FAFE05460028F0
:105AB800DED001210346094A094810F08FFB204631
:105AC800FEF700FFD4E72146064813F013FE002531
:105AD800FFF7B0FFCCE700BF6C1F002059CC0100D6
