:10000000E0530020E1390000B9500100CD39000073
:10001000CD390000CD390000CD390000CD390000C8
:10002000000000000000000000000000B93A0000DD
:10003000CD39000000000000813C0000CD390000F7
:10004000013D0000013D0000013D0000013D0000B8
:10005000013D0000013D0000013D0000013D0000A8
:10006000013D0000013D0000013D0000013D000098
:10007000013D0000013D0000013D0000013D000088
:10008000013D0000013D0000013D0000013D000078
:10009000013D0000013D0000013D0000013D000068
:1000A000013D0000013D0000013D0000013D000058
:1000B000013D0000013D0000013D0000013D000048
:1000C000013D0000013D0000013D0000013D000038
:1000D000013D0000013D0000013D0000013D000028
:1000E000013D0000013D0000013D0000013D000018
:1000F000013D0000013D0000013D0000013D000008
:10010000013D0000013D0000013D0000013D0000F7
:10011000013D0000013D0000013D0000013D0000E7
:10012000013D0000013D0000013D0000013D0000D7
:10013000013D0000013D0000013D0000013D0000C7
:10014000013D0000013D0000013D0000013D0000B7
:04015000013D00006D
:1001580080EA101404F0F01480EA0410604081EA88
:10016800111404F0F01481EA0411614082EA1214B7
:1001780004F0F01482EA0412624083EA131404F0D3
:10018800F01483EA0413634080EA102404F47F44E3
:1001980080EA0420604081EA112404F47F4481EA63
:1001A8000421614082EA122404F47F4482EA042292
:1001B800624083EA132404F47F4483EA04236340FF
:1001C80081EA500404F0553480EA4400614083EA2F
:1001D800520404F0553482EA4402634082EA9004EF
:1001E80004F0333480EA8400624083EA910404F026
:1001F800333481EA84016340704700BF82EA900487
:1002080004F0333480EA8400624083EA910404F005
:10021800333481EA8401634081EA500404F05534A0
:1002280080EA4400614083EA520404F0553482EACB
:100238004402634080EA102404F47F4480EA0420E6
:10024800604081EA112404F47F4481EA042161407A
:1002580082EA122404F47F4482EA0422624083EA98
:10026800132404F47F4483EA0423634080EA1014CF
:1002780004F0F01480EA0410604081EA111404F0DC
:10028800F01481EA0411614082EA121404F0F014B7
:1002980082EA0412624083EA131404F0F01483EA39
:1002A80004136340704700BF2DE9F14F94464FEAAD
:1002B800930B8A68CB6808684968FFF749FF0BF118
:1002C800060E33E083EA134480EA134582EA1347B3
:1002D80046BA96EA3444604000F00F1684EA0634C1
:1002E80020F00F1684EA161054BA94EA01067240F8
:1002F80002F00F1486EA043622F00F1486EA14126C
:100308004CBA6540694001F00F1485EA043521F0C4
:100318000F1485EA14115CBA67407B4003F00F1490
:1003280087EA043723F00F1487EA1413BCE8F000B7
:100338006040694072407B4000F0E03400F01035C6
:1003480000F00F3040EA540040EAC50080EA90040B
:1003580004F0332480EA8400604001F0E03401F0C6
:10036800103501F00F3141EA540141EAC50181EA33
:10037800910404F0332481EA8401614002F0E034FE
:1003880002F0103502F00F3242EA540242EAC50286
:1003980082EA920404F0332482EA8402624003F081
:1003A800E03403F0103503F00F3343EA540343EA13
:1003B800C50383EA930404F0332483EA8403634087
:1003C80081EA324787EA134581EA354690EA06040E
:1003D80084EA034B82EA1B4280EA044484EA054427
:1003E80083EA144A85EA14448BEA044B84EA3744C6
:1003F80081EA0B4181EA164104EA0A00454082EA93
:1004080004082BEA080041408AEA0B0602EA0600C3
:1004180084EA34438AEA3A4603EA060778404540C4
:10042800414088EA38478BEA3B4007EA000985EAF9
:10043800090583EA0709464006EA0906714085EA84
:10044800010005EA3546464006EA314181EA304175
:1004580081EA364606EA304686EA3546344008EAF6
:10046800010886EA01052A4086EA364003405A40D8
:1004780081EA31431F407C4080EA030709EA070903
:1004880088EA0908544088EA020806EA0A0601EAE6
:100498000B018AEA0B0215408AEA3A4210404540AD
:1004A8008BEA3B4003405E404240174079404D4054
:1004B8004E40E443F64386EA18435D4085EA05402A
:1004C80083EA134386EA034183EA384284EA114304
:1004D80083EA04435FEA3343BEF1010E3FF6F2AE0E
:1004E8001ED4BCE8F0006040694072407B4020BCEC
:1004F800FFF784FE28606960AA60EB60BDE8F08FB2
:100508002DE9E0414FF2F00280EA1031114080EA13
:100518000130484041088208C3084FF0000E4FE7F9
:1005280000F0113001F0113102F0113203F01133F3
:1005380040EA410040EA820040EAC3004FF2F0027C
:1005480080EA1031114080EA01304840BDE8E0817E
:100558002DE9F04F02F11C050646074600EB850819
:1005680051F8040B043A46F8040BF9D14FF0010C8A
:10057800FFF7C6FF5FEA302080EA0C001ECF41403B
:100588004A4053405C401EC62000464517D04FEAFB
:100598004C0C1CF4807F18BFACF1E50C2C2DE7D077
:1005A8003C2D06D1FFF7ACFF06CF41404A4006C6B6
:1005B800100006CF41404A4006C61000D8E736E989
:1005C8000F00FFF7C5FD043D86E80F00F7D1BDE831
:1005D800F08F00BF2DE9F14F03F11C0402EB840CEE
:1005E8004FEA930B8A68CB6808684968FFF7B0FD43
:1005F8003CE9F0006040694072407B400BF1060E18
:100608004EE083EA134480EA134582EA134746BA68
:1006180096EA3444604000F00F1684EA063420F06D
:100628000F1684EA161054BA94EA0106724002F0D2
:100638000F1486EA043622F00F1486EA14124CBA14
:100648006540694001F00F1485EA043521F00F1464
:1006580085EA14115CBA67407B4003F00F1487EAFF
:10066800043723F00F1487EA141344BA44404DBAF0
:100678004D4056BA56405FBA5F4087EA174886EA47
:10068800174B84EA17464FEA38488BEA1B4485EA39
:100698001B4788EA1B4580EA3440694072407B402A
:1006A80000F0703400F0803500F00F3040EA44006C
:1006B80040EAD50080EA900404F0332480EA8400FC
:1006C800604001F0703401F0803501F00F3141EAEB
:1006D800440141EAD50181EA910404F0332481EA16
:1006E8008401614002F0703402F0803502F00F326C
:1006F80042EA440242EAD50282EA920404F0332430
:1007080082EA8402624003F0703403F0803503F01B
:100718000F3343EA440343EAD50383EA930404F01E
:10072800332483EA84036340C943DB4381EA00043A
:1007380083EA044686EA020183EA014382EA3345F2
:1007480083EA14435C4084EA00077FEA040A8AEAE1
:10075800024A8AEA010B87EA11488AEA374A80EA9C
:10076800060181EA1A418AEA030A04EA0A004540B6
:1007780088EA040707EA0B0041408AEA0B0608EA00
:10078800060084EA34428AEA3A4602EA06035840F6
:100798004540414087EA37438BEA3B4003EA00097A
:1007A80085EA090582EA0309464006EA0906714016
:1007B80085EA010005EA3546464006EA314181EA04
:1007C800304181EA364606EA304686EA3546344004
:1007D8000F4086EA010508EA050886EA3640024025
:1007E80088EA020881EA314213405C4080EA020349
:1007F80009EA030987EA0907674088EA040806EA5C
:100808000A0601EA0B018AEA0B0425408AEA3A44FF
:10081800204045408BEA3B4B02EA0B02564084EAF3
:100828000B04234059406E40694087EA364080EA0D
:10083800384080EA060380EA104481EA134585EAD5
:10084800344585EA17427D4082EA354180EA054011
:100858003CE9F0006040694072407B40BEF1010E07
:100868003FF6CFAE20BCFFF7C9FC28606960AA60DC
:10087800EB60BDE8F08F00BFFFF76ABE2DE9F00717
:1008880091E8F807B2E802105B1854EB0C04B2E8E0
:1008980002104D4156EB0C06B2E802104F4158EBDE
:1008A8000C08B2E8021059EB01095AEB0C0A80E86F
:1008B800F80780410130BDE8F00770472DE9F007DF
:1008C80091E8F807B2E802105B1A74EB0C04B2E87E
:1008D80002108D4176EB0C06B2E802108F4178EBDE
:1008E8000C08B2E8021079EB01097AEB0C0A80E8EF
:1008F800F80780414042BDE8F00770472DE9F0074E
:10090800524290E87800B1E880071740DB1918EAEE
:10091800020854EB080419EA020955EB09051AEA1A
:10092800020A56EB0A0678C090E87800B1E880071A
:1009380017407B4118EA020854EB080419EA020937
:1009480055EB09051AEA020A56EB0A0678C08041F7
:100958000130BDE8F00770472DE9F007524290E8F2
:100968007800B1E880071740DB1B18EA020874EB2F
:10097800080419EA020975EB09051AEA020A76EB76
:100988000A0678C090E87800B1E880071740BB41B4
:1009980018EA020874EB080419EA020975EB09055C
:1009A8001AEA020A76EB0A0678C080414042BDE89E
:1009B800F00770472DE9F00152424FF0040890E823
:1009C800300091E8C000A31B1340E41AF618EB1B93
:1009D8001340ED1AFF1830C0C0C1B8F10108EED1BC
:1009E800BDE8F001704700BF00B592E8DC072DE9CB
:1009F800DC07B1E8805702B4A7FB02510A95A8FBAF
:100A0800020BE7FB6310E9FB62B00B91A8FB0351F3
:100A1800EAFB6201E7FB64B5E7FB6605E8FB6615E0
:100A2800CDF830B0A9FB03B6EAFB6316ECFB6356BE
:100A3800E8FB640BE9FB641BEAFB645BECFB646B9F
:100A48000D90ACFB0230059CEEFB6250E9FB646044
:100A5800EAFB64B0E7FB6431E8FB6451069CE8FB01
:100A68006461E9FB64B1EAFB64010E93A7FB0432FD
:100A7800079CE7FB6462E8FB64B2E9FB6402EAFBFB
:100A88006412049CE9FB6453EAFB6463089CE7FB7B
:100A980064B3E8FB6403E9FB6413EAFB64230F9582
:100AA8005DF8049B99E80006DDF80080A9FB08546E
:100AB800EAFB68B4DDF81080ECFB6804EEFB681410
:100AC800E9FB6824EAFB6834DDF80480EEFB68651E
:100AD800E9FB68B5EAFB6805DDF81480ECFB6815EE
:100AE800EEFB6825E9FB6835EAFB68450F96DDF8FB
:100AF8000880AEFB0876E9FB6806EAFB6816DDF8B5
:100B08001880ECFB6826EEFB6836E9FB6846EAFBD2
:100B18006856DDF80C80ECFB68B7EEFB6807E9FB6C
:100B28006817EAFB6827DDF81C80ECFB6837EEFBEA
:100B38006847E9FB6857EAFB686708B000BD00BF73
:100B48002DE9F14F87B0FFF74FFFDDF81C8008F162
:100B5800200888E8FF00FFBC87E87F08BDE8F08F21
:100B680000B591E89857A3FB03520195A3FB040134
:100B7800E3FB6420E3FB67100292A3FB0752E3FB4D
:100B88006802E4FB6415E3FB6805E3FB6925039150
:100B9800A4FB07B6E3FB6926E3FB6A56E4FB670B95
:100BA800E4FB682BE3FB6A5BE3FB6C6B0490A4FB40
:100BB8000810E4FB6950E3FB6C60E3FB6EB0E7FBF5
:100BC8006721E4FB6951E4FB6A61E3FB6EB1E4FB76
:100BD8006E010592A7FB0832E4FB6A62E4FB6CB283
:100BE800E4FB6E02E7FB6E12E7FB6853E7FB696301
:100BF800E4FB6CB3E7FB6C03E7FB6E13E8FB6E23C7
:100C08000695A7FB0954E7FB6AB4E7FB6C04E8FB0D
:100C18006C14E8FB6E24E9FB6E34E8FB6865E7FBBF
:100C28006AB5E8FB6A05E8FB6C15E9FB6C25E9FB8E
:100C38006E35EAFB6E450796A8FB0976E8FB6A065F
:100C4800E9FB6A16E9FB6C26EAFB6C36EAFB6E46A2
:100C5800ECFB6E56E8FB69B7E9FB6907E9FB6A1725
:100C6800EAFB6A27EAFB6C37ECFB6C47ECFB6E5738
:100C7800EEFB6E6700BD00BF2DE9F14F87B0FFF7AF
:100C88006FFFDDF81C8008F1200888E8FF00FFBC32
:100C980087E87F08BDE8F08F30B44FF0000310F804
:100CA800014B11F8015B013A84EA050443EA0403A5
:100CB800F5D1A3F101034FEAD37030BC704700BFF0
:100CC8004FF0000310F8012B013943EA0203F9D170
:100CD800A3F101034FEAD370704700BF30B411F895
:100CE800014B12F8015B6C4000F8014B013BF6D157
:100CF80030BC70472DE9F00791E8F807B2E8021018
:100D08005B1854EB0C04B2E802104D4156EB0C068C
:100D1800B2E802104F4158EB0C08B2E8021059EB48
:100D280001095AEB0C0A8941B3F1FF3374F1FF341E
:100D380075F1FF3576F1000677F1000778F10008C4
:100D480079F101097AF1FF3A51F100015B184C4140
:100D58004D4156F1000657F1000758F1000859EBCC
:100D6800D1795AEB010A80E8F807BDE8F007704727
:100D78002DE9F00791E8F807B2E802105B1A74EB66
:100D88000C04B2E802108D4176EB0C06B2E80210B2
:100D98008F4178EB0C08B2E8021079EB01097AEB85
:100DA8000C0A89415B184C414D4156F1000657F138
:100DB800000758F1000859EBD1795AEB010A80E88D
:100DC800F807BDE8F007704718EB040859EB050968
:100DD8005AEB060A5BEB070B5FF0000C4CF1000CBA
:100DE80018EB050859EB06095AEB070A5BEB070BEA
:100DF80050EB0C005FF0000C51EB0C0152EB0C02B5
:100E080063414CF1000CB8EB070879F100097AF15D
:100E1800000A7BEB040BA841B141A241B3416CF13C
:100E2800000CBBEB050BB041B941AA41BB416CF1C9
:100E3800000C4CF001068CF0020718EB060859EB81
:100E48006C095AEB6C0A7BEB6C0B70EB6C0471EB66
:100E58006C0572EB670653EB6C076CEB6C0C18EBCC
:100E68000C0059EB0C015AEB0C025BF1000354F136
:100E7800000455F1000556EBDC7657EB0C0770477C
:100E88002DE9F14F87B0FFF7AFFDDDF81080DDF8F1
:100E98001490DDF818A0FFF797FFBDE8000FFFF7E3
:100EA80093FF03B05DF8048B88E8FF00BDE8F08F7E
:100EB8002DE9F14F87B0FFF753FEDDF81080DDF81C
:100EC8001490DDF818A0FFF77FFFBDE8000FFFF7CB
:100ED8007BFF03B05DF8048B88E8FF00BDE8F08F66
:100EE80010F8012B11F8013B012A28BF9A42F7D0CC
:100EF800D01A7047034611F8012B03F8012B002A7A
:100F0800F9D17047034613F8012B002AFBD1181AB0
:100F180001387047000000000022F0B585B0114686
:100F280040F6034002AF04F0BBFB0446002840F043
:100F3800A48004F021F9214641F203003A1D04F08F
:100F4800AFFB0446002840F098807A684D4DD16880
:100F580005F17803D1F80100D1F8051003C3104654
:100F680003F01EFA214641F201003A1D04F098FBF5
:100F78000446002840F081807868C3685A7885F86C
:100F880070205A88A5F872201A7985F87120B3F86C
:100F98000720A5F87420B3F80530A5F8763003F0DB
:100FA800FFF9214641F202003A1D04F079FB04469C
:100FB800002862D1D7F804C005F18006DCF80C20BF
:100FC800531C4132344618685968083303C49342A5
:100FD8002646F7D1604603F0E3F905F0D9FD04464B
:100FE80000284AD195F88A30990610D40221264A59
:100FF800264814F0F9FA95F87C305A064AD40121AB
:10100800234A224814F0F0FA6FF0120435E04FF04A
:10101800FF304FF0FF3104F0CFF80646002800F00B
:10102800428207210C3014F029F9452303700A2362
:10103800C0F802408471447004712246C37031467E
:1010480040F6334004F02CFB0446B0B94FF0FF30B3
:101058004FF0FF3104F0B0F80646002800F0238274
:1010680001210C3014F019F92246314640F631407E
:1010780004F016FB04460028BDD020460C37BD46B8
:10108800F0BD00BF00000020FBBD010028A3010047
:1010980029BE0100002142F203003A1D04F000FBC2
:1010A80004460028E9D17A68A94BD168D1F8010033
:1010B800D1F8051003C3104603F072F9214642F235
:1010C80002003A1D04F0ECFA04460028D5D17E68E7
:1010D800F468B4F801309AB292B1E27882B1A5F816
:1010E800FC30E378032B06D00322022100929948B2
:1010F800994A13F0E5FEE2789848114617F0D9FCB2
:10110800304603F04DF91F2395F87C60A5F810319F
:1011180016F0200619D14FF0FF304FF0FF3104F0E0
:101128004BF80446002800F0BE8102210C3014F070
:10113800A5F80123214603704670324640F66D40FB
:1011480004F0AEFA0446002897D195F89C301B07A6
:1011580012D5002142F21C003A1D04F0A1FA0446FF
:1011680000288AD17868C368D3F80120D3F80530FD
:10117800C5E9382303F014F995F8D8309E0623D52D
:101188003846B91C04F060FB044600287FF475AFAC
:101198004FF0FF304FF0FF3104F00EF806460028FC
:1011A80000F0818104210C3014F068F83B88224655
:1011B80003807B883146438042F2240004F070FAB1
:1011C800044600287FF459AF95F8D8305C0610D54E
:1011D800002142F22A003A1D04F062FA044600286F
:1011E8007FF44BAF7868C3685B7885F8123103F0F9
:1011F800D7F84FF0FF304FF0FF3103F0DDFF064620
:10120800002800F0508108210C3014F037F895F8C8
:10121800D84040F2022314F0400F08BF03230246CF
:10122800A0074CBF43F02C0343F00C03A10695F82C
:10123800D91048BF43F0400311F0090F18BF43F419
:10124800006304F0010443EA0410002114F0FBF9E0
:101258000022314642F2010004F022FA0446002836
:101268007FF40BAF95F87C30B5F8FC1098065CD489
:10127800C9B941F205003A1D04F012FA04460028E3
:101288007FF4FBAEB5F8FC307C684BB9E368B3F883
:101298000120A5F8FC209A883048114617F009FC6F
:1012A800204603F07DF84FF0FF304FF0FF3103F098
:1012B80083FF0446002800F0F68008210C3013F064
:1012C800DDFF95F8D8300246D90738D44FF00051E1
:1012D800234814F0B8F92146002240F6014004F0F2
:1012E800DFF9044600287FF4C8AE01463A1D4FF6E0
:1012F800014004F0D5F9002838D01A4A02211548CF
:1013080014F072F9EB79002B40F0BD8005F06EF90E
:10131800044600287FF4B1AE06F05AFE04460028C1
:101328007FF4ABAE04F034F8A7E60029BBD1012165
:101338000D4A084814F058F96FF004049DE602A11C
:10134800D1E90001C5E700BF9088000200800020B5
:10135800D800002028A301004DBE01000001002094
:1013680010880002B6BE010093BE01007B686E467D
:10137800DC688AB0B4F80130042B96BF574A584944
:1013880052F8231002AAD3614FF40073554813840E
:10139800554BC2E9050142F8103F4FF41351534829
:1013A80014F031F9B4F80120B546022AB4F8033034
:1013B80049D1052B47D84E4A52F823106E468AB0B9
:1013C80002AAD3614FF400734A481384464BC2E91A
:1013D800050142F8103F4FF41351444814F013F933
:1013E800B546637994F806C0032B98BF424AB4F80F
:1013F8000760D4F809006C468CB094BF52F82310EB
:10140800374902AAC2E9073C4FF40073DFF8ECE061
:1014180093853B4BC2E905E1C2E909604FF473517A
:1014280042F8103F314814F0EEF8A546786802F00B
:10143800B7FF00214FF602403A1D04F031F9044687
:1014480018B1304A5AE72649B8E77868C368B3F84C
:101458000130A5F8C13002F0A3FF95F8C1305A0752
:101468007FF550AF21464FF603403A1D04F018F9B6
:1014780008B1254A42E77868C3685B7885F8C030C8
:1014880002F08EFF3EE72E78002E7FF43FAF95F8EE
:10149800C1309B061FD54FF0FF304FF0FF3103F0EE
:1014A8008BFE044610B96FF06804E6E506210C309F
:1014B80013F0E4FED5F8013021460360134B3246A1
:1014C8009B8883804FF6064004F0EAF8044600281B
:1014D8003FF41CAFD1E56FF08504CEE578A7010095
:1014E80087BB0100DABE01000400000128A3010047
:1014F80060A70100F3BE010050A701000BBF010067
:101508000700000138BF010061BF01000100002091
:1015180013B5002004F0EEFA044640B10321034657
:101528000E4A0F4813F0C2FC204602B010BD03213A
:101538000C4A0B4813F0B1FC2346009402220A49D6
:101548000A4805F013F9044620B10146084812F08C
:10155800CEFEE9E707490848F9E700BFC4AD010036
:10156800A8A30100E4AD01000CA50100F8A4010046
:10157800FBAD010021AE01002CAE01002DE9F843BE
:10158800884600AF00297DD005680122284612F060
:10159800B4FC01460446284612F069FC10EA02062B
:1015A80016D1E94688B06A46384BCDE90538032399
:1015B80042F8103F4FF4C2513346354801F080FBE2
:1015C800CD4686F31188BFF36F8F0423184602DFD8
:1015D8002146284612F061FC26183146002228468A
:1015E80012F045FC361AB44218D06E4688B06946E7
:1015F800284BCDE90538032341F8103F244813460A
:101608000A464FF4C25101F05BFB0023B54683F351
:101618001188BFF36F8F0423184602DF002221468A
:10162800284612F040FC214612F037FC2618012209
:101638003146284612F01BFCC20708D4314628461A
:1016480012F09DFC32462146284612F00FFD00227A
:101658002146284612F00BFC261A0122314628465C
:1016680012F005FCC30709D43146284612F087FC5E
:1016780022463146284612F0F9FC344621462846CF
:1016880012F012FDBD46BDE8F88300BFA6AE01000A
:10169800D8A301007DAE01002DE9F04F91B0009371
:1016A80002F004030293C2F3C20301338407054620
:1016B8000E46DDF868A00392059340F09C81041D56
:1016C800002849D101F00706341DC6F10806009B21
:1016D80000274FF004085A1E4FF0FF33B946019314
:1016E800BB46434604970DB1009921600598002830
:1016F80000F3D6808F480099814203D38E488142F7
:10170800C0F0CE800399601B11F0020C40F0D68027
:10171800B9F10F0F00F2CF80002D00F0D68009F14B
:1017280040010DEB010E0199C0F387000EF8200C63
:101738000EF8101CBCF1000F00F0C38060F07F00B1
:101748000EF8200C013709F10109C5F108014FF61F
:10175800DA7E043406918CE00729B8D86FF01B00B4
:1017680011B0BDE8F08F7A285BD84B280FD84728EE
:1017780057D829282ED8252850D052D8202818BF25
:1017880023280CBF4FF0010B4FF0000B71E04C38D1
:101798002E2846D8DFE800F06D45454545454545C6
:1017A80045454545484545454545454545564548CA
:1017B800485656566D486A456D4518481845457F40
:1017C8007C48454548457C0000204FF0000B4FF011
:1017D800040835E001212A38C0B201FA00F010EA05
:1017E8000E0F46D110F0625C2CD110EA010B40D0EC
:1017F8006046013C4444B4FBF8F408FB04F425B10A
:10180800A3EB050CA444B445A8D8002870D00599CA
:10181800013905915AF8041B009164E701990139CF
:1018280001914FF0000B24E012F8010C6C2834D120
:10183800002012F8023C83466C2BC8D14FF00808F0
:101848004346D6E70AF1070A2AF0070A073424F0C4
:101858000704FAE802BC35B106982044B0423FF6C6
:101868007DAFC4E900BC4FF0000B08344FF0080806
:10187800434612F8010F002853D0BBF1000F7FF444
:1018880072AF2528F5D14FF0010B019B013301936D
:101898004FF00408ECE7584697E700208346A8E78E
:1018A800039988077FF551AF4FF0010C601BB0F525
:1018B800007FFFF42DAF6FF0150051E74FF0000CDB
:1018C800F5E70498013004903DE7BCF1000F01D022
:1018D800013638E70298023600287FF434AF0098C2
:1018E800CDE90632FFF70EFBDDE9063206442AE7AA
:1018F800042B08D10AF1040015B1DAF800102160B0
:1019080082460434B5E70AF1070323F0070303F11D
:10191800080A1DB1D3E90001C4E90001082308340D
:10192800A7E7631BB3F5806FC5D23DB9A6F10804DC
:10193800E01815E7609E010078DA0100029A9B081A
:1019480028602B709DF81030AAB1EB70AF702FB1E2
:10195800002208A8C5F1010C91450ED14FF0000AEC
:10196800C5F101030DF1200801930DF1300BD145AC
:1019780012D1601BF4E66B70E8E710F8013B19061A
:1019880008D50CEB040EB64503F07F033FF6E6AE30
:1019980004F8013B0132DFE71FB198F90020002A63
:1019A80017DB029BD3B11AF80B2004F8012B002295
:1019B800019B18191044B0423FF6D0AE98F80000C9
:1019C800009904F8010B2046039218F070F9039A65
:1019D80014440AF1010A08F10108C8E798F8002040
:1019E80055F822300093029B009845F82230FFF703
:1019F80089FA421CDCE76FF00D00B1E62DE9F04FE3
:101A080097B000AF05468A46C7E90A3249B9037854
:101A18004678807800EB83002844564524D8A0EB0C
:101A2800050AD7F8803095F8028003F00103D7F84B
:101A38008040FB61EB78B8F1000F0CBF002404F084
:101A480001047B621BB1D7F880309A0715D4A4B97A
:101A5800FB6A1BB151462846BA6A98475646304633
:101A68005C37BD46BDE8F08F441C2046FFF74AFAB4
:101A7800013020440AF1010ACFE7D7F88030C3F3D8
:101A8800C0033B622B78BB619B003B616B687B6149
:101A9800BB6905EB830BFB6A002B77D15646D8440C
:101AA800BCB11C461BF8013B55F82300FFF72AFA86
:101AB800D7F88430013043B1D7F88830A34282BFC9
:101AC800D7F8843023F814000134C3450644E9D11B
:101AD800D846D7F880304FF0000913F0050F0CBF37
:101AE8004FF0020B4FF0010B7B6A9945B7D298F87B
:101AF800013008F1020855F823A0AE4B9A45C0F012
:101B08004C81AD4B3A6A9A452CBF002301230AB396
:101B180018F8021C7869FB6212F0C8FBFB6AC8B1AE
:101B2800EA468AB06A46A54B05937B69CDE906313A
:101B38004FF40073ADF82030A14B42F8103F00235A
:101B48004FF412519F4801F0BBF8D546023E09F107
:101B58000109C9E723B1FB6933B9A6EB0B06F6E720
:101B6800D7F880309B07F2D55046FFF7CBF9D7F866
:101B780084304BB1D7F888309C423FBFD7F88420D7
:101B8800431C22F8143001340644E0E7002C6AD1E3
:101B9800B8F1000F6DD0D7F8803058076CD5C14622
:101BA80007F148004246594618F081F800220BEB2D
:101BB8000803FB600233796A8A425FD3D7F8802032
:101BC80095F801B0F969920704EB0B0348BF0022AE
:101BD800DBB258BF4FEA5902002940F0A680D7F877
:101BE800801011F0040F14BF494600216B70A970D2
:101BF800EA702846BA6A3969FB6A9847061EFFF6F2
:101C08002EAFBB6949462B707B6ABA6AEB7085F8C0
:101C180001B0FB6A85F8028007F148009847B0F1E7
:101C28000009C0F2B6803B697A6A786A03EB420120
:101C3800FB68414403EB4000BA6AFB6AAAEB010166
:101C480098470028C0F2A7804FF0000BB14409EB79
:101C5800000607F1380AA34569D30021BA6A084685
:101C6800FB6A9847FBE644464FF0000907F1380045
:101C780098E74446C14699E7A14697E713F8016CEF
:101C8800DFF830C155F8260013F8021C6045C0F093
:101C98008A80DFF824C16045386A2CBF4FF0000BFA
:101CA8004FF0010B38B17869C7E9013212F0FEFA3A
:101CB800D7E90132F0B9BBF1000F1ED0F96949B17B
:101CC800611C04F1280007F13004041904F8206CA1
:101CD800CCB20FE0D7F8801049070BD509F12800DE
:101CE80007F1300C09F1010100EB0C0909F8106C3F
:101CF8005FFA81F9013202335DE7D7F88000800787
:101D0800DED409F1280C07F1300EF44409F1010082
:101D18000CF8101C07F1580109F1020951FA80F07A
:101D28005FFA89F900F8106CE4E700215EE71BF818
:101D38000A3055F8239087F83730D7F884302BB31A
:101D4800D7F888309B4521D2D7F8843033F81B80E8
:101D58000121BA6AFB6A07F13700984700281ADBA5
:101D68000644B8F1000F06D14846FFF7CBF800F15A
:101D780001081FFA88F841464846BA6AFB6A98473C
:101D8800002808DB06440BF1010B64E74FF000085C
:101D9800DEE74E4663E6064661E63B6A002B3FF403
:101DA800DFAE0023B4E6386A0028A6D04FF0000B57
:101DB80079E700BF609E010078DA0100D3AE010028
:101DC8000400000170A30100014B1860704700BFB8
:101DD8005001002080B505460E46174698460DF07E
:101DE800F1FA034601F09AFF0446DFF818904246DC
:101DF80049F8003039463046A84754F8090001F040
:101E080025FF00BF080000002DE9F047058B0446B8
:101E1800280717460CD501290CBF45F0100545F0D9
:101E28002005258387F31188BFF36F8FBDE8F087FE
:101E3800022905F0070540F09480204612F0DDFCE9
:101E4800052864D801A353F820F000BF2D1E000018
:101E58006B1F0000171F0000D91E0000F31E0000B2
:101E6800051F000001F007035A1F012A1FD800228E
:101E780021F00701062BD4F8008089B2C4E90022BA
:101E880009D1434603E0628B013262831B68002B51
:101E9800F9D141F002012046218312F0AEFC4FF047
:101EA800000900286DD041F02001218369E0042B4E
:101EB8000AD121F0070189B22046218312F09DFC46
:101EC80010B141F0200121834FF00008C14658E0CD
:101ED8002369D3F80090238B23F0070343F006030C
:101EE8004FF00008238346464BE02369D3F804905B
:101EF800238B23F0070343F00403F1E72369D3F8A6
:101F08000890238B23F0070343F00503E8E74FF01D
:101F18000008C146E7E7012243F00803238387F35B
:101F28001188BFF36F8F002A3BD1B8F1000F4AD157
:101F3800B9F1000F02D020462C49C847EFF31187AA
:101F4800202383F31288BFF36F8F238B23F00803BA
:101F58009BB22383D9063FD523F01002228303F0D6
:101F680007056669218B002EBFF67CAF00239946D2
:101F7800D4F8008021F00701C4E9003341F00101E1
:101F88002183238B03F0070AAA4502D0A268002AFE
:101F9800C1D1B8F1000F02D1B9F1000FDAD0002297
:101FA800BAE7A1680029C0D00D680029BDD0334622
:101FB800524620464F68B8471DB12B6829461D4632
:101FC800F3E72B46FAE74146334652462046D8F80F
:101FD800008012F03EFCA8E79A067FF523AF23F0B5
:101FE8002002228303F0070527E700BF8748010086
:101FF80010B530B90B480C4912F0EFFC6FF0150022
:1020080010BD836833B90748084912F0E6FC6FF041
:102018000400F5E71B6813B1BDE8104018471846DF
:10202800EEE700BF88A3010092AF0100A3AF010053
:1020380010B530B90B480C4912F0CFFC6FF0150001
:1020480010BD836833B90748084912F0C6FC6FF021
:102058000400F5E75B6813B1BDE81040184718465F
:10206800EEE700BF88A3010092AF0100A3AF010013
:1020780070B508B101B132B90B480C4912F0ADFC8A
:102088006FF0150070BD84680CB1256935B9064834
:10209800074912F0A2FC6FF00400F3E741F8040BC3
:1020A8002369BDE87040184788A30100C1AF01004B
:1020B800A3AF010010B5044630B91048104912F01A
:1020C8008CFC6FF0150010BD006830B90B480D4945
:1020D80012F083FC6FF00100F5E783680BB15B69D0
:1020E80033B90648084912F078FC6FF00400EAE7B3
:1020F800616898470028E6D12060E4E788A30100DA
:10210800EDAF0100FEAF0100A3AF010070B51346AB
:10211800044630B91048114912F05FFC6FF0150001
:1021280070BD006830B90C480D4912F056FC6FF0CC
:102138000100F5E782680AB1956835B9064809498A
:1021480012F04BFC6FF00400EAE70A46AC466168FF
:10215800BDE87040604700BF88A30100EDAF0100F3
:10216800FEAF0100A3AF0100034A13680BB9526820
:1021780013600020704700BF5401002030B50C46A2
:102188000E4985B00291D0F8CC110546CDE9003151
:1021980000F1F0014FF0FF3320460BF0C3FD50B9BA
:1021A800012384F86C30D5F8C83123B1204605B036
:1021B800BDE83040184705B030BD00BFF14A010006
:1021C8002DE9F04F012381460569466891B005F570
:1021D8006777D7E8EF2F002A03D1C7E8E13F002946
:1021E800F7D10CBF1A46002240F0BE80B368B16A2E
:1021F80005F5F4781C1F104612F0C6FC84427CD802
:10220800013A00F0AB80B2FA82F24FF00044D440B9
:1022180072682046073222F00302C5F83422B16AF8
:1022280012F0B2FCC5F83802B36A40466343033380
:1022380023F0030302EB4302230103EB44030933B6
:1022480023F0030303EBC403C5F82C221A44083215
:10225800C5F828227368C5F83042C5F82432444BC3
:10226800C5E9AB63316800F039FA0446002842D169
:10227800D9F810B0D9F804A0D9F800300BF53274A9
:10228800CDE9060005932046DAE90739012B08BF96
:10229800A9F1100916F0DCFCDAF82400354905AB81
:1022A800009301EB80214B4620464FF480620CF0EE
:1022B80083FC2021DAF824302F4A0DEB010011F0BD
:1022C8005BFB204608A90CF089FD2C490BF52E7004
:1022D80016F077FCDAE9050183685C684CB15B4667
:1022E800274AA047044630B9DAE9050183681B6923
:1022F8002BB96FF05704002129E001327BE7012256
:10230800984704460028F6D11E4B2846C5F8C83120
:102318001D4BC5F8CC311D4B0393D5F838320293C9
:10232800D5F83432CDE9008305F50F73B26AD5F8D4
:10233800981300F09BF904460028DCD105F1F00061
:102348000BF096FD0028C5F8A0030ADB02213846E9
:1023580012F002FC204611B0BDE8F08F6FF00B04BC
:10236800C9E76FF01504C6E76FF07704F2E700BF1E
:102378004B4B0100982C002023B00100314B010089
:10238800254B010015240000674C0100992300002B
:102398002DE9F04190460C4699B30B788BB3D0F8F1
:1023A800BC50A5F5DE7614354FF0FF324FF0FF3301
:1023B80028460CF03BF92146304612F097FB0746B9
:1023C800A0B93046104912F091FB064620B92846BC
:1023D800BDE8F04112F0BEBB1F222146483017F07D
:1023E800BDFC86F86770C6F86880F0E7284612F0EA
:1023F800B1FB4346224639463046BDE8F041FFF777
:10240800BDBEBDE8F08100BFD8D7010013B50446B2
:1024180040B100230122CDE90032074BD0E909126F
:102428000BF054FC236F1B6823B1606F02B0BDE84A
:102438001040184702B010BDD8D7010013B50446A4
:102448000846216901F56771D1E8AF1F022910D14B
:1024580093B1A0B10121CDE900311346D0E90912A9
:102468000BF034FC074B984208BF6FF00B0002B02A
:1024780010BD6FF00F00FAE76FF04C00F7E76FF050
:102488000100F4E72EF8FFFF2DE9F84389461546C9
:10249800066906F56773D3E8AF3F022B66D1136868
:1024A800EBB11B78DBB1D6F89873002F3FD106F556
:1024B800E8784FF0FF324FF0FF3340460CF0B6F8A3
:1024C8003046296812F012FB044660B930462949A3
:1024D80012F00CFB044638B9404612F03BFB6FF093
:1024E8001500BDE8F883012705F108032367AB69E8
:1024F80064646367002384F86C3067B1404612F067
:1025080029FB21463046A36E2A68FFF737FE0020D4
:10251800C9F80040E5E71F22296804F1480017F0D0
:102528001DFC404684F8677012F014FBEFE7304654
:10253800104912F0DBFA04460028D0D0002705F134
:1025480008030367AB6980F86C70436740641F2217
:102558002968483017F002FC22460121304684F8E9
:10256800677000F065F80028D1D0B8E76FF00F0069
:10257800B7E700BFD8D7010010B50C46006900F5D1
:102588006773D3E8AF3F022B0FD189B10A4900F531
:102598002E7016F042FB204615F069FE78220021C5
:1025A800204617F0AAFB002010BD6FF00F00FBE7D4
:1025B8006FF00100F8E700BFA01800202DE9F04FE8
:1025C80005460E4690460027D0F8BCA085B0AAF56F
:1025D800BA7421463046FEF783FCE0B9134BA4F1E8
:1025E800480B0293DAF810303246CDE900832946C9
:1025F8004FF0FF335846AAF5DE790BF093FB88B904
:102608007823012203FB079383F86C20DAF80C3057
:102618000BB1584698477B1C022B4FF0010704F179
:102628007804D6D105B0BDE8F08F00BF954C010005
:102638001FB5144690B18AB1012912D10A4B00F195
:10264800F0010293D0F8CC31483201934FF0FF33B8
:10265800204600930BF066FB04B010BD6FF0150028
:10266800FAE70020F8E700BF954C01002DE9F04398
:1026780087B00E46DDE90E811446DDE910251F46B8
:1026880030B329B3DFF850C000F1F009002D08BFBE
:1026980065469EB9CDE9034400F5DE7420460596EB
:1026A80016F057F803ABCDE900432A463B464146AE
:1026B80048460BF05BFC07B0BDE8F08300224146BA
:1026C8000E9248462A4607B0BDE8F0430BF0A2BD7B
:1026D8006FF01500EFE700BFC5250000F0B5044610
:1026E80087B02B4A04AB0E4692E8030083E8030048
:1026F800002C49D018460BF0EDF90546B0B94FF05B
:10270800FF33E16C04F15407A163CDE901000093A4
:102718003846236D04F1380215F06AFAA06C12F0FD
:10272800E4FAC4F8BC0020B96FF00B05284607B0DE
:10273800F0BDA06C12F0D9FAC4F8C0000028F3D09C
:10274800236CD4F8BC10C4F890300423C4F8943037
:10275800C4F8AC300223E3620E4BB4F84820C4F846
:102768008C10616C236204F18C03C4F8A070A4F887
:102778009820C4F8B870C4F8A810A4F8B020C4F819
:10278800A400A6612363D1E76FF01505CEE700BF6B
:1027980050A401004CA501002DE9F0470446074666
:1027A8004FF00109DFF84C8094FAA4F5B5FA85F5E5
:1027B80009FA05F32E0108EB05156FEA030A24EA66
:1027C80003042B7B63B158F806301B696BB9464488
:1027D800736804222846196807EA0A0712F0EDFA16
:1027E800002CE1D13846BDE8F087284698470028F4
:1027F800F6D1ECE7F8A3010010B5002288B00E4925
:102808000E4816F039FC002200230024CDE90623E7
:102818000E234FF44072CDE90334CDE90144084B4F
:102828000849009408480CF04FFB084906480CF08A
:10283800D5FA204608B010BD59280000A80F00207E
:10284800712B000098300020F00A00202FB0010002
:1028580001480BF0DFBF00BFF80500202DE9F04765
:10286800804621480F4612F08CFA0646002833D0DD
:1028780000252846BDE8F087237B83B12368DB6801
:102888000BB120469847636883F8069023681B6954
:10289800D3B9636804222046196812F08EFA01360B
:1028A80010345445E8D3B8F1000FE2D0002DDFD042
:1028B8002846FFF771FF0546002FF7D000214FF497
:1028C800A47016F0E5FAF1E7204698470028E0D012
:1028D80009FA06F31D43E2E705464FF00109034CE8
:1028E800DFF80CA0DDE700BFD0180020F8A3010036
:1028F80008A40100014B53F8200070478CA5010083
:1029080008B5034608462BB1044A136000F038FCAA
:10291800002008BD6FF01500FBE700BF8001002014
:1029280010B5044C237813B903480BF073FF012347
:10293800237010BD60290020F805002010B504465A
:10294800094812F01EFA3CB1084BD3E8EF1F0139D1
:10295800C3E8E21F002AF8D105480DF07BF8BDE86E
:10296800104004480BF056BFC8180020CC180020AF
:10297800A80F0020F80500200022044BD3E8EF0F31
:10298800C3E8E12F0029F9D1704700BFC81800201B
:1029980070B5FFF7F1FF0546074C084EB44200D367
:1029A80070BD63685B792BB123685B6813B12946F6
:1029B800204698471034F1E7F8A3010008A4010065
:1029C80010B5044C0449204611F0ACFD034B1C60C3
:1029D80010BD00BFB404002078A50100C018002075
:1029E80000230D4A10B513700C4A4FF400411360D0
:1029F8000B4A0C481360FFF783FFFFF7E1FF0A4B10
:102A08000A4918468B4200D310BD1A1A5C68121185
:102A1800013222711033F5E761290020C81800201F
:102A2800CC180020874D0100F8A3010008A401007C
:102A3800014600220023014811F095BDB40400208E
:102A4800014811F02CBE00BFB4040020024B01461F
:102A5800186811F07FBE00BFC0180020014811F0AF
:102A6800B4BE00BFB404002070B5284B1B78002BFF
:102A78004AD0FFF7E5FF0446002842D1244B254DF4
:102A88001B68002B19DD16F0AFFA4FF47A76A0FB1D
:102A9800063206FB0121D5E90020DB0B43EA41435E
:102AA8009B1A40F2E9324FEAD13161EB00019342BF
:102AB80071F1000101D3FFF76BFFD5E9003213F57F
:102AC8007A7342F10002C5E90032ECB1BDE870400A
:102AD800FFF7C4BF6B685B7923B12B682146284692
:102AE8001B6898471035B542F4D32046FFF7AEFF70
:102AF800094BD3E8EF1F0139C3E8E21F002ABDD014
:102B0800F7E7064D064EEEE7002070BD602900206D
:102B1800C8180020A00F0020CC180020F8A301003E
:102B280008A4010070B50D4D297861B90120FFF79F
:102B380095FE0B4C0B4EB44206D3FFF795FF0028C9
:102B4800FBD101232B7070BD63685B791BB12368CF
:102B580020469B6898471034EDE700BF61290020A4
:102B6800F8A3010008A4010000212DE9F843084654
:102B7800FFF774FE044648B340F267684FF0000957
:102B880001F0CCF81A4B1B4A1B58136033B11A4B8F
:102B98001B68092B02DD19480BF03CFE0025184F75
:102BA80044B12046FFF7F8FD044618B94FF0FF3846
:102BB8004FF0FF39FFF758FF064628B9B5B90F4857
:102BC80042464B460BF05AFE3546E9E74FF0FF38D0
:102BD8004FF0FF39D4E72B689B691BB100222846C8
:102BE800114698471035BD42F5D3E8E7054DFAE799
:102BF80008000000C4180020CC180020F8050020A8
:102C080008A40100F8A3010013B5184812F0B9F898
:102C1800174B1B7873B1EFF31184202383F31288C9
:102C2800BFF36F8FFFF720FF84F31188BFF36F8F17
:102C380002B010BD0F4B1B68002BF9D050B9002211
:102C480000230D48CDE900234FF4004200230CF087
:102C5800C9FEEDE70928EBD107480CF0FBFE074851
:102C680002B0BDE810400BF0D5BD00BFCC18002065
:102C780061290020C4180020A80F0020F8050020B2
:102C880010B5064B04461B6898472146A0600448C7
:102C980011F0E6FCBDE81040FFF7B6BF8001002048
:102CA800B4040020044A054B9B1AB1EBD30F34BF80
:102CB80052F8310000207047E8A20100F8A3010093
:102CC8002DE9F04F8FB0C1F34A2604AF0D46904668
:102CD800B8607B600C0D002E61D04FF000090A230C
:102CE8004FF0040B07F1140AFE60C7E90799C7F80B
:102CF80024900093CDF808B0CDF804A007F11C0388
:102D08004A464046F968FEF779FEB0F5006F03467B
:102D18001CD36C468AB0D8F8041004AB24481A4671
:102D2800C3E9050140F2FF71D9614FF400711984BC
:102D3800204B42F8103F4FF412514B461E48FFF704
:102D4800BFFFA5462C37BD46BDE8F08FC0F30A0685
:102D580004F11700184420F0070080083B60FFF7D3
:102D680067FE66F35325044680B13B6800F1100105
:102D7800C7E908390A23F961CDE901AB0093404658
:102D88000E4AF96807F11C03FEF738FE66F353256F
:102D98002A4620467B68B96812F02FF8D2E704F17A
:102DA800170020F007008008FFF742FE0446EDE711
:102DB80044B001000400000190A30100D54D0100BA
:102DC8002DE9F04F87B00546DDE9106BDDE9127A91
:102DD800884614469946BFB110213B465A46002002
:102DE800CDF800A0CDF814A0FEF756FCB0F5006FA2
:102DF80001460BD340F2FF730221184A184807B066
:102E0800BDE8F04F12F052B83946384604F00703CF
:102E180005F00704E40044EA831444EA402444EA41
:102E2800065406F11700084420F0070080080391B3
:102E3800FFF7FEFD054640B13FB13B465A460399B0
:102E4800CDF800A01030FEF727FC4B46224641463D
:102E5800284607B0BDE8F04F11F0CFBF83B001009E
:102E680090A30100406820B1034BC01A40F3CF0083
:102E780070474FF0FF307047E8A201000EB403B569
:102E880003AB53F8042B01460448019301F07AF987
:102E980002B05DF804EB03B0704700BF174F0100A4
:102EA800CA0605D48B064CBF02490349FFF7E6BFA3
:102EB800704700BFD7D70100D6D701002DE9F04FE2
:102EC80089B098469DF85090159B044606930D4688
:102ED800DDE916A3189F05920493B9F1000F00F0DD
:102EE800B08007F48073079311F065FF07F0020BB9
:102EF8000246002874D020467749FFF7BFFF0646F0
:102F0800BBF1000F08D017F0440F6BD12A462046BA
:102F18007249FFF7B3FF064407F0010353B1704B42
:102F2800204653F829206F4B6F49002A08BF1A46DC
:102F3800FFF7A4FF07F48073002B07F0080318BFFE
:102F48004FF00008002B79D0684B204653F8292011
:102F58006749FFF793FF0546059B2BB11A462046A4
:102F68006449FFF78BFF0544B8F1000F05D04246CE
:102F780020466149FFF782FF054460483544069BB7
:102F88001BB122465E4911F060F9049B002B00F04A
:102F98008E80DDF810803946B8F1100F204628BF22
:102FA8004FF010080026FFF77BFFB54250DC0026E3
:102FB800334620461AF803205249FFF75FFF0136CF
:102FC800102E4BD0710703D120464F49FFF756FF0B
:102FD80046453346EDD320464C49FFF74FFFEEE711
:102FE80006468DE74A4B1868002894D0494B4FF4A1
:102FF8007A7B1B684FF03C0CB5FBF3F5B5FBF0F1A1
:103008004FF4616300FB11550BFB05F5B1FBF3F2BF
:10301800B5FBF0FE03FB121100FB1E55B1FBFCF3E0
:103028000BFB05F5B5FBF0F50CFB131120460091E1
:10303800CDE901E53849FFF721FF6CE707F00805FE
:103048008AE7B8F1010F4D460CBF2C48334896E784
:1030580020462D49FFF712FF0136A6E70026204635
:103068002F49FFF70BFF33461AF803202046A2F139
:1030780020035F2B28BF2E222A49FFF7FFFE0136C7
:10308800102E0DD0720703D120461F49FFF7F6FE18
:10309800B0453346E8D820461B49FFF7EFFEEEE778
:1030A800049BC244B3EB080304937FF472AFB9F1F5
:1030B800000F0AD0FB0704D520460A4A0A49FFF741
:1030C800DDFE39462046FFF7EBFE204609B0BDE895
:1030D800F04F11F00FBF00BFC0B00100C4B0010035
:1030E8009CA50100BBB00100C6BB0100B0A5010052
:1030F800E9B00100EFB00100F3B00100174F010083
:103108008D410000F8B00100A2D70100A0D701004E
:10311800D8180020D4180020CDB00100454F010078
:10312800FEB0010000B1010042F20F7373B58B428B
:1031380028BF0B4605680446052168460D4A10F06D
:103148001BFC0646636828460B225B680A4911F097
:10315800C3FE63683246694628465B6811F0BCFEC8
:1031680063681B2228465B68044911F0B5FE02B06B
:1031780070BD00BF9FB701000DD90100F1D8010053
:1031880000210123064A904206D8064A01B90123C4
:103198001360054B18607047012140085B00F2E797
:1031A80040420F00D4180020D8180020F8B50D466A
:1031B8000446064F4618B44201D12846F8BD14F813
:1031C800011BBB6801485B689847F4E7B49F01009E
:1031D800014B036000207047F8A5010010B54FF4BB
:1031E8002814DFF820C086B0CDE904C4082402946E
:1031F80004AC0194BDF82040009413F09AFB06B08B
:1032080010BD00BF1800280008B5044811F06FF879
:10321800034811F06CF8002008BD00BF3DB1010063
:1032280072B1010001480EF041BC00BF84A6010044
:1032380038B5044618B90F4B0F485B689847616862
:10324800B1F5683F10D0B1F5680F0DD00B4DA9420C
:103258000AD011F46861206807D00146084815F0C3
:1032680034FB00232360656038BD142216F045FD49
:10327800F9E700BF0C0400209FB101002C5F5CA996
:10328800001E002008B560B34368B3F5683F0ED050
:10329800B3F5680F18D0144A934220D000684FF055
:1032A800FF324FF0FF330BF0C1F958B115E001229E
:1032B8000368D3E8EF1F002903D1C3E8E02F0028F3
:1032C800F7D10AD1002008BD0368084A1B7803F526
:1032D800807352F82330002BF4D00548F3E70548F3
:1032E800F1E76FF4E040EEE72C5F5CA900000350C3
:1032F800E98FFFFFEA8FFFFF08B520B34368B3F5F6
:10330800683F09D0B3F5680F13D0114A93421DD016
:1033180000680BF0FDF914E000220368D3E8EF1F02
:10332800012903D1C3E8E02F0028F7D109D00948C3
:1033380008BD00210368084A1B7803F5807342F82A
:1033480023100020F4E76FF4E040F1E70348EFE7CB
:103358002C5F5CA9E98FFFFF00000350EA8FFFFF95
:1033680010B5044618B91D4B1D485B68984763683B
:10337800B3F5683F2FD0B3F5680F2CD0194A9342A4
:1033880019D1236803BB4FF0FF324FF0FF332146BA
:1033980015480BF01DF908B923681BB90F4B1348E2
:1033A8005B68984714220021206816F0A6FC4FF4A9
:1033B8006863636008E0B3F5680F0DD83A2B03D053
:1033C80040F6BA629342DED1206815F0C9FA636804
:1033D80043F03A03636010BD054AF3E70C0400208C
:1033E8009FB101002C5F5CA9001E0020C5B101003F
:1033F8003A00003A08B5064940231422054815F05A
:1034080057FABDE80840044904480EF0DFBD00BF84
:1034180000190020001E00208CA60100A0A60100B3
:1034280008B50348034A0021121A11F039FE08BDF5
:1034380048070020942C0020074808B5074A084987
:10344800121A11F02FFEBDE808400648064A07493F
:10345800121A11F027BE00BF000000204807002004
:1034680078DA0100000000200000002078DA01006E
:103478002DE9F04706460C4600AF002936D0D1E9C1
:103488000012E9468AB06D46A3684FF0050AE8467F
:103498001F48CDE90723CDE9050148F810AF0023FF
:1034A80042464FF421511B48FFF70AFCD4E90312A6
:1034B800CD466369AD461848C5E90723C5E9050146
:1034C800C5F810A0002342464FF421511148FFF7D8
:1034D800F7FBCD46E3690121104A0E4811F0E6FCDE
:1034E800A36901210E4A0B4811F0E0FC012E07D117
:1034F800EFF305830B4A31460648103B11F0D6FC22
:10350800214630460AF0ACFEBD46BDE8F08700BF54
:10351800F2B10100D0A3010021B2010050B20100B4
:103528005FB201008DB2010030BFFFF7FDBF00BFE1
:103538002DE9F04105460B4EDFF82C80324606EBAC
:103548000807CC1B2046094916F0B1FBA0194246D2
:103558000021083C16F0D1FBC5F8A44007F108008B
:10356800BDE8F08100000000040000004CA4010048
:1035780010B5244C2449254811F0A1FDA36A9901EE
:103588003ED52248224911F09AFD1E20A36ADA018D
:1035980004D51E481F4911F092FD1F20194CA36A3B
:1035A800DB0204D519481C4911F089FD0220A36AE1
:1035B8001C0304D51548194911F081FD2120114C2F
:1035C800A36A590304D51148154911F078FD222042
:1035D800A36A9A0304D50D48124911F070FD2320FF
:1035E800084CA36ADB0304D508480F4911F067FDAE
:1035F8002420A36A6FEA03436FEA1343A36210BD52
:103608001D20C3E700ED00E0A0B20100D0A3010037
:10361800B8B20100CBB20100E5B201000FB301005E
:103628002DB3010052B301006CB3010070B506461A
:103638000D46294C29492A4811F041FDA36ADB06A9
:1036480047D52748274911F03AFD1120A36A1C07DE
:1036580004D52348244911F032FD12201E4CA36AD8
:10366800990712D521491E4811F029FD636BA26AFA
:10367800120609D501211E4A194811F017FC1EB17E
:10368800A36A23F08003A3621320134CA36ADE0706
:1036980004D51348174911F012FD1420A36A9C069B
:1036A80004D50F48144911F00AFD15200A4B9A6AEF
:1036B800D10658BF9A6A9A6A920642BF5A6A22F499
:1036C80000525A629A6A42F0FF029A6200232B70F3
:1036D80070BD1020BAE700BF00ED00E097B301000D
:1036E800D0A30100ADB30100E0B30100F3B30100C2
:1036F8000BB4010021B4010040B4010070B50646C6
:103708000D46284C2849294811F0D9FCA36AD90448
:103718003CD52648264911F0D2FC1720A36A1A0581
:1037280004D52248234911F0CAFC18201D4CA36A6D
:103738009B0512D51D48204911F0C1FCA36BA26A54
:10374800100409D501211D4A184811F0AFFB1EB11C
:10375800A36A23F40043A3621920124CA36A5905F3
:1037680004D51248164911F0AAFC1A20A36ADA05F2
:103778000ED50E48134911F0A2FC1B20094A936A82
:1037880043F47F43936200232B7070BD1620C5E776
:10379800A36A9B04F2D505480B4911F090FC1C2044
:1037A800ECE700BF00ED00E06FB40100D0A301001A
:1037B80085B40100E0B3010096B40100AFB4010084
:1037C800C4B40100DFB4010040B401002DE9F041A8
:1037D8008AB0674B0446D3F80480002500AFC8F3CD
:1037E800080685F31188BFF36F8F02F07F43B3F1AA
:1037F8007F4F07D102F00C03082B12D15D495E48B8
:1038080011F05DFC00252C460023FB71F31E092BEB
:1038180000F28E80DFE803F00A8487808C8C8C8C21
:103828008C8A10074CBF0C460125EDE753495248D6
:1038380011F045FC00234E4EFB71F36A9A0705D53B
:103848004F494D4811F03BFC00232DE0F36A002B53
:1038580001DA4C49F5E7F36A5B00F5D54A49464871
:1038680011F02DFC7369A26943F480737361BFF38F
:103878004F8FBFF36F8F32F8023C726922F4807267
:103888007261BFF34F8FBFF36F8F03F47F42B2F5BE
:103898005F4F2BD1DBB2022B28D1236801213B4A91
:1038A800354811F003FB2368FA79DAB907F10806FD
:1038B80004F1200C324620686168083403C264456C
:1038C8001646F7D17A6A002D4FD0C2F3080121B904
:1038D8006FEA52226FEA42227A62184607F108011B
:1038E800FFF7C6FD2837BD46BDE8F081204B9A6A30
:1038F800D2B222B10120F91DFFF798FE0EE09A6AB4
:1039080012F47F4F04D00120F91DFFF7F7FE05E000
:103918009B6AB3F5803F97D3FFF72AFE0346C3E7B8
:103928000020F91DE8E70020F91DEEE7184988E7AF
:10393800184A18F4F87FE8468AB0174B08BF1346B0
:103948006A461649103ECDE905134FF40073ADF8E9
:103958002030134B079642F8103F00234FF41151C3
:103968000548FFF7ADF9C5466EE76FF30802B3E700
:1039780000ED00E025B50100D0A3010050B501001D
:1039880067B5010088B5010096B50100B5B501001D
:10399800D1B50100F7B401000CB50100F5B501007F
:1039A80004000001064B5A6942F010025A615A6934
:1039B80042F480625A615A6922F008025A617047DB
:1039C80000ED00E0EFF30880EFF3098101B57246DE
:1039D800FFF7FCFE01BD00BF002080F31488BFF391
:1039E8006F8F002080F30A8880F30B88104880F3DB
:1039F800088800200F49087009F028FB00200E49AC
:103A08000860BFF34F8F00F02DF8202080F3118855
:103A18000A484FF40061401880F30988EFF31480D6
:103A28000221084380F31488BFF36F8F00F0A6F8D3
:103A3800E05300208E2C002094ED00E0A0420020EE
:103A4800002318460649D1F89020C2F30722934272
:103A580000DB7047C1F89830C1F8A0000133F6E7E1
:103A680000ED00E010B572B6002484F31388FFF768
:103A7800E7FF23464FF0FF300C4A03F120010133E2
:103A8800102B42F82100F8D100234FF0FF30074AED
:103A980003F160010133102B42F82100F8D162B61E
:103AA800BFF34F8FBFF36F8F10BD00BF00E100E081
:103AB8001EF0040F0CBFEFF30880EFF30980816953
:103AC80011F8021C0229FFD001B5724611F0ECFA78
:103AD80001BD00BF40B2002807DB01234109034AAA
:103AE80000F01F00834042F82130704700E100E0F9
:103AF80040B200280CDB01220649430900F01F00F0
:103B08008240203341F82320BFF34F8FBFF36F8FDC
:103B1800704700BF00E100E0054B420953F822203E
:103B2800012300F01F0003FA00F01040704700BFA7
:103B380000E100E040B2002801F10101ACBF00F152
:103B48006040064B4FEA4111C9B2ABBF00F5614076
:103B580000F00F0080F800131954704714ED00E0CE
:103B6800044B054A23F07F039360BFF34F8FBFF3E5
:103B78006F8F70470000000000ED00E008B5FFF708
:103B8800EFFF074AD2F8883023F47003C2F8883070
:103B9800FFF746FCFFF750FC00F0A2F80AF088FC9B
:103BA80000ED00E042F8203C009B0B4942F81C3C29
:103BB800019B21F0010142F8183C029B42F8081CC5
:103BC80042F8143C4FF0807342F8043C0023203A3A
:103BD8000265C0F8A8307047DD1D000000B50E4B27
:103BE80015469860D0F8A4200C4B0E461A60D0F801
:103BF800943083F30B882C4686F309880020044B05
:103C080098472046002100220023024C204700004C
:103C1800E7500100DD1D0000BC2200201C1E002012
:103C28001022014B1A61704700ED00E0054B5A69FC
:103C38009B689A421FBF044A536843F080535360FD
:103C4800704700BFBC22002000ED00E0084B9B68D5
:103C580083420BD1EFF3058343B1064B5A6842F018
:103C680080525A605A6A22F400425A620BF0B0BB82
:103C7800BC22002000ED00E016498A684FF03000B1
:103C88001044EFF3098C80E8F01F202080F312889D
:103C9800BFF36F8F104F4FF000664A698A603E602D
:103CA800D2F8A4000D4C2060D2F8A8000023C2F876
:103CB800A83080F3118802F1300090E8F01F8CF3EF
:103CC800098802F1000004B511F001FABDE80440CA
:103CD80070470000BC22002004ED00E01C1E0020FC
:103CE800002320210348C2180133452B82F8001312
:103CF800F9D1704700E100E008B5EFF30583064A03
:103D0800103B02EBC30152F8330049688847BDE80D
:103D18000840FFF78BBF00BF24A0010001480068DE
:103D2800704700001C1E00201FB50121094B0A4ADC
:103D38000A4800F00FF90023064A0393084B0121B3
:103D4800019301A8D31A029300F00EF905B05DF8AB
:103D580004FB00BF0000072000000020B0A60100FF
:103D6800480700200A7A0B6810B562F304031C4662
:103D7800CB68520923F01F0343EA4203044A43F085
:103D88000103C2F89800C2F89C40C2F8A03010BDE8
:103D980000ED00E010B50A4BD3F89030C3F30723C9
:103DA800013B984208D901210346064A064811F00A
:103DB8007DF86FF0150010BDFFF7D4FFFBE700BFDB
:103DC80000ED00E00CB60100B8A301002DE9F04FAA
:103DD8008946144606464FF000084F4D85B0C84541
:103DE80027DAD6F804A0BAF1000F44D0BAF11F0FB1
:103DF80017D91AF01F0F14D1D6F800B01BF01F0FF7
:103E08000FD1584611F0A7F907460AEB0B00013805
:103E180011F0A1F9874210D06FF015073F4A3B46D1
:103E280001E043463E4A01213E4811F03FF86FF059
:103E38001504204605B0BDE8F08F17F1160FEDD038
:103E4800BC42EBDDC5F89870D5F89C10C5F89870A1
:103E5800D5F8A03021F01F0143F01F0BD6E900323E
:103E68001A44994202F1FF3A1AD1D34507D1314693
:103E7800F8B211F079F908F101080C36AFE73146CC
:103E8800C5F89870D5F89C30E0B263F30402C5F821
:103E98009C2011F069F910F1160FC8D0441CEAE70C
:103EA800C5F89870D5F8A020013B23F01F0302F055
:103EB8001F021343D3453146E0B2C5F8A030E8D01D
:103EC80011F052F910F1160FB1D0C5F89870D5F865
:103ED8009C209DF808300BF1FF3B62F304038DF83A
:103EE8000830D5F8A0309DF808205B0863F3471226
:103EF8008DF80820D6E900321344009323F01F03FD
:103F08005B44A3EB0A03013023F01F036946C0B2E8
:103F18000393FFF73FFFBEE700ED00E058B601004E
:103F280032B60100B8A301000522044BC3F894205F
:103F3800BFF34F8FBFF36F8F704700BF00ED00E0F6
:103F4800BFF35F8F0022024BC3F89420704700BF75
:103F580000ED00E010B5034C2278FFF737FF207022
:103F680010BD00BF632900202DE9F74F294D8A466F
:103F780006464FF00008AB46274FD0451BDAD6F867
:103F88000490B9F1000F3FD031680846019111F053
:103F9800E2F80199044609EB0100013811F0DBF859
:103FA80084424FF014021D4B08D002FB08F36FF057
:103FB80015024BF8032003B0BDE8F08F14F1160F7B
:103FC8002C60F8D01978A142F5DD02FB08B0C7F8DB
:103FD8009840C7F89840D7F89C4000F10801007B4A
:103FE80064F304000871D7F8A0000C79400860F366
:103FF80047140C71D7F89C1021F01F016960D7F89D
:10400800A01021F01F01296108F1010814350C36B0
:10401800B3E700BF201E002000ED00E06329002068
:10402800F0B55349534DD1F890302C68C3F30723AA
:104038009C4287B000F299800020FFF781FF4E4B29
:10404800C1F8C030844216D14C4D01A82C70FFF73E
:10405800BFF8002607464A4CB74213D100202B78F8
:104068004349D1F89020C2F30722934277DBFFF748
:104078005BFF002046E0696801EB0011FFF772FE64
:104088000130DFE70199300101EB0613DA682240BD
:10409800B2F1807F52D00AD8B2F5001F34D0B2F501
:1040A800800F3ED0B2F5801F12D00136D4E7B2F1AE
:1040B800006F43D0B2F1805FF7D15A689B68095806
:1040C800013B22F01F00034423F01F03012032E0CC
:1040D8005A689B680958013B22F01F0003440120DD
:1040E800844623F01F0340EA4C10CDE902218DF8E5
:1040F800100002A928780593FFF74CFE00282ADA59
:104108006FF0150007B0F0BD5A689B680958013B6D
:1041180022F01F0003444FF0020C012023F01F037C
:10412800E1E75A689B680958013B22F01F000344E5
:10413800062023F01F034FF0000CD4E75A689B6851
:104148000958013B22F01F0003444FF0030C0120E3
:1041580023F01F03C7E72B7801332B70A5E7C1F8BD
:104168009830C1F8A00001337BE74FF0FF30C9E772
:1041780000ED00E0BCA60100AAFF4400632900206E
:104188000000F0FFF0B587B007460E461446002140
:10419800102268461D4615F0B0FD02238DF8023046
:1041A800054B2A4621466846CDE9047601930FF06F
:1041B8000DFC07B0F0BD00BFA351010008B50248CF
:1041C8000FF0BAFBFEE700BF8AB6010008B5024B44
:1041D8001B689847002008BD341E0020034B044A82
:1041E8001860937843F0020393707047341E0020E0
:1041F800E401002008B50649064821F00701C1F18D
:10420800005202F5E0220FF0CEFF002008BD00BFEB
:104218005F7A0020381E002070B541690446867A0E
:104228000A4D59B1437ADB0706D4242303FB06530E
:10423800DB691B689B68984700236361242021463B
:1042480000FB0650BDE8704014F025BC280600208D
:104258002422024B02FB0030704700BF28060020D2
:104268002421827A054B01FB02331A6A1B7D801ACE
:104278001B3323F00303B0FBF3F07047280600203C
:1042880038B52424827A064B04FB0233DB69D3E970
:1042980001240C601568FFF7E3FF04FB005038BDEC
:1042A800280600202DE9F04385B00546684690466B
:1042B8001C46039114F09AFEDDE90067EFF31189BB
:1042C800202383F31288BFF36F8F6B8A002B41D0B2
:1042D8002A8A9A4225D90022002328460AF068FA39
:1042E8000446F0B189F31188BFF36F8F039B002B4D
:1042F80041D032463B46684614F09DFE2421A27AFE
:10430800254B204601FB0233DB6903A91B681D68A6
:10431800DDE90023A847606170BB2046FFF77CFFFA
:1043280024E0698A4B1E6B8289F31188BFF36F8F73
:104338002B7D2A8A2C6A1B3323F00303521A02FBB3
:104348000344154B154AEB1A9B105343A3722B7D5C
:10435800E372CBE789F31188BFF36F8F2346424698
:1043680028460AF025FA04460028BFD10024204632
:1043780005B0BDE8F0836361012300252381039B19
:1043880029466382E27A656004F1180015F0B5FCED
:1043980063692582E360EAE728060020398EE3385E
:1043A80070B524250C4C00B970BD037A4668002B03
:1043B800FAD0013BDBB20372002BF5D1C360436036
:1043C800837A05FB03439B6913B198473046EAE7B4
:1043D800FFF722FFFAE700BF28060020052370B583
:1043E800144D154E2C780134B4FBF3F303EB83031F
:1043F800E41A13F044F8114A137823B156F824301C
:10440800C01A072814D94FF05023D3F8141141B11A
:104418000021C3F81411D3F814312C700CB90123FE
:1044280013702C7813F02BF846F82400012070BD87
:104438000020FCE765290020441E00206429002094
:10444800054B03EB8000D0F8003223F0E04343F043
:104458004053C0F80032704700258450012208B547
:104468000B4B0C49C3F8002502230020C1F8D036B5
:10447800FFF7E6FF1046FFF7E3FFC1F80427C1F88E
:104488000429C1F8002BBDE8084000F065B800BF5A
:10449800001000500040005007B500220D4B0E4997
:1044A800C3F8A821C3F8AC204FF48062C3F8B8253C
:1044B8004FF400620948C3F83C250DF1070213F0D8
:1044C8003DF8002803DB9DF8070008F0ABFE03B0B9
:1044D8005DF804FB00A002502CA0025028A1025055
:1044E80048B1054B054A1B68B3FBF2F35843044B2C
:1044F80043F0010318477047C003002040420F00F3
:10450800F0A4010070B50025104E1149114C0007A8
:1045180016F8013B03F01F025B090FD0012B0FD1E6
:10452800234603EB8203D3F80022013522F0E04250
:104538000243042DC3F80022EAD170BD0B46F0E710
:104548000023803253F82230FFDE00BF19D9010062
:1045580000258450002884500149024810F09CB975
:10456800F4A60100581E00201FB578B1002301935E
:104578000393012369460848029310F0A0F9029BAF
:104588009B0700D1039B05B05DF804FB024805B00A
:104598005DF804EB10F0DEB9581E002008B54FF0A6
:1045A800FF33044A13603F231046536008F026FE89
:1045B800002008BD741E002070B50B7892B0064626
:1045C8000C4607AD032B31D8DFE803F0022A2C2E66
:1045D80019492846FCF78EFC05956378174A049319
:1045E800A3781E210393E3780AA80293237910ADD8
:1045F800019363790093A3790FF0BEF932460AABB1
:104608001C4603CCAC4210605160234602F10802FC
:10461800F6D1206810603046A388938012B070BD30
:104628000749D6E70749D4E70749D2E70A212846C8
:10463800064A0FF0A1F9CFE7AAB60100CCB60100EF
:10464800B1B60100B8B60100C2B6010035D101000B
:104658000E4B402928BF402170B51D460C4C46180A
:10466800B04203F1020304D1002305F811300748D2
:1046780070BD02781209A25C03F8022C10F8012B15
:1046880002F00F02A25C03F8012CE9E7662900207A
:1046980037D9010010B50024094B86B009480393A7
:1046A800CDE9044414F0D4FA03AB00934FF4E1626B
:1046B8000A23054903480AF07FFA204606B010BDD0
:1046C800F6B60100E00F00209833002001460148AB
:1046D8000AF0E8BAE00F00200146014814F08DBA4C
:1046E800E00F002030B50378012B11D0022B21D028
:1046F8006BB90A46144B03F1100453F8045BA34248
:1047080042F8045BF9D143881A0A8A70CB7030BD2D
:104718000A460D4B03F1100453F8045BA34242F818
:10472800045BF9D143681A0C180E4A700870C3F379
:104738000722EAE700F11003013913F8012998422A
:1047480001F8012FF9D1E2E748D9010038B505464B
:1047580014F0DBFA044608B90AF070FD054BD3E8FB
:10476800AF3F0BB1284698471CB9BDE838400AF05E
:1047780079BD38BD7C1E0020022838B504460CBF20
:104788000848094810F01AFD054648B1013CE4B252
:104798001F2C96BF054B0021195D0C3010F07DFDD4
:1047A800284638BDB80600202806002058D9010040
:1047B8000F2810B50CD80D280CD90A4810F0FEFCAB
:1047C800044618B104210C3010F067FD204610BDD6
:1047D8001328F2D009B10448F0E70220BDE81040E0
:1047E800FFF7CABF2407002094060020C3681B787F
:1047F8000221024A024810F0F9BE00BF0EB70100BC
:1048080028A3010038B5C5682B7893B9B5F80140DD
:104818000F21204602F04AFFEB78054650B90A4AB4
:10482800118831B96FEA04506FEA10501080074AB6
:10483800137038BD0373012102F054FE2846BDE809
:10484800384002F003BE00BF40290020E7290020BD
:1048580070B5C3681D78BDB9B3F801600F21304643
:1048680002F024FF044638B901213346BDE8704000
:10487800064A074810F0BABE294602F033FE204621
:10488800BDE8704002F0E2BD70BD00BF36B7010060
:1048980028A3010010B5C3680121B3F801402046E0
:1048A80002F004FF38B901212346BDE81040044A4C
:1048B800044810F09BBEBDE8104002F0C7BD00BF21
:1048C8005CB7010028A3010010B5C36801211C884A
:1048D800204602F0EBFE38B901212346BDE810401E
:1048E800034A044810F082BEBDE8104002F0AEBD95
:1048F8005CB7010028A3010010B501210C3010F0AD
:10490800EDFC03780121BDE81040024A024810F08E
:104918006DBE00BF80B7010028A30100014610B595
:10492800084810F04FFC0849084814F066F9031EBF
:1049380006DABDE810400121054A064810F056BEC7
:1049480010BD00BF34010020940200208011002017
:10495800A2B7010028A3010010B50024084B86B0B7
:10496800039303AB00934FF42C724FF0FF330549C8
:104978000548CDE904440AF01FF9204606B010BDE9
:10498800BFB70100A03A0020B010002010B5084CB5
:104998000146062294F86F0003F0E6F938B994F856
:1049A8006F000522BDE81040024903F0DDB910BDD3
:1049B800000000201DD901000121024A024810F020
:1049C80013BE00BFCFB7010028A301000B46B0B546
:1049D8000D8A00AF04462946D868FFF739FE8AB029
:1049E8006A46094BCDE90750CDE9053440F2024348
:1049F800ADF82430054B4FF43251054842F8103FCA
:104A080010F001FEBD46B0BDE9B701000500000188
:104A180028A3010070B5C5680121B5F801603046CA
:104A280002F044FE044638B901213346BDE870401F
:104A38000B4A0C4810F0DABD2B783BB9D5F8033097
:104A4800C0F89930D5F80730C0F89D30201D4FF4D4
:104A5800803110F0CDFD2046BDE8704002F0F6BC74
:104A68005CB7010028A301002DE9F84FD0F80C909D
:104A7800018A99F8004000AFA30001338B425FD947
:104A88006D468AB06A46CDE9073105232E484FF4B2
:104A98002151CDE905042D4842F8103F10F0B3FD2F
:104AA800AD46BD46BDE8F88F01212B46284A274868
:104AB80010F09CFD013699F800309E42F1DA09EBBE
:104AC8008603B3F801500F212846B3F8038002F09B
:104AD800EDFD04460028E7D000F1C00AB8F1000F48
:104AE80006D0656945B901211A4A184810F07CFDBD
:104AF800204602F0ABFCDDE7A2692B689542204610
:104B0800636108BFA36102F0C7FB09F083FEC5F823
:104B180000B0236A8BB9C4E90755DAE8EF3F013BD7
:104B2800CAE8E23F002AF8D10021204608F1FF3800
:104B380002F0BEFB1FFA88F8D0E71D602562ECE79B
:104B48000026B346B7E700BF0BB8010028A3010051
:104B580036B8010052B8010037B50446084602EBE2
:104B6800C3039A4202D16FF05E0010E0114611F8BB
:104B7800085BA54211D1038A5178994209D908489E
:104B88000121084A009410F09BF96FF0150003B05A
:104B980030BD536898470020F9E70A46E1E700BFAF
:104BA80028A3010069B801002DE9F0470C460AF076
:104BB80045FBE5682B78022B75D0042B0AD0012120
:104BC8003D4A3E4810F012FD2046FFF7E9FB6FF022
:104BD80015040EE0B4F81080B8F1020F0ED8434661
:104BE800374A3648012110F001FD2046FFF7D8FB6F
:104BF80000240AF037FB2046BDE8F08768783E2895
:104C08000CD1B8F1030F02D12E4A4346E9E7EB78FD
:104C1800012B01D00A2B46D1032704E010F0D2FC67
:104C28000746F8073FD504F10C0601213046D4F8B1
:104C380014A010F04BFB0221304610F04FFB8146C8
:104C480000783E2807D1E3681B78012B01D00A2B96
:104C580006D1032614E010F0B5FCC10706460FD4B0
:104C680041F26813184A194919480FF04DFB0023FF
:104C780083F31188BFF36F8F0323184602DF0226E0
:104C8800144A0623214699F8000010F0F3FCB207F5
:104C98000DD56369A5EB0A0513FA85F5E560A4F857
:104CA8001080BB07A4D52046FFF738FEA0E72046B2
:104CB800FFF776FBF5E700BF31B9010028A3010033
:104CC8008BB80100A7B80100C7B80100FBB8010004
:104CD80014B901008CA7010010B5012104460C305D
:104CE80010F0FCFA2146BDE810400223014A007882
:104CF80010F0C0BCBCA7010073B53E4810F077FAAD
:104D08000446002873D000F10C05284610F0EEFA8E
:104D18000228034603D0042847D0374A03E0238AF1
:104D2800032B05D8354A0121354810F05FFC13E004
:104D38000421284610F0D2FAFF23428806882376F9
:104D4800238AC6F30B009A42608309D0012100929E
:104D58002B482C4A10F0B4F82046FFF721FB12E04C
:104D68000F2102F0A3FC054610B9638B264ADAE747
:104D780002F0C2FC21462076320B284602F0EAFAFD
:104D8800284602F063FB214BD3F834317BB320492A
:104D9800204813F032FF031E29DA01211E4A184861
:104DA80002B0BDE8704010F021BC2846022110F086
:104DB80095FA054600783E2812D010F003FC10F052
:104DC80002060DD140F69A43144A154915480FF0CA
:104DD8009BFA86F31188BFF36F8F0323184602DF0F
:104DE80006232146104A287810F044FCB4E702B0A4
:104DF80070BD00BF34010020DAB9010045B90100D7
:104E080028A3010066B901008AB90100000000204A
:104E18009402002080110020A2B70100C7B8010049
:104E2800ACB9010014B90100CCA7010010B50121EB
:104E380004460C3010F052FA2146BDE81040082311
:104E4800014A007810F016BCFCA70100F8B5012152
:104E5800044600AF0C3010F041FA067800232146D2
:104E68003046104AFFF778FE5F3019D1258AE0688E
:104E78002946FFF7EDFB6C468AB06A460A4BCDE936
:104E88000750CDE9053640F20243ADF82430074B10
:104E98004FF43251064842F8103F10F0B4FBA546D3
:104EA800BD46F8BD3CA80100EEB9010005000001AF
:104EB80028A301002DE9F74F0023804689461746AD
:104EC800DFF800A1DAE8EF4FCAE8E23F002AF9D19B
:104ED800264644B9012143463B4A3C4803B0BDE855
:104EE800F04F10F083BB2046FFF7BAF94FF00C0BD8
:104EF800374D0BFB0050438843451BD02046FFF736
:104F0800AFF90BFB0050438801210093314A434617
:104F18002E480FF0D5FFDAE8EF3FCAE8E26F002A23
:104F2800F9D1002B4BD01E46304603B0BDE8F04FF8
:104F3800FFF736BAA74208D0204610F03AF93A8A65
:104F4800F96804F10C0010F09FF92046FFF788F982
:104F58000C2707FB00504368ABB1B9F1000F12D121
:104F68002046FFF77DF9012107FB0050426853688E
:104F780003F01F00814010685B0900EB8300137A7F
:104F8800CBB110F035FB2046FFF76AF90C2707FB79
:104F980000508368002BC7D02046FFF761F978439B
:104FA80005F800902046FFF75BF907FB0055A86855
:104FB80009F030FCB8E7C94310F028FBE3E703B079
:104FC800BDE8F08F3001002020BA010028A30100BD
:104FD800801E002048BA010073B5C5680121B5F8E4
:104FE8000160304602F062FB044640B901213346B5
:104FF8003B4A3C4802B0BDE8704010F0F7BA2B7845
:10500800061D1A2B19D1C378012B50D14FF48041BA
:10501800304610F0EDFA42040FD4D4F88C306946CB
:105028000093D4F894302046019303F0D1F9204638
:1050380002B0BDE8704002F009BA2B78BBBB40F261
:10504800E242B5F8033028495343C4F88830B5F82C
:105058000520A4F89020B5F80720A4F89220A3F51D
:10506800EA520C3A8A4204D90221204A1D4810F01B
:10507800BDFAB4F89030B3F5FA7F04D302211C4A84
:10508800184810F0B3FA40F67641B4F89230A3F11C
:105098000A0292B28A4204D90221164A114810F033
:1050A800A5FA6FF48051304610F0B0FA14E0D6E853
:1050B800AF3FDB04F5D52B78202BF2D194F898304C
:1050C800002BEED0013B84F898304FF420320023B7
:1050D80004F1400009F010FE204602F0E3FCA6E7C8
:1050E8005CB7010028A3010095F03C007BBA0100E1
:1050F800A2BA0100C9BA0100B0B53C28044600AF05
:105108001AD101F02FFB6FF48071103010F07EFA85
:105118000020FFF73BFC054630B90121114A12482F
:1051280010F062FABD46B0BD0473002102F0DAF94E
:10513800284602F08BF9F5E76D468AB06A460B4BB4
:105148004FF41251CDE90530094B0748079340F257
:105158000133ADF82030074B42F8103F10F053FAF6
:10516800AD46DFE7F5BA010028A3010016BB010030
:10517800D8D7010004000001054BD3E8AF2F02F097
:105188000B02D3E8EF1FC3E8E02F0028F9D17047DE
:10519800D400002010B5C1E900239DF808300C4662
:1051A8000B72FFF75DF80C22024B02FB00335C60C8
:1051B80010BD00BF801E0020F8B502460B461048FF
:1051C8000FF0FCFF0446C0B104210C3010F04BF87E
:1051D8002046FFF745F80C2700260A4D07FB00502C
:1051E80046802046FFF73CF807FB005086602046C3
:1051F800FFF736F807FB00556E602046F8BD00BF84
:1052080000070020801E002029289ABF014B185C47
:105218000920704778D9010070B5C3680F21B3F829
:1052280001601D78304602F041FA044638B9012180
:105238003346BDE87040184A184810F0D7B965B130
:105248002846FFF7E1FF29460246204602F0E2FC25
:105258002046BDE8704002F0F9B88378012B07D1E9
:1052680006F0D6FA204610F095F9002808BF052563
:105278002846FFF7C9FF29460246204602F0CAFC25
:10528800002DE5D00121064A044810F0ADF90521AA
:10529800204610F051FCDBE736B7010028A30100D7
:1052A80032BB01002DE9F041C6680F21B6F8017044
:1052B8003578384602F0FAF9044638B901213B46F8
:1052C800BDE8F0411E4A1F4810F090B965B1284664
:1052D800FFF79AFF29460246204602F09BFC20462B
:1052E800BDE8F04102F0B2B8F278C37A934205D132
:1052F8000221154A134810F079F9F0E78378C27251
:10530800012B08D10AB106F083FA204610F042F9C1
:10531800002808BF05252846FFF776FF29460246DC
:10532800204602F077FC002DD9D00121074A054814
:1053380010F05AF90521204610F0FEFBCFE700BF18
:1053480036B7010028A3010058BB010032BB010099
:1053580010B5044692B048226846064914F0A7FCE6
:10536800112C9DBF12AB03EB840454F8480C02487F
:1053780012B010BD58A4010087BB0100034B0146C1
:10538800D3F84C0182689268104700BF00000020E3
:105398002DE9F04F91B0042100AF4A4810F028F9E8
:1053A8006D4688B06A46484B4FF4E6510593474B23
:1053B800474806934FF40073ADF81C30454B464CF4
:1053C80042F8103F10F01FF9AD46E179434B444EC7
:1053D80007F12008012998BF1E4640462146FFF7DD
:1053E800EBF88AB06A463F4BCDF81C80CDE905360C
:1053F8003D4B4FF4235108933C4B354842F8103F3E
:1054080010F001F9A246AD460125394EDFF8E480D7
:10541800E3790AF1070A9D423BDB94F870506E4627
:105428002846FFF795FF8CB06A46B4F87210B4F8B6
:105438007630CDE907514FF40075DFF8BCC0099309
:105448002E4BCDE905C0ADF828504FF4535142F822
:10545800103F1F4810F0D7F8B54694F871603046F1
:10546800FFF776FF8AB06A46B4F874302449CDE96C
:105478000763244BCDE90510ADF824504FF43351A0
:10548800134842F8103F10F0BEF84437BD46BDE857
:10549800F08F51463846FFF78FF8E9468AB06A46DA
:1054A80040F20133CDE905650797ADF820304FF498
:1054B8001351074842F8108F10F0A5F80135CD4672
:1054C800A6E700BFD400002093BB0100A5BB0100E4
:1054D80028A301000300000100000020D8D7010024
:1054E8008FBB0100A9BB01000002010304000002F8
:1054F800B8BB010004000001C9BB0100060000019F
:1055080007BC0100050000010048704721AE0100FA
:105518000149024813F071BB84020020B01000203A
:1055280070B505460C4639B1CB684A699B1A032BFE
:105538000ED86FF0150509E04FF0FF304FF0FF313E
:10554800FFF73AFE044618B96FF06805284670BDA3
:105558002046FEF785FE0C22164BA61802FB0033E8
:10556800032130465D800FF0A0FE0580238A0121CB
:10557800033B837030460FF0A0FE40F635439D4252
:105588000FD12046FFF7FAFE05460028DED001219C
:105598000346094A094810F029F82046FEF700FF9B
:1055A800D4E72146064813F06BFA0025FFF7B0FF51
:1055B800CCE700BF801E00202EBC010028A30100FC
:1055C8003C0100202DE9F0410446458B077E807A96
:1055D800FEF73EFE6169064649B1637ADA0704D4EC
:1055E800C36920461B689B6898470023636121466E
:1055F800304613F050FA254B93F88A309B0642D573
:10560800384602F0DDFC044638B902213B46BDE8C5
:10561800F0411F4A1F480FF0E9BF437B073B012BAE
:1056280009D91C4802211C4A0FF0DEFF2046BDE8BC
:10563800F04101F00BBF01F009FF4FF0FF304FF0D0
:10564800FF31FFF7B9FD044630B9BDE8F04101214B
:10565800124A10480FF0C8BF00F10C070121384664
:105668000FF00CFE01260421067038460FF006FEE6
:10567800002305808670C3702146BDE8F04140F6DE
:105688003540FFF74DBFBDE8F08100BF00000020A6
:105698009BBC010028A30100C4BC0100F0BC0100B0
:1056A8002DE9F04784B0804691460C4600AF71B9A9
:1056B8004FF0FF304FF0FF31FFF77EFD044660B931
:1056C8006FF0680528461037BD46BDE8F087887A30
:1056D800FEF7BEFD3C4B83426FD1012200213846C4
:1056E80013F0E7F92046FEF7BBFD0C23DFF8DCA03A
:1056F80003FB00A0876020460FF08FFD014640465F
:10570800FFF70EFF054618B12046FEF749FED9E718
:105718004FF4A0220023384609F0B0F8064690B1AD
:105728004FF4F1732A4A2B492B480EF0EDFD32460F
:1057380041462A480EF0E8FD85F31188BFF36F8FC4
:105748000323184602DF2046FEF78AFD0C23584340
:105758001AF800605EB36D468AB06A46204B079619
:10576800CDE905381F4B4FF43251089340F20243FC
:10577800ADF824301C4B1D4842F8103F0FF043FF92
:105788002046AD46093EFEF70BFE092E0CD8DFE891
:1057980006F0050B0B08170B0B0B0B146FF06E05BF
:1057A80090E76FF00C058DE76FF004058AE7B9F113
:1057B800000FA9D0C9F8004084E76FF0150581E70C
:1057C8006FF00B057EE700BF00070020801E002059
:1057D800C7B801006FBC010014B9010013BD010076
:1057E80058BD0100D8D701000500000128A3010019
:1057F800F7B5144B054693F99B300C46002B1DDA80
:1058080014B9204603B0F0BD082C4FF0000142F255
:10581800180001AA264628BF0826FFF741FF0028DE
:10582800F0D1019F3246F9682846013114F03FFA59
:105838003846FEF7B5FD3544A41BE1E76FF0850057
:10584800E0E700BF0000002073B506460D4642F2AF
:105858002F00002101AAFFF723FF044638B10121D8
:10586800144A15480FF0C0FE204602B070BD0198DA
:10587800C368B3F801203280B3F803302B80FEF7F9
:105888008FFD3388A3F11B02E02A04D902210B4AB9
:1058980009480FF0ABFE44F248112B88A3F5A47217
:1058A80092B28A42E0D90221054A03480FF09EFECF
:1058B800DAE700BF77BD010028A3010097BD01000A
:1058C800BCBD01002DE9F04F8DB0002605465E4BAA
:1058D800B0F80190198849F47042914204BF1E80C3
:1058E8005A4B00AF08BF1E7800F0A4FCEB7805F116
:1058F800040A012B08BF564B504614BF002493F8E6
:105908006F400FF0D7FD07F10808514680B34FF0FC
:10591800010B40460FF0C3FDD5F81130C7F8013030
:10592800B5F81530A7F80530EB78012B37D007F11B
:10593800100451462046FEF73FFE6D4688B06A4681
:10594800444B4FF4E251CDE905344FF40073ADF800
:105958001C30414B414842F8103F0FF054FE1321D0
:10596800AD4648460FF0C1FE3437BD46BDE8F08F5E
:10597800204610F001F80346006895F804B0B860B6
:105988009A889B796868A8F8042088F80630BAF8DD
:1059980004209AF806303860BA80BB71C4E74046E4
:1059A800FEF7F4FF04460028C1D00346B5F80120ED
:1059B80023F8702B98F80620B868B8F80410206708
:1059C8009A7140F2E2429980B5F8173053430022A9
:1059D800C4F88830B5F81930A4F89030B5F81B3001
:1059E800A4F89230EB782273012BE3701AD187F870
:1059F80000B0BA88BB793868A4F87B2084F87D3079
:105A0800C4F8770000F0AEFE237A1149C3EBC30354
:105A18005A18CB58C4F87E309388A4F8823093790A
:105A280084F884300721204601F05CFD26B101216D
:105A38002046267301F056FD204601F099FE2046C7
:105A480001F004FD90E700BF40290020E72900206D
:105A580000000020DFBD01000300000128A30100B1
:105A680000B5C36889B0187820B109B05DF804EBB7
:105A7800FFF742BBB3F801208DF80000ADF8012014
:105A8800DA788DF80320B3F80B20ADF81720B3F8B7
:105A98000D20ADF81920B3F80F20ADF81B205A7C63
:105AA8008DF81D20586801901A899B7AADF8082056
:105AB8008DF80A30084B68461A689B88CDF80B2089
:105AC800ADF80F30CDF81120ADF81530FFF7FAFE1C
:105AD80009B05DF804FB00BF31D9010010B5FBF730
